{
  "_format": "hh-sol-artifact-1",
  "contractName": "EComEscrow",
  "sourceName": "contracts/EComEscrow.sol",
  "abi": [
    {
      "inputs": [
        {
          "internalType": "address",
          "name": "tokenAddress",
          "type": "address"
        },
        {
          "internalType": "address",
          "name": "initialOwner",
          "type": "address"
        }
      ],
      "stateMutability": "nonpayable",
      "type": "constructor"
    },
    {
      "anonymous": false,
      "inputs": [
        {
          "indexed": true,
          "internalType": "uint256",
          "name": "orderId",
          "type": "uint256"
        },
        {
          "indexed": false,
          "internalType": "address",
          "name": "winner",
          "type": "address"
        }
      ],
      "name": "DisputeResolved",
      "type": "event"
    },
    {
      "anonymous": false,
      "inputs": [
        {
          "indexed": true,
          "internalType": "uint256",
          "name": "orderId",
          "type": "uint256"
        }
      ],
      "name": "OrderCanceled",
      "type": "event"
    },
    {
      "anonymous": false,
      "inputs": [
        {
          "indexed": true,
          "internalType": "uint256",
          "name": "orderId",
          "type": "uint256"
        }
      ],
      "name": "OrderCompleted",
      "type": "event"
    },
    {
      "anonymous": false,
      "inputs": [
        {
          "indexed": true,
          "internalType": "uint256",
          "name": "orderId",
          "type": "uint256"
        },
        {
          "indexed": true,
          "internalType": "address",
          "name": "buyer",
          "type": "address"
        },
        {
          "indexed": true,
          "internalType": "address",
          "name": "seller",
          "type": "address"
        },
        {
          "indexed": false,
          "internalType": "uint256",
          "name": "amount",
          "type": "uint256"
        },
        {
          "indexed": false,
          "internalType": "string",
          "name": "orderReference",
          "type": "string"
        }
      ],
      "name": "OrderCreated",
      "type": "event"
    },
    {
      "anonymous": false,
      "inputs": [
        {
          "indexed": true,
          "internalType": "uint256",
          "name": "orderId",
          "type": "uint256"
        },
        {
          "indexed": false,
          "internalType": "string",
          "name": "reason",
          "type": "string"
        }
      ],
      "name": "OrderDisputed",
      "type": "event"
    },
    {
      "anonymous": false,
      "inputs": [
        {
          "indexed": true,
          "internalType": "uint256",
          "name": "orderId",
          "type": "uint256"
        }
      ],
      "name": "OrderRefunded",
      "type": "event"
    },
    {
      "anonymous": false,
      "inputs": [
        {
          "indexed": true,
          "internalType": "uint256",
          "name": "orderId",
          "type": "uint256"
        }
      ],
      "name": "OrderShipped",
      "type": "event"
    },
    {
      "anonymous": false,
      "inputs": [
        {
          "indexed": true,
          "internalType": "address",
          "name": "previousOwner",
          "type": "address"
        },
        {
          "indexed": true,
          "internalType": "address",
          "name": "newOwner",
          "type": "address"
        }
      ],
      "name": "OwnershipTransferred",
      "type": "event"
    },
    {
      "inputs": [],
      "name": "arbitrator",
      "outputs": [
        {
          "internalType": "address",
          "name": "",
          "type": "address"
        }
      ],
      "stateMutability": "view",
      "type": "function"
    },
    {
      "inputs": [
        {
          "internalType": "uint256",
          "name": "orderId",
          "type": "uint256"
        }
      ],
      "name": "cancelOrder",
      "outputs": [],
      "stateMutability": "nonpayable",
      "type": "function"
    },
    {
      "inputs": [
        {
          "internalType": "uint256",
          "name": "orderId",
          "type": "uint256"
        }
      ],
      "name": "claimExpiredEscrow",
      "outputs": [],
      "stateMutability": "nonpayable",
      "type": "function"
    },
    {
      "inputs": [
        {
          "internalType": "uint256",
          "name": "orderId",
          "type": "uint256"
        }
      ],
      "name": "confirmDelivery",
      "outputs": [],
      "stateMutability": "nonpayable",
      "type": "function"
    },
    {
      "inputs": [
        {
          "internalType": "uint256",
          "name": "orderId",
          "type": "uint256"
        }
      ],
      "name": "confirmShipment",
      "outputs": [],
      "stateMutability": "nonpayable",
      "type": "function"
    },
    {
      "inputs": [
        {
          "internalType": "address",
          "name": "seller",
          "type": "address"
        },
        {
          "internalType": "uint256",
          "name": "amount",
          "type": "uint256"
        },
        {
          "internalType": "string",
          "name": "orderReference",
          "type": "string"
        }
      ],
      "name": "createOrder",
      "outputs": [
        {
          "internalType": "uint256",
          "name": "",
          "type": "uint256"
        }
      ],
      "stateMutability": "nonpayable",
      "type": "function"
    },
    {
      "inputs": [
        {
          "internalType": "uint256",
          "name": "orderId",
          "type": "uint256"
        },
        {
          "internalType": "string",
          "name": "reason",
          "type": "string"
        }
      ],
      "name": "dispute",
      "outputs": [],
      "stateMutability": "nonpayable",
      "type": "function"
    },
    {
      "inputs": [],
      "name": "disputePeriod",
      "outputs": [
        {
          "internalType": "uint256",
          "name": "",
          "type": "uint256"
        }
      ],
      "stateMutability": "view",
      "type": "function"
    },
    {
      "inputs": [],
      "name": "ecomToken",
      "outputs": [
        {
          "internalType": "contract IERC20",
          "name": "",
          "type": "address"
        }
      ],
      "stateMutability": "view",
      "type": "function"
    },
    {
      "inputs": [],
      "name": "escrowPeriod",
      "outputs": [
        {
          "internalType": "uint256",
          "name": "",
          "type": "uint256"
        }
      ],
      "stateMutability": "view",
      "type": "function"
    },
    {
      "inputs": [],
      "name": "nextOrderId",
      "outputs": [
        {
          "internalType": "uint256",
          "name": "",
          "type": "uint256"
        }
      ],
      "stateMutability": "view",
      "type": "function"
    },
    {
      "inputs": [
        {
          "internalType": "uint256",
          "name": "",
          "type": "uint256"
        }
      ],
      "name": "orders",
      "outputs": [
        {
          "internalType": "address",
          "name": "buyer",
          "type": "address"
        },
        {
          "internalType": "address",
          "name": "seller",
          "type": "address"
        },
        {
          "internalType": "uint256",
          "name": "amount",
          "type": "uint256"
        },
        {
          "internalType": "uint256",
          "name": "createdAt",
          "type": "uint256"
        },
        {
          "internalType": "enum EComEscrow.OrderStatus",
          "name": "status",
          "type": "uint8"
        },
        {
          "internalType": "string",
          "name": "orderReference",
          "type": "string"
        },
        {
          "internalType": "string",
          "name": "disputeReason",
          "type": "string"
        }
      ],
      "stateMutability": "view",
      "type": "function"
    },
    {
      "inputs": [],
      "name": "owner",
      "outputs": [
        {
          "internalType": "address",
          "name": "",
          "type": "address"
        }
      ],
      "stateMutability": "view",
      "type": "function"
    },
    {
      "inputs": [],
      "name": "renounceOwnership",
      "outputs": [],
      "stateMutability": "nonpayable",
      "type": "function"
    },
    {
      "inputs": [
        {
          "internalType": "uint256",
          "name": "orderId",
          "type": "uint256"
        },
        {
          "internalType": "address",
          "name": "winner",
          "type": "address"
        }
      ],
      "name": "resolveDispute",
      "outputs": [],
      "stateMutability": "nonpayable",
      "type": "function"
    },
    {
      "inputs": [
        {
          "internalType": "address",
          "name": "newArbitrator",
          "type": "address"
        }
      ],
      "name": "setArbitrator",
      "outputs": [],
      "stateMutability": "nonpayable",
      "type": "function"
    },
    {
      "inputs": [
        {
          "internalType": "uint256",
          "name": "newPeriod",
          "type": "uint256"
        }
      ],
      "name": "setDisputePeriod",
      "outputs": [],
      "stateMutability": "nonpayable",
      "type": "function"
    },
    {
      "inputs": [
        {
          "internalType": "uint256",
          "name": "newPeriod",
          "type": "uint256"
        }
      ],
      "name": "setEscrowPeriod",
      "outputs": [],
      "stateMutability": "nonpayable",
      "type": "function"
    },
    {
      "inputs": [
        {
          "internalType": "address",
          "name": "newOwner",
          "type": "address"
        }
      ],
      "name": "transferOwnership",
      "outputs": [],
      "stateMutability": "nonpayable",
      "type": "function"
    }
  ],
  "bytecode": "0x608060405260016004556212750060055562278d006006553480156200002457600080fd5b50604051620038f9380380620038f983398181016040528101906200004a919062000392565b6200006a6200005e6200010c60201b60201c565b6200011460201b60201c565b6001808190555081600260006101000a81548173ffffffffffffffffffffffffffffffffffffffff021916908373ffffffffffffffffffffffffffffffffffffffff16021790555080600760006101000a81548173ffffffffffffffffffffffffffffffffffffffff021916908373ffffffffffffffffffffffffffffffffffffffff1602179055506200010481620001d860201b60201c565b5050620004f4565b600033905090565b60008060009054906101000a900473ffffffffffffffffffffffffffffffffffffffff169050816000806101000a81548173ffffffffffffffffffffffffffffffffffffffff021916908373ffffffffffffffffffffffffffffffffffffffff1602179055508173ffffffffffffffffffffffffffffffffffffffff168173ffffffffffffffffffffffffffffffffffffffff167f8be0079c531659141344cd1fd0a4f28419497f9722a3daafe3b4186f6b6457e060405160405180910390a35050565b620001e86200026e60201b60201c565b600073ffffffffffffffffffffffffffffffffffffffff168173ffffffffffffffffffffffffffffffffffffffff16036200025a576040517f08c379a0000000000000000000000000000000000000000000000000000000008152600401620002519062000460565b60405180910390fd5b6200026b816200011460201b60201c565b50565b6200027e6200010c60201b60201c565b73ffffffffffffffffffffffffffffffffffffffff16620002a4620002ff60201b60201c565b73ffffffffffffffffffffffffffffffffffffffff1614620002fd576040517f08c379a0000000000000000000000000000000000000000000000000000000008152600401620002f490620004d2565b60405180910390fd5b565b60008060009054906101000a900473ffffffffffffffffffffffffffffffffffffffff16905090565b600080fd5b600073ffffffffffffffffffffffffffffffffffffffff82169050919050565b60006200035a826200032d565b9050919050565b6200036c816200034d565b81146200037857600080fd5b50565b6000815190506200038c8162000361565b92915050565b60008060408385031215620003ac57620003ab62000328565b5b6000620003bc858286016200037b565b9250506020620003cf858286016200037b565b9150509250929050565b600082825260208201905092915050565b7f4f776e61626c653a206e6577206f776e657220697320746865207a65726f206160008201527f6464726573730000000000000000000000000000000000000000000000000000602082015250565b600062000448602683620003d9565b91506200045582620003ea565b604082019050919050565b600060208201905081810360008301526200047b8162000439565b9050919050565b7f4f776e61626c653a2063616c6c6572206973206e6f7420746865206f776e6572600082015250565b6000620004ba602083620003d9565b9150620004c78262000482565b602082019050919050565b60006020820190508181036000830152620004ed81620004ab565b9050919050565b6133f580620005046000396000f3fe608060405234801561001057600080fd5b50600436106101215760003560e01c80638da5cb5b116100ad578063bec1d60811610071578063bec1d608146102d4578063e0cb8e5f146102f0578063f16b51c11461030c578063f2fde38b1461032a578063fd84cb971461034657610121565b80638da5cb5b1461022c578063a83ba53e1461024a578063a85c38ef14610266578063b0eefabe1461029c578063b46f08bb146102b857610121565b80635bf31d4d116100f45780635bf31d4d146101ac57806366c85dee146101ca5780636cc6cde1146101e6578063715018a614610204578063761e3ca01461020e57610121565b80630e33599d1461012657806317fd7471146101425780632a58b33014610172578063514fcac714610190575b600080fd5b610140600480360381019061013b9190611f28565b610362565b005b61015c60048036038101906101579190611fcd565b61087f565b6040516101699190612050565b60405180910390f35b61017a610cfc565b6040516101879190612050565b60405180910390f35b6101aa60048036038101906101a5919061206b565b610d02565b005b6101b4610f98565b6040516101c19190612050565b60405180910390f35b6101e460048036038101906101df9190612098565b610f9e565b005b6101ee6111d4565b6040516101fb9190612107565b60405180910390f35b61020c6111fa565b005b61021661120e565b6040516102239190612181565b60405180910390f35b610234611234565b6040516102419190612107565b60405180910390f35b610264600480360381019061025f919061206b565b61125d565b005b610280600480360381019061027b919061206b565b6112b2565b60405161029397969594939291906122a3565b60405180910390f35b6102b660048036038101906102b19190612320565b611451565b005b6102d260048036038101906102cd919061206b565b61150c565b005b6102ee60048036038101906102e9919061206b565b611561565b005b61030a6004803603810190610305919061206b565b61184a565b005b6103146119c9565b6040516103219190612050565b60405180910390f35b610344600480360381019061033f9190612320565b6119cf565b005b610360600480360381019061035b919061206b565b611a52565b005b61036a611ce8565b600760009054906101000a900473ffffffffffffffffffffffffffffffffffffffff1673ffffffffffffffffffffffffffffffffffffffff163373ffffffffffffffffffffffffffffffffffffffff16146103fa576040517f08c379a00000000000000000000000000000000000000000000000000000000081526004016103f1906123bf565b60405180910390fd5b6000600360008481526020019081526020016000209050600360058111156104255761042461219c565b5b8160040160009054906101000a900460ff1660058111156104495761044861219c565b5b14610489576040517f08c379a00000000000000000000000000000000000000000000000000000000081526004016104809061242b565b60405180910390fd5b8060000160009054906101000a900473ffffffffffffffffffffffffffffffffffffffff1673ffffffffffffffffffffffffffffffffffffffff168273ffffffffffffffffffffffffffffffffffffffff16148061053657508060010160009054906101000a900473ffffffffffffffffffffffffffffffffffffffff1673ffffffffffffffffffffffffffffffffffffffff168273ffffffffffffffffffffffffffffffffffffffff16145b610575576040517f08c379a000000000000000000000000000000000000000000000000000000000815260040161056c90612497565b60405180910390fd5b8060010160009054906101000a900473ffffffffffffffffffffffffffffffffffffffff1673ffffffffffffffffffffffffffffffffffffffff168273ffffffffffffffffffffffffffffffffffffffff160361070557600260009054906101000a900473ffffffffffffffffffffffffffffffffffffffff1673ffffffffffffffffffffffffffffffffffffffff1663a9059cbb8260010160009054906101000a900473ffffffffffffffffffffffffffffffffffffffff1683600201546040518363ffffffff1660e01b81526004016106519291906124b7565b6020604051808303816000875af1158015610670573d6000803e3d6000fd5b505050506040513d601f19601f820116820180604052508101906106949190612518565b6106d3576040517f08c379a00000000000000000000000000000000000000000000000000000000081526004016106ca90612591565b60405180910390fd5b60028160040160006101000a81548160ff021916908360058111156106fb576106fa61219c565b5b021790555061083a565b600260009054906101000a900473ffffffffffffffffffffffffffffffffffffffff1673ffffffffffffffffffffffffffffffffffffffff1663a9059cbb8260000160009054906101000a900473ffffffffffffffffffffffffffffffffffffffff1683600201546040518363ffffffff1660e01b815260040161078a9291906124b7565b6020604051808303816000875af11580156107a9573d6000803e3d6000fd5b505050506040513d601f19601f820116820180604052508101906107cd9190612518565b61080c576040517f08c379a000000000000000000000000000000000000000000000000000000000815260040161080390612591565b60405180910390fd5b60048160040160006101000a81548160ff021916908360058111156108345761083361219c565b5b02179055505b827ff77ceb5e091d2da041bc760667f9d5fe7a756949eaf29250ad0e60ca6f4c27d98360405161086a9190612107565b60405180910390a25061087b611d37565b5050565b6000610889611ce8565b600084116108cc576040517f08c379a00000000000000000000000000000000000000000000000000000000081526004016108c3906125fd565b60405180910390fd5b600073ffffffffffffffffffffffffffffffffffffffff168573ffffffffffffffffffffffffffffffffffffffff160361093b576040517f08c379a000000000000000000000000000000000000000000000000000000000815260040161093290612669565b60405180910390fd5b3373ffffffffffffffffffffffffffffffffffffffff168573ffffffffffffffffffffffffffffffffffffffff16036109a9576040517f08c379a00000000000000000000000000000000000000000000000000000000081526004016109a0906126d5565b60405180910390fd5b600260009054906101000a900473ffffffffffffffffffffffffffffffffffffffff1673ffffffffffffffffffffffffffffffffffffffff166323b872dd3330876040518463ffffffff1660e01b8152600401610a08939291906126f5565b6020604051808303816000875af1158015610a27573d6000803e3d6000fd5b505050506040513d601f19601f82011682018060405250810190610a4b9190612518565b610a8a576040517f08c379a0000000000000000000000000000000000000000000000000000000008152600401610a8190612591565b60405180910390fd5b600060046000815480929190610a9f9061275b565b9190505590506040518060e001604052803373ffffffffffffffffffffffffffffffffffffffff1681526020018773ffffffffffffffffffffffffffffffffffffffff16815260200186815260200142815260200160006005811115610b0857610b0761219c565b5b815260200185858080601f016020809104026020016040519081016040528093929190818152602001838380828437600081840152601f19601f820116905080830192505050505050508152602001604051806020016040528060008152508152506003600083815260200190815260200160002060008201518160000160006101000a81548173ffffffffffffffffffffffffffffffffffffffff021916908373ffffffffffffffffffffffffffffffffffffffff16021790555060208201518160010160006101000a81548173ffffffffffffffffffffffffffffffffffffffff021916908373ffffffffffffffffffffffffffffffffffffffff160217905550604082015181600201556060820151816003015560808201518160040160006101000a81548160ff02191690836005811115610c4a57610c4961219c565b5b021790555060a0820151816005019081610c6491906129d4565b5060c0820151816006019081610c7a91906129d4565b509050508573ffffffffffffffffffffffffffffffffffffffff163373ffffffffffffffffffffffffffffffffffffffff16827f8a5442842accf64d1d239f8d2d0d32444aca25253e6b134bcf8e47207209eb14888888604051610ce093929190612ae2565b60405180910390a480915050610cf4611d37565b949350505050565b60045481565b610d0a611ce8565b60006003600083815260200190815260200160002090508060000160009054906101000a900473ffffffffffffffffffffffffffffffffffffffff1673ffffffffffffffffffffffffffffffffffffffff163373ffffffffffffffffffffffffffffffffffffffff1614610db3576040517f08c379a0000000000000000000000000000000000000000000000000000000008152600401610daa90612b60565b60405180910390fd5b60006005811115610dc757610dc661219c565b5b8160040160009054906101000a900460ff166005811115610deb57610dea61219c565b5b14610e2b576040517f08c379a0000000000000000000000000000000000000000000000000000000008152600401610e2290612bcc565b60405180910390fd5b60058160040160006101000a81548160ff02191690836005811115610e5357610e5261219c565b5b0217905550600260009054906101000a900473ffffffffffffffffffffffffffffffffffffffff1673ffffffffffffffffffffffffffffffffffffffff1663a9059cbb8260000160009054906101000a900473ffffffffffffffffffffffffffffffffffffffff1683600201546040518363ffffffff1660e01b8152600401610edd9291906124b7565b6020604051808303816000875af1158015610efc573d6000803e3d6000fd5b505050506040513d601f19601f82011682018060405250810190610f209190612518565b610f5f576040517f08c379a0000000000000000000000000000000000000000000000000000000008152600401610f5690612591565b60405180910390fd5b817fc41f4ceb2938876c35e61b705e9d2f18a02c4a26ce5e049a6308a943d46851b360405160405180910390a250610f95611d37565b50565b60065481565b60006003600085815260200190815260200160002090508060000160009054906101000a900473ffffffffffffffffffffffffffffffffffffffff1673ffffffffffffffffffffffffffffffffffffffff163373ffffffffffffffffffffffffffffffffffffffff1614611047576040517f08c379a000000000000000000000000000000000000000000000000000000000815260040161103e90612c38565b60405180910390fd5b6001600581111561105b5761105a61219c565b5b8160040160009054906101000a900460ff16600581111561107f5761107e61219c565b5b14806110c057506000600581111561109a5761109961219c565b5b8160040160009054906101000a900460ff1660058111156110be576110bd61219c565b5b145b6110ff576040517f08c379a00000000000000000000000000000000000000000000000000000000081526004016110f690612ca4565b60405180910390fd5b60065481600301546111119190612cc4565b421115611153576040517f08c379a000000000000000000000000000000000000000000000000000000000815260040161114a90612d44565b60405180910390fd5b60038160040160006101000a81548160ff0219169083600581111561117b5761117a61219c565b5b02179055508282826006019182611193929190612d6f565b50837fd693ccc71a545a9010a955f8be4ad6805536312b27e1d1e5b182869807f0d27b84846040516111c6929190612e3f565b60405180910390a250505050565b600760009054906101000a900473ffffffffffffffffffffffffffffffffffffffff1681565b611202611d40565b61120c6000611dbe565b565b600260009054906101000a900473ffffffffffffffffffffffffffffffffffffffff1681565b60008060009054906101000a900473ffffffffffffffffffffffffffffffffffffffff16905090565b611265611d40565b600081116112a8576040517f08c379a000000000000000000000000000000000000000000000000000000000815260040161129f90612eaf565b60405180910390fd5b8060068190555050565b60036020528060005260406000206000915090508060000160009054906101000a900473ffffffffffffffffffffffffffffffffffffffff16908060010160009054906101000a900473ffffffffffffffffffffffffffffffffffffffff16908060020154908060030154908060040160009054906101000a900460ff169080600501805461134090612801565b80601f016020809104026020016040519081016040528092919081815260200182805461136c90612801565b80156113b95780601f1061138e576101008083540402835291602001916113b9565b820191906000526020600020905b81548152906001019060200180831161139c57829003601f168201915b5050505050908060060180546113ce90612801565b80601f01602080910402602001604051908101604052809291908181526020018280546113fa90612801565b80156114475780601f1061141c57610100808354040283529160200191611447565b820191906000526020600020905b81548152906001019060200180831161142a57829003601f168201915b5050505050905087565b611459611d40565b600073ffffffffffffffffffffffffffffffffffffffff168173ffffffffffffffffffffffffffffffffffffffff16036114c8576040517f08c379a00000000000000000000000000000000000000000000000000000000081526004016114bf90612f1b565b60405180910390fd5b80600760006101000a81548173ffffffffffffffffffffffffffffffffffffffff021916908373ffffffffffffffffffffffffffffffffffffffff16021790555050565b611514611d40565b60008111611557576040517f08c379a000000000000000000000000000000000000000000000000000000000815260040161154e90612eaf565b60405180910390fd5b8060058190555050565b611569611ce8565b60006003600083815260200190815260200160002090508060010160009054906101000a900473ffffffffffffffffffffffffffffffffffffffff1673ffffffffffffffffffffffffffffffffffffffff163373ffffffffffffffffffffffffffffffffffffffff1614611612576040517f08c379a000000000000000000000000000000000000000000000000000000000815260040161160990612fad565b60405180910390fd5b600160058111156116265761162561219c565b5b8160040160009054906101000a900460ff16600581111561164a5761164961219c565b5b1461168a576040517f08c379a000000000000000000000000000000000000000000000000000000000815260040161168190613019565b60405180910390fd5b600554816003015461169c9190612cc4565b42116116dd576040517f08c379a00000000000000000000000000000000000000000000000000000000081526004016116d490613085565b60405180910390fd5b60028160040160006101000a81548160ff021916908360058111156117055761170461219c565b5b0217905550600260009054906101000a900473ffffffffffffffffffffffffffffffffffffffff1673ffffffffffffffffffffffffffffffffffffffff1663a9059cbb8260010160009054906101000a900473ffffffffffffffffffffffffffffffffffffffff1683600201546040518363ffffffff1660e01b815260040161178f9291906124b7565b6020604051808303816000875af11580156117ae573d6000803e3d6000fd5b505050506040513d601f19601f820116820180604052508101906117d29190612518565b611811576040517f08c379a000000000000000000000000000000000000000000000000000000000815260040161180890612591565b60405180910390fd5b817f02a7d4d9472af7118644884b9a0ee443540c0027e938dd0aa35be8ecbe946c0a60405160405180910390a250611847611d37565b50565b60006003600083815260200190815260200160002090508060010160009054906101000a900473ffffffffffffffffffffffffffffffffffffffff1673ffffffffffffffffffffffffffffffffffffffff163373ffffffffffffffffffffffffffffffffffffffff16146118f3576040517f08c379a00000000000000000000000000000000000000000000000000000000081526004016118ea906130f1565b60405180910390fd5b600060058111156119075761190661219c565b5b8160040160009054906101000a900460ff16600581111561192b5761192a61219c565b5b1461196b576040517f08c379a00000000000000000000000000000000000000000000000000000000081526004016119629061315d565b60405180910390fd5b60018160040160006101000a81548160ff021916908360058111156119935761199261219c565b5b0217905550817fe3ce5f36666aec295b2ed1a858caf4782066e5e8c1a5a5da7ba6551b14fcfdcb60405160405180910390a25050565b60055481565b6119d7611d40565b600073ffffffffffffffffffffffffffffffffffffffff168173ffffffffffffffffffffffffffffffffffffffff1603611a46576040517f08c379a0000000000000000000000000000000000000000000000000000000008152600401611a3d906131ef565b60405180910390fd5b611a4f81611dbe565b50565b611a5a611ce8565b60006003600083815260200190815260200160002090508060000160009054906101000a900473ffffffffffffffffffffffffffffffffffffffff1673ffffffffffffffffffffffffffffffffffffffff163373ffffffffffffffffffffffffffffffffffffffff1614611b03576040517f08c379a0000000000000000000000000000000000000000000000000000000008152600401611afa9061325b565b60405180910390fd5b60016005811115611b1757611b1661219c565b5b8160040160009054906101000a900460ff166005811115611b3b57611b3a61219c565b5b14611b7b576040517f08c379a0000000000000000000000000000000000000000000000000000000008152600401611b72906132c7565b60405180910390fd5b60028160040160006101000a81548160ff02191690836005811115611ba357611ba261219c565b5b0217905550600260009054906101000a900473ffffffffffffffffffffffffffffffffffffffff1673ffffffffffffffffffffffffffffffffffffffff1663a9059cbb8260010160009054906101000a900473ffffffffffffffffffffffffffffffffffffffff1683600201546040518363ffffffff1660e01b8152600401611c2d9291906124b7565b6020604051808303816000875af1158015611c4c573d6000803e3d6000fd5b505050506040513d601f19601f82011682018060405250810190611c709190612518565b611caf576040517f08c379a0000000000000000000000000000000000000000000000000000000008152600401611ca690612591565b60405180910390fd5b817f02a7d4d9472af7118644884b9a0ee443540c0027e938dd0aa35be8ecbe946c0a60405160405180910390a250611ce5611d37565b50565b600260015403611d2d576040517f08c379a0000000000000000000000000000000000000000000000000000000008152600401611d2490613333565b60405180910390fd5b6002600181905550565b60018081905550565b611d48611e82565b73ffffffffffffffffffffffffffffffffffffffff16611d66611234565b73ffffffffffffffffffffffffffffffffffffffff1614611dbc576040517f08c379a0000000000000000000000000000000000000000000000000000000008152600401611db39061339f565b60405180910390fd5b565b60008060009054906101000a900473ffffffffffffffffffffffffffffffffffffffff169050816000806101000a81548173ffffffffffffffffffffffffffffffffffffffff021916908373ffffffffffffffffffffffffffffffffffffffff1602179055508173ffffffffffffffffffffffffffffffffffffffff168173ffffffffffffffffffffffffffffffffffffffff167f8be0079c531659141344cd1fd0a4f28419497f9722a3daafe3b4186f6b6457e060405160405180910390a35050565b600033905090565b600080fd5b600080fd5b6000819050919050565b611ea781611e94565b8114611eb257600080fd5b50565b600081359050611ec481611e9e565b92915050565b600073ffffffffffffffffffffffffffffffffffffffff82169050919050565b6000611ef582611eca565b9050919050565b611f0581611eea565b8114611f1057600080fd5b50565b600081359050611f2281611efc565b92915050565b60008060408385031215611f3f57611f3e611e8a565b5b6000611f4d85828601611eb5565b9250506020611f5e85828601611f13565b9150509250929050565b600080fd5b600080fd5b600080fd5b60008083601f840112611f8d57611f8c611f68565b5b8235905067ffffffffffffffff811115611faa57611fa9611f6d565b5b602083019150836001820283011115611fc657611fc5611f72565b5b9250929050565b60008060008060608587031215611fe757611fe6611e8a565b5b6000611ff587828801611f13565b945050602061200687828801611eb5565b935050604085013567ffffffffffffffff81111561202757612026611e8f565b5b61203387828801611f77565b925092505092959194509250565b61204a81611e94565b82525050565b60006020820190506120656000830184612041565b92915050565b60006020828403121561208157612080611e8a565b5b600061208f84828501611eb5565b91505092915050565b6000806000604084860312156120b1576120b0611e8a565b5b60006120bf86828701611eb5565b935050602084013567ffffffffffffffff8111156120e0576120df611e8f565b5b6120ec86828701611f77565b92509250509250925092565b61210181611eea565b82525050565b600060208201905061211c60008301846120f8565b92915050565b6000819050919050565b600061214761214261213d84611eca565b612122565b611eca565b9050919050565b60006121598261212c565b9050919050565b600061216b8261214e565b9050919050565b61217b81612160565b82525050565b60006020820190506121966000830184612172565b92915050565b7f4e487b7100000000000000000000000000000000000000000000000000000000600052602160045260246000fd5b600681106121dc576121db61219c565b5b50565b60008190506121ed826121cb565b919050565b60006121fd826121df565b9050919050565b61220d816121f2565b82525050565b600081519050919050565b600082825260208201905092915050565b60005b8381101561224d578082015181840152602081019050612232565b60008484015250505050565b6000601f19601f8301169050919050565b600061227582612213565b61227f818561221e565b935061228f81856020860161222f565b61229881612259565b840191505092915050565b600060e0820190506122b8600083018a6120f8565b6122c560208301896120f8565b6122d26040830188612041565b6122df6060830187612041565b6122ec6080830186612204565b81810360a08301526122fe818561226a565b905081810360c0830152612312818461226a565b905098975050505050505050565b60006020828403121561233657612335611e8a565b5b600061234484828501611f13565b91505092915050565b7f4f6e6c792061726269747261746f722063616e207265736f6c7665206469737060008201527f7574657300000000000000000000000000000000000000000000000000000000602082015250565b60006123a960248361221e565b91506123b48261234d565b604082019050919050565b600060208201905081810360008301526123d88161239c565b9050919050565b7f4f72646572206e6f742064697370757465640000000000000000000000000000600082015250565b600061241560128361221e565b9150612420826123df565b602082019050919050565b6000602082019050818103600083015261244481612408565b9050919050565b7f57696e6e6572206d757374206265206275796572206f722073656c6c65720000600082015250565b6000612481601e8361221e565b915061248c8261244b565b602082019050919050565b600060208201905081810360008301526124b081612474565b9050919050565b60006040820190506124cc60008301856120f8565b6124d96020830184612041565b9392505050565b60008115159050919050565b6124f5816124e0565b811461250057600080fd5b50565b600081519050612512816124ec565b92915050565b60006020828403121561252e5761252d611e8a565b5b600061253c84828501612503565b91505092915050565b7f546f6b656e207472616e73666572206661696c65640000000000000000000000600082015250565b600061257b60158361221e565b915061258682612545565b602082019050919050565b600060208201905081810360008301526125aa8161256e565b9050919050565b7f416d6f756e74206d7573742062652067726561746572207468616e2030000000600082015250565b60006125e7601d8361221e565b91506125f2826125b1565b602082019050919050565b60006020820190508181036000830152612616816125da565b9050919050565b7f496e76616c69642073656c6c6572206164647265737300000000000000000000600082015250565b600061265360168361221e565b915061265e8261261d565b602082019050919050565b6000602082019050818103600083015261268281612646565b9050919050565b7f53656c6c65722063616e6e6f7420626520627579657200000000000000000000600082015250565b60006126bf60168361221e565b91506126ca82612689565b602082019050919050565b600060208201905081810360008301526126ee816126b2565b9050919050565b600060608201905061270a60008301866120f8565b61271760208301856120f8565b6127246040830184612041565b949350505050565b7f4e487b7100000000000000000000000000000000000000000000000000000000600052601160045260246000fd5b600061276682611e94565b91507fffffffffffffffffffffffffffffffffffffffffffffffffffffffffffffffff82036127985761279761272c565b5b600182019050919050565b7f4e487b7100000000000000000000000000000000000000000000000000000000600052604160045260246000fd5b7f4e487b7100000000000000000000000000000000000000000000000000000000600052602260045260246000fd5b6000600282049050600182168061281957607f821691505b60208210810361282c5761282b6127d2565b5b50919050565b60008190508160005260206000209050919050565b60006020601f8301049050919050565b600082821b905092915050565b6000600883026128947fffffffffffffffffffffffffffffffffffffffffffffffffffffffffffffffff82612857565b61289e8683612857565b95508019841693508086168417925050509392505050565b60006128d16128cc6128c784611e94565b612122565b611e94565b9050919050565b6000819050919050565b6128eb836128b6565b6128ff6128f7826128d8565b848454612864565b825550505050565b600090565b612914612907565b61291f8184846128e2565b505050565b5b818110156129435761293860008261290c565b600181019050612925565b5050565b601f8211156129885761295981612832565b61296284612847565b81016020851015612971578190505b61298561297d85612847565b830182612924565b50505b505050565b600082821c905092915050565b60006129ab6000198460080261298d565b1980831691505092915050565b60006129c4838361299a565b9150826002028217905092915050565b6129dd82612213565b67ffffffffffffffff8111156129f6576129f56127a3565b5b612a008254612801565b612a0b828285612947565b600060209050601f831160018114612a3e5760008415612a2c578287015190505b612a3685826129b8565b865550612a9e565b601f198416612a4c86612832565b60005b82811015612a7457848901518255600182019150602085019450602081019050612a4f565b86831015612a915784890151612a8d601f89168261299a565b8355505b6001600288020188555050505b505050505050565b82818337600083830152505050565b6000612ac1838561221e565b9350612ace838584612aa6565b612ad783612259565b840190509392505050565b6000604082019050612af76000830186612041565b8181036020830152612b0a818486612ab5565b9050949350505050565b7f4f6e6c792062757965722063616e2063616e63656c0000000000000000000000600082015250565b6000612b4a60158361221e565b9150612b5582612b14565b602082019050919050565b60006020820190508181036000830152612b7981612b3d565b9050919050565b7f43616e206f6e6c792063616e63656c206966206e6f7420736869707065640000600082015250565b6000612bb6601e8361221e565b9150612bc182612b80565b602082019050919050565b60006020820190508181036000830152612be581612ba9565b9050919050565b7f4f6e6c792062757965722063616e206469737075746500000000000000000000600082015250565b6000612c2260168361221e565b9150612c2d82612bec565b602082019050919050565b60006020820190508181036000830152612c5181612c15565b9050919050565b7f43616e6e6f7420646973707574652061742063757272656e7420737461747573600082015250565b6000612c8e60208361221e565b9150612c9982612c58565b602082019050919050565b60006020820190508181036000830152612cbd81612c81565b9050919050565b6000612ccf82611e94565b9150612cda83611e94565b9250828201905080821115612cf257612cf161272c565b5b92915050565b7f4469737075746520706572696f64206578706972656400000000000000000000600082015250565b6000612d2e60168361221e565b9150612d3982612cf8565b602082019050919050565b60006020820190508181036000830152612d5d81612d21565b9050919050565b600082905092915050565b612d798383612d64565b67ffffffffffffffff811115612d9257612d916127a3565b5b612d9c8254612801565b612da7828285612947565b6000601f831160018114612dd65760008415612dc4578287013590505b612dce85826129b8565b865550612e36565b601f198416612de486612832565b60005b82811015612e0c57848901358255600182019150602085019450602081019050612de7565b86831015612e295784890135612e25601f89168261299a565b8355505b6001600288020188555050505b50505050505050565b60006020820190508181036000830152612e5a818486612ab5565b90509392505050565b7f506572696f64206d7573742062652067726561746572207468616e2030000000600082015250565b6000612e99601d8361221e565b9150612ea482612e63565b602082019050919050565b60006020820190508181036000830152612ec881612e8c565b9050919050565b7f496e76616c696420616464726573730000000000000000000000000000000000600082015250565b6000612f05600f8361221e565b9150612f1082612ecf565b602082019050919050565b60006020820190508181036000830152612f3481612ef8565b9050919050565b7f4f6e6c792073656c6c65722063616e20636c61696d206578706972656420657360008201527f63726f7700000000000000000000000000000000000000000000000000000000602082015250565b6000612f9760248361221e565b9150612fa282612f3b565b604082019050919050565b60006020820190508181036000830152612fc681612f8a565b9050919050565b7f4f72646572206e6f7420696e2073686970706564207374617475730000000000600082015250565b6000613003601b8361221e565b915061300e82612fcd565b602082019050919050565b6000602082019050818103600083015261303281612ff6565b9050919050565b7f457363726f7720706572696f64206e6f74206578706972656400000000000000600082015250565b600061306f60198361221e565b915061307a82613039565b602082019050919050565b6000602082019050818103600083015261309e81613062565b9050919050565b7f4f6e6c792073656c6c65722063616e20636f6e6669726d20736869706d656e74600082015250565b60006130db60208361221e565b91506130e6826130a5565b602082019050919050565b6000602082019050818103600083015261310a816130ce565b9050919050565b7f496e76616c6964206f7264657220737461747573000000000000000000000000600082015250565b600061314760148361221e565b915061315282613111565b602082019050919050565b600060208201905081810360008301526131768161313a565b9050919050565b7f4f776e61626c653a206e6577206f776e657220697320746865207a65726f206160008201527f6464726573730000000000000000000000000000000000000000000000000000602082015250565b60006131d960268361221e565b91506131e48261317d565b604082019050919050565b60006020820190508181036000830152613208816131cc565b9050919050565b7f4f6e6c792062757965722063616e20636f6e6669726d2064656c697665727900600082015250565b6000613245601f8361221e565b91506132508261320f565b602082019050919050565b6000602082019050818103600083015261327481613238565b9050919050565b7f4f72646572206e6f742073686970706564000000000000000000000000000000600082015250565b60006132b160118361221e565b91506132bc8261327b565b602082019050919050565b600060208201905081810360008301526132e0816132a4565b9050919050565b7f5265656e7472616e637947756172643a207265656e7472616e742063616c6c00600082015250565b600061331d601f8361221e565b9150613328826132e7565b602082019050919050565b6000602082019050818103600083015261334c81613310565b9050919050565b7f4f776e61626c653a2063616c6c6572206973206e6f7420746865206f776e6572600082015250565b600061338960208361221e565b915061339482613353565b602082019050919050565b600060208201905081810360008301526133b88161337c565b905091905056fea2646970667358221220044213d9c21591bfe3e9a6b32d3008919147ad14ccfb69e6586b9e1d79d704a664736f6c63430008180033",
  "linkReferences": {},
  "deployedLinkReferences": {}
}