{
  "_format": "hh-sol-artifact-1",
  "contractName": "EComCombined",
  "sourceName": "contracts/EComCombined.sol",
  "abi": [
    {
      "inputs": [
        {
          "internalType": "address",
          "name": "initialOwner",
          "type": "address"
        }
      ],
      "stateMutability": "nonpayable",
      "type": "constructor"
    },
    {
      "anonymous": false,
      "inputs": [
        {
          "indexed": true,
          "internalType": "address",
          "name": "owner",
          "type": "address"
        },
        {
          "indexed": true,
          "internalType": "address",
          "name": "spender",
          "type": "address"
        },
        {
          "indexed": false,
          "internalType": "uint256",
          "name": "value",
          "type": "uint256"
        }
      ],
      "name": "Approval",
      "type": "event"
    },
    {
      "anonymous": false,
      "inputs": [
        {
          "indexed": true,
          "internalType": "address",
          "name": "account",
          "type": "address"
        },
        {
          "indexed": false,
          "internalType": "bool",
          "name": "status",
          "type": "bool"
        }
      ],
      "name": "BlacklistUpdated",
      "type": "event"
    },
    {
      "anonymous": false,
      "inputs": [
        {
          "indexed": true,
          "internalType": "uint256",
          "name": "orderId",
          "type": "uint256"
        },
        {
          "indexed": false,
          "internalType": "address",
          "name": "winner",
          "type": "address"
        }
      ],
      "name": "DisputeResolved",
      "type": "event"
    },
    {
      "anonymous": false,
      "inputs": [
        {
          "indexed": true,
          "internalType": "address",
          "name": "from",
          "type": "address"
        },
        {
          "indexed": false,
          "internalType": "uint256",
          "name": "amount",
          "type": "uint256"
        }
      ],
      "name": "FeesCollected",
      "type": "event"
    },
    {
      "anonymous": false,
      "inputs": [
        {
          "indexed": true,
          "internalType": "address",
          "name": "merchant",
          "type": "address"
        }
      ],
      "name": "MerchantRemovedFromWhitelist",
      "type": "event"
    },
    {
      "anonymous": false,
      "inputs": [
        {
          "indexed": true,
          "internalType": "address",
          "name": "merchant",
          "type": "address"
        }
      ],
      "name": "MerchantWhitelisted",
      "type": "event"
    },
    {
      "anonymous": false,
      "inputs": [
        {
          "indexed": true,
          "internalType": "uint256",
          "name": "orderId",
          "type": "uint256"
        }
      ],
      "name": "OrderCanceled",
      "type": "event"
    },
    {
      "anonymous": false,
      "inputs": [
        {
          "indexed": true,
          "internalType": "uint256",
          "name": "orderId",
          "type": "uint256"
        }
      ],
      "name": "OrderCompleted",
      "type": "event"
    },
    {
      "anonymous": false,
      "inputs": [
        {
          "indexed": true,
          "internalType": "uint256",
          "name": "orderId",
          "type": "uint256"
        },
        {
          "indexed": true,
          "internalType": "address",
          "name": "buyer",
          "type": "address"
        },
        {
          "indexed": true,
          "internalType": "address",
          "name": "seller",
          "type": "address"
        },
        {
          "indexed": false,
          "internalType": "uint256",
          "name": "amount",
          "type": "uint256"
        },
        {
          "indexed": false,
          "internalType": "string",
          "name": "orderReference",
          "type": "string"
        }
      ],
      "name": "OrderCreated",
      "type": "event"
    },
    {
      "anonymous": false,
      "inputs": [
        {
          "indexed": true,
          "internalType": "uint256",
          "name": "orderId",
          "type": "uint256"
        },
        {
          "indexed": false,
          "internalType": "string",
          "name": "reason",
          "type": "string"
        }
      ],
      "name": "OrderDisputed",
      "type": "event"
    },
    {
      "anonymous": false,
      "inputs": [
        {
          "indexed": true,
          "internalType": "uint256",
          "name": "orderId",
          "type": "uint256"
        }
      ],
      "name": "OrderRefunded",
      "type": "event"
    },
    {
      "anonymous": false,
      "inputs": [
        {
          "indexed": true,
          "internalType": "uint256",
          "name": "orderId",
          "type": "uint256"
        }
      ],
      "name": "OrderShipped",
      "type": "event"
    },
    {
      "anonymous": false,
      "inputs": [
        {
          "indexed": true,
          "internalType": "address",
          "name": "previousOwner",
          "type": "address"
        },
        {
          "indexed": true,
          "internalType": "address",
          "name": "newOwner",
          "type": "address"
        }
      ],
      "name": "OwnershipTransferred",
      "type": "event"
    },
    {
      "anonymous": false,
      "inputs": [
        {
          "indexed": false,
          "internalType": "address",
          "name": "account",
          "type": "address"
        }
      ],
      "name": "Paused",
      "type": "event"
    },
    {
      "anonymous": false,
      "inputs": [
        {
          "indexed": false,
          "internalType": "uint256",
          "name": "id",
          "type": "uint256"
        }
      ],
      "name": "Snapshot",
      "type": "event"
    },
    {
      "anonymous": false,
      "inputs": [
        {
          "indexed": true,
          "internalType": "address",
          "name": "from",
          "type": "address"
        },
        {
          "indexed": true,
          "internalType": "address",
          "name": "to",
          "type": "address"
        },
        {
          "indexed": false,
          "internalType": "uint256",
          "name": "value",
          "type": "uint256"
        }
      ],
      "name": "Transfer",
      "type": "event"
    },
    {
      "anonymous": false,
      "inputs": [
        {
          "indexed": false,
          "internalType": "address",
          "name": "account",
          "type": "address"
        }
      ],
      "name": "Unpaused",
      "type": "event"
    },
    {
      "inputs": [],
      "name": "MAX_SUPPLY",
      "outputs": [
        {
          "internalType": "uint256",
          "name": "",
          "type": "uint256"
        }
      ],
      "stateMutability": "view",
      "type": "function"
    },
    {
      "inputs": [
        {
          "internalType": "address",
          "name": "owner",
          "type": "address"
        },
        {
          "internalType": "address",
          "name": "spender",
          "type": "address"
        }
      ],
      "name": "allowance",
      "outputs": [
        {
          "internalType": "uint256",
          "name": "",
          "type": "uint256"
        }
      ],
      "stateMutability": "view",
      "type": "function"
    },
    {
      "inputs": [
        {
          "internalType": "address",
          "name": "spender",
          "type": "address"
        },
        {
          "internalType": "uint256",
          "name": "amount",
          "type": "uint256"
        }
      ],
      "name": "approve",
      "outputs": [
        {
          "internalType": "bool",
          "name": "",
          "type": "bool"
        }
      ],
      "stateMutability": "nonpayable",
      "type": "function"
    },
    {
      "inputs": [],
      "name": "arbitrator",
      "outputs": [
        {
          "internalType": "address",
          "name": "",
          "type": "address"
        }
      ],
      "stateMutability": "view",
      "type": "function"
    },
    {
      "inputs": [
        {
          "internalType": "address",
          "name": "account",
          "type": "address"
        }
      ],
      "name": "balanceOf",
      "outputs": [
        {
          "internalType": "uint256",
          "name": "",
          "type": "uint256"
        }
      ],
      "stateMutability": "view",
      "type": "function"
    },
    {
      "inputs": [
        {
          "internalType": "address",
          "name": "account",
          "type": "address"
        },
        {
          "internalType": "uint256",
          "name": "snapshotId",
          "type": "uint256"
        }
      ],
      "name": "balanceOfAt",
      "outputs": [
        {
          "internalType": "uint256",
          "name": "",
          "type": "uint256"
        }
      ],
      "stateMutability": "view",
      "type": "function"
    },
    {
      "inputs": [
        {
          "internalType": "address",
          "name": "",
          "type": "address"
        }
      ],
      "name": "blacklisted",
      "outputs": [
        {
          "internalType": "bool",
          "name": "",
          "type": "bool"
        }
      ],
      "stateMutability": "view",
      "type": "function"
    },
    {
      "inputs": [
        {
          "internalType": "uint256",
          "name": "amount",
          "type": "uint256"
        }
      ],
      "name": "burn",
      "outputs": [],
      "stateMutability": "nonpayable",
      "type": "function"
    },
    {
      "inputs": [
        {
          "internalType": "address",
          "name": "account",
          "type": "address"
        },
        {
          "internalType": "uint256",
          "name": "amount",
          "type": "uint256"
        }
      ],
      "name": "burnFrom",
      "outputs": [],
      "stateMutability": "nonpayable",
      "type": "function"
    },
    {
      "inputs": [
        {
          "internalType": "uint256",
          "name": "orderId",
          "type": "uint256"
        }
      ],
      "name": "cancelOrder",
      "outputs": [],
      "stateMutability": "nonpayable",
      "type": "function"
    },
    {
      "inputs": [
        {
          "internalType": "uint256",
          "name": "orderId",
          "type": "uint256"
        }
      ],
      "name": "claimExpiredEscrow",
      "outputs": [],
      "stateMutability": "nonpayable",
      "type": "function"
    },
    {
      "inputs": [
        {
          "internalType": "uint256",
          "name": "orderId",
          "type": "uint256"
        }
      ],
      "name": "confirmDelivery",
      "outputs": [],
      "stateMutability": "nonpayable",
      "type": "function"
    },
    {
      "inputs": [
        {
          "internalType": "uint256",
          "name": "orderId",
          "type": "uint256"
        }
      ],
      "name": "confirmShipment",
      "outputs": [],
      "stateMutability": "nonpayable",
      "type": "function"
    },
    {
      "inputs": [
        {
          "internalType": "address",
          "name": "seller",
          "type": "address"
        },
        {
          "internalType": "uint256",
          "name": "amount",
          "type": "uint256"
        },
        {
          "internalType": "string",
          "name": "orderReference",
          "type": "string"
        }
      ],
      "name": "createOrder",
      "outputs": [
        {
          "internalType": "uint256",
          "name": "",
          "type": "uint256"
        }
      ],
      "stateMutability": "nonpayable",
      "type": "function"
    },
    {
      "inputs": [],
      "name": "decimals",
      "outputs": [
        {
          "internalType": "uint8",
          "name": "",
          "type": "uint8"
        }
      ],
      "stateMutability": "pure",
      "type": "function"
    },
    {
      "inputs": [
        {
          "internalType": "address",
          "name": "spender",
          "type": "address"
        },
        {
          "internalType": "uint256",
          "name": "subtractedValue",
          "type": "uint256"
        }
      ],
      "name": "decreaseAllowance",
      "outputs": [
        {
          "internalType": "bool",
          "name": "",
          "type": "bool"
        }
      ],
      "stateMutability": "nonpayable",
      "type": "function"
    },
    {
      "inputs": [
        {
          "internalType": "uint256",
          "name": "orderId",
          "type": "uint256"
        },
        {
          "internalType": "string",
          "name": "reason",
          "type": "string"
        }
      ],
      "name": "dispute",
      "outputs": [],
      "stateMutability": "nonpayable",
      "type": "function"
    },
    {
      "inputs": [],
      "name": "disputePeriod",
      "outputs": [
        {
          "internalType": "uint256",
          "name": "",
          "type": "uint256"
        }
      ],
      "stateMutability": "view",
      "type": "function"
    },
    {
      "inputs": [],
      "name": "escrowPeriod",
      "outputs": [
        {
          "internalType": "uint256",
          "name": "",
          "type": "uint256"
        }
      ],
      "stateMutability": "view",
      "type": "function"
    },
    {
      "inputs": [],
      "name": "feeCollector",
      "outputs": [
        {
          "internalType": "address",
          "name": "",
          "type": "address"
        }
      ],
      "stateMutability": "view",
      "type": "function"
    },
    {
      "inputs": [
        {
          "internalType": "address",
          "name": "spender",
          "type": "address"
        },
        {
          "internalType": "uint256",
          "name": "addedValue",
          "type": "uint256"
        }
      ],
      "name": "increaseAllowance",
      "outputs": [
        {
          "internalType": "bool",
          "name": "",
          "type": "bool"
        }
      ],
      "stateMutability": "nonpayable",
      "type": "function"
    },
    {
      "inputs": [],
      "name": "name",
      "outputs": [
        {
          "internalType": "string",
          "name": "",
          "type": "string"
        }
      ],
      "stateMutability": "view",
      "type": "function"
    },
    {
      "inputs": [],
      "name": "nextOrderId",
      "outputs": [
        {
          "internalType": "uint256",
          "name": "",
          "type": "uint256"
        }
      ],
      "stateMutability": "view",
      "type": "function"
    },
    {
      "inputs": [
        {
          "internalType": "uint256",
          "name": "",
          "type": "uint256"
        }
      ],
      "name": "orders",
      "outputs": [
        {
          "internalType": "address",
          "name": "buyer",
          "type": "address"
        },
        {
          "internalType": "address",
          "name": "seller",
          "type": "address"
        },
        {
          "internalType": "uint256",
          "name": "amount",
          "type": "uint256"
        },
        {
          "internalType": "uint256",
          "name": "createdAt",
          "type": "uint256"
        },
        {
          "internalType": "enum EComCombined.OrderStatus",
          "name": "status",
          "type": "uint8"
        },
        {
          "internalType": "string",
          "name": "orderReference",
          "type": "string"
        },
        {
          "internalType": "string",
          "name": "disputeReason",
          "type": "string"
        }
      ],
      "stateMutability": "view",
      "type": "function"
    },
    {
      "inputs": [],
      "name": "owner",
      "outputs": [
        {
          "internalType": "address",
          "name": "",
          "type": "address"
        }
      ],
      "stateMutability": "view",
      "type": "function"
    },
    {
      "inputs": [],
      "name": "pause",
      "outputs": [],
      "stateMutability": "nonpayable",
      "type": "function"
    },
    {
      "inputs": [],
      "name": "paused",
      "outputs": [
        {
          "internalType": "bool",
          "name": "",
          "type": "bool"
        }
      ],
      "stateMutability": "view",
      "type": "function"
    },
    {
      "inputs": [
        {
          "internalType": "address",
          "name": "merchant",
          "type": "address"
        }
      ],
      "name": "removeFromWhitelist",
      "outputs": [],
      "stateMutability": "nonpayable",
      "type": "function"
    },
    {
      "inputs": [],
      "name": "renounceOwnership",
      "outputs": [],
      "stateMutability": "nonpayable",
      "type": "function"
    },
    {
      "inputs": [
        {
          "internalType": "uint256",
          "name": "orderId",
          "type": "uint256"
        },
        {
          "internalType": "address",
          "name": "winner",
          "type": "address"
        }
      ],
      "name": "resolveDispute",
      "outputs": [],
      "stateMutability": "nonpayable",
      "type": "function"
    },
    {
      "inputs": [
        {
          "internalType": "address",
          "name": "newArbitrator",
          "type": "address"
        }
      ],
      "name": "setArbitrator",
      "outputs": [],
      "stateMutability": "nonpayable",
      "type": "function"
    },
    {
      "inputs": [
        {
          "internalType": "address",
          "name": "account",
          "type": "address"
        },
        {
          "internalType": "bool",
          "name": "status",
          "type": "bool"
        }
      ],
      "name": "setBlacklist",
      "outputs": [],
      "stateMutability": "nonpayable",
      "type": "function"
    },
    {
      "inputs": [
        {
          "internalType": "uint256",
          "name": "newPeriod",
          "type": "uint256"
        }
      ],
      "name": "setDisputePeriod",
      "outputs": [],
      "stateMutability": "nonpayable",
      "type": "function"
    },
    {
      "inputs": [
        {
          "internalType": "uint256",
          "name": "newPeriod",
          "type": "uint256"
        }
      ],
      "name": "setEscrowPeriod",
      "outputs": [],
      "stateMutability": "nonpayable",
      "type": "function"
    },
    {
      "inputs": [
        {
          "internalType": "address",
          "name": "newCollector",
          "type": "address"
        }
      ],
      "name": "setFeeCollector",
      "outputs": [],
      "stateMutability": "nonpayable",
      "type": "function"
    },
    {
      "inputs": [
        {
          "internalType": "uint256",
          "name": "newFee",
          "type": "uint256"
        }
      ],
      "name": "setTransactionFee",
      "outputs": [],
      "stateMutability": "nonpayable",
      "type": "function"
    },
    {
      "inputs": [],
      "name": "snapshot",
      "outputs": [],
      "stateMutability": "nonpayable",
      "type": "function"
    },
    {
      "inputs": [],
      "name": "symbol",
      "outputs": [
        {
          "internalType": "string",
          "name": "",
          "type": "string"
        }
      ],
      "stateMutability": "view",
      "type": "function"
    },
    {
      "inputs": [],
      "name": "totalSupply",
      "outputs": [
        {
          "internalType": "uint256",
          "name": "",
          "type": "uint256"
        }
      ],
      "stateMutability": "view",
      "type": "function"
    },
    {
      "inputs": [
        {
          "internalType": "uint256",
          "name": "snapshotId",
          "type": "uint256"
        }
      ],
      "name": "totalSupplyAt",
      "outputs": [
        {
          "internalType": "uint256",
          "name": "",
          "type": "uint256"
        }
      ],
      "stateMutability": "view",
      "type": "function"
    },
    {
      "inputs": [],
      "name": "transactionFee",
      "outputs": [
        {
          "internalType": "uint256",
          "name": "",
          "type": "uint256"
        }
      ],
      "stateMutability": "view",
      "type": "function"
    },
    {
      "inputs": [
        {
          "internalType": "address",
          "name": "to",
          "type": "address"
        },
        {
          "internalType": "uint256",
          "name": "amount",
          "type": "uint256"
        }
      ],
      "name": "transfer",
      "outputs": [
        {
          "internalType": "bool",
          "name": "",
          "type": "bool"
        }
      ],
      "stateMutability": "nonpayable",
      "type": "function"
    },
    {
      "inputs": [
        {
          "internalType": "address",
          "name": "from",
          "type": "address"
        },
        {
          "internalType": "address",
          "name": "to",
          "type": "address"
        },
        {
          "internalType": "uint256",
          "name": "amount",
          "type": "uint256"
        }
      ],
      "name": "transferFrom",
      "outputs": [
        {
          "internalType": "bool",
          "name": "",
          "type": "bool"
        }
      ],
      "stateMutability": "nonpayable",
      "type": "function"
    },
    {
      "inputs": [
        {
          "internalType": "address",
          "name": "newOwner",
          "type": "address"
        }
      ],
      "name": "transferOwnership",
      "outputs": [],
      "stateMutability": "nonpayable",
      "type": "function"
    },
    {
      "inputs": [],
      "name": "unpause",
      "outputs": [],
      "stateMutability": "nonpayable",
      "type": "function"
    },
    {
      "inputs": [
        {
          "internalType": "address",
          "name": "merchant",
          "type": "address"
        }
      ],
      "name": "whitelistMerchant",
      "outputs": [],
      "stateMutability": "nonpayable",
      "type": "function"
    },
    {
      "inputs": [
        {
          "internalType": "address",
          "name": "",
          "type": "address"
        }
      ],
      "name": "whitelistedMerchants",
      "outputs": [
        {
          "internalType": "bool",
          "name": "",
          "type": "bool"
        }
      ],
      "stateMutability": "view",
      "type": "function"
    }
  ],
  "bytecode": "0x60806040526019600b5560016010556212750060115562278d006012553480156200002957600080fd5b50604051620063db380380620063db83398181016040528101906200004f91906200097d565b6040518060400160405280601681526020017f45436f6d6d6572636520476c6f62616c20546f6b656e000000000000000000008152506040518060400160405280600481526020017f45434f4d000000000000000000000000000000000000000000000000000000008152508160039081620000cc919062000c29565b508060049081620000de919062000c29565b50505062000101620000f5620001db60201b60201c565b620001e360201b60201c565b6000600560146101000a81548160ff0219169083151502179055506001600a8190555080600c60006101000a81548173ffffffffffffffffffffffffffffffffffffffff021916908373ffffffffffffffffffffffffffffffffffffffff16021790555080601360006101000a81548173ffffffffffffffffffffffffffffffffffffffff021916908373ffffffffffffffffffffffffffffffffffffffff160217905550620001c3816a52b7d2dcc80cd2e4000000620002a960201b60201c565b620001d481620001e360201b60201c565b5062000feb565b600033905090565b6000600560009054906101000a900473ffffffffffffffffffffffffffffffffffffffff16905081600560006101000a81548173ffffffffffffffffffffffffffffffffffffffff021916908373ffffffffffffffffffffffffffffffffffffffff1602179055508173ffffffffffffffffffffffffffffffffffffffff168173ffffffffffffffffffffffffffffffffffffffff167f8be0079c531659141344cd1fd0a4f28419497f9722a3daafe3b4186f6b6457e060405160405180910390a35050565b600073ffffffffffffffffffffffffffffffffffffffff168273ffffffffffffffffffffffffffffffffffffffff16036200031b576040517f08c379a0000000000000000000000000000000000000000000000000000000008152600401620003129062000d71565b60405180910390fd5b6200032f600083836200041660201b60201c565b806002600082825462000343919062000dc2565b92505081905550806000808473ffffffffffffffffffffffffffffffffffffffff1673ffffffffffffffffffffffffffffffffffffffff168152602001908152602001600020600082825401925050819055508173ffffffffffffffffffffffffffffffffffffffff16600073ffffffffffffffffffffffffffffffffffffffff167fddf252ad1be2c89b69c2b068fc378daa952ba7f163c4a11628f55a4df523b3ef83604051620003f6919062000e0e565b60405180910390a36200041260008383620005ca60201b60201c565b5050565b62000426620005cf60201b60201c565b600073ffffffffffffffffffffffffffffffffffffffff168373ffffffffffffffffffffffffffffffffffffffff1614620004ec57600e60008473ffffffffffffffffffffffffffffffffffffffff1673ffffffffffffffffffffffffffffffffffffffff16815260200190815260200160002060009054906101000a900460ff1615620004eb576040517f08c379a0000000000000000000000000000000000000000000000000000000008152600401620004e29062000e7b565b60405180910390fd5b5b600073ffffffffffffffffffffffffffffffffffffffff168273ffffffffffffffffffffffffffffffffffffffff1614620005b257600e60008373ffffffffffffffffffffffffffffffffffffffff1673ffffffffffffffffffffffffffffffffffffffff16815260200190815260200160002060009054906101000a900460ff1615620005b1576040517f08c379a0000000000000000000000000000000000000000000000000000000008152600401620005a89062000eed565b60405180910390fd5b5b620005c58383836200062460201b60201c565b505050565b505050565b620005df6200071860201b60201c565b1562000622576040517f08c379a0000000000000000000000000000000000000000000000000000000008152600401620006199062000f5f565b60405180910390fd5b565b620006378383836200072f60201b60201c565b600073ffffffffffffffffffffffffffffffffffffffff168373ffffffffffffffffffffffffffffffffffffffff160362000693576200067d826200073460201b60201c565b6200068d6200079760201b60201c565b62000713565b600073ffffffffffffffffffffffffffffffffffffffff168273ffffffffffffffffffffffffffffffffffffffff1603620006ef57620006d9836200073460201b60201c565b620006e96200079760201b60201c565b62000712565b62000700836200073460201b60201c565b62000711826200073460201b60201c565b5b5b505050565b6000600560149054906101000a900460ff16905090565b505050565b62000794600660008373ffffffffffffffffffffffffffffffffffffffff1673ffffffffffffffffffffffffffffffffffffffff1681526020019081526020016000206200078883620007bb60201b60201c565b6200080360201b60201c565b50565b620007b96007620007ad6200088f60201b60201c565b6200080360201b60201c565b565b60008060008373ffffffffffffffffffffffffffffffffffffffff1673ffffffffffffffffffffffffffffffffffffffff168152602001908152602001600020549050919050565b6000620008156200089960201b60201c565b9050806200082c84600001620008b260201b60201c565b10156200088a5782600001819080600181540180825580915050600190039060005260206000200160009091909190915055826001018290806001815401808255809150506001900390600052602060002001600090919091909150555b505050565b6000600254905090565b6000620008ad60096200090560201b60201c565b905090565b600080828054905003620008ca576000905062000900565b8160018380549050620008de919062000f81565b81548110620008f257620008f162000fbc565b5b906000526020600020015490505b919050565b600081600001549050919050565b600080fd5b600073ffffffffffffffffffffffffffffffffffffffff82169050919050565b6000620009458262000918565b9050919050565b620009578162000938565b81146200096357600080fd5b50565b60008151905062000977816200094c565b92915050565b60006020828403121562000996576200099562000913565b5b6000620009a68482850162000966565b91505092915050565b600081519050919050565b7f4e487b7100000000000000000000000000000000000000000000000000000000600052604160045260246000fd5b7f4e487b7100000000000000000000000000000000000000000000000000000000600052602260045260246000fd5b6000600282049050600182168062000a3157607f821691505b60208210810362000a475762000a46620009e9565b5b50919050565b60008190508160005260206000209050919050565b60006020601f8301049050919050565b600082821b905092915050565b60006008830262000ab17fffffffffffffffffffffffffffffffffffffffffffffffffffffffffffffffff8262000a72565b62000abd868362000a72565b95508019841693508086168417925050509392505050565b6000819050919050565b6000819050919050565b600062000b0a62000b0462000afe8462000ad5565b62000adf565b62000ad5565b9050919050565b6000819050919050565b62000b268362000ae9565b62000b3e62000b358262000b11565b84845462000a7f565b825550505050565b600090565b62000b5562000b46565b62000b6281848462000b1b565b505050565b5b8181101562000b8a5762000b7e60008262000b4b565b60018101905062000b68565b5050565b601f82111562000bd95762000ba38162000a4d565b62000bae8462000a62565b8101602085101562000bbe578190505b62000bd662000bcd8562000a62565b83018262000b67565b50505b505050565b600082821c905092915050565b600062000bfe6000198460080262000bde565b1980831691505092915050565b600062000c19838362000beb565b9150826002028217905092915050565b62000c3482620009af565b67ffffffffffffffff81111562000c505762000c4f620009ba565b5b62000c5c825462000a18565b62000c6982828562000b8e565b600060209050601f83116001811462000ca1576000841562000c8c578287015190505b62000c98858262000c0b565b86555062000d08565b601f19841662000cb18662000a4d565b60005b8281101562000cdb5784890151825560018201915060208501945060208101905062000cb4565b8683101562000cfb578489015162000cf7601f89168262000beb565b8355505b6001600288020188555050505b505050505050565b600082825260208201905092915050565b7f45524332303a206d696e7420746f20746865207a65726f206164647265737300600082015250565b600062000d59601f8362000d10565b915062000d668262000d21565b602082019050919050565b6000602082019050818103600083015262000d8c8162000d4a565b9050919050565b7f4e487b7100000000000000000000000000000000000000000000000000000000600052601160045260246000fd5b600062000dcf8262000ad5565b915062000ddc8362000ad5565b925082820190508082111562000df75762000df662000d93565b5b92915050565b62000e088162000ad5565b82525050565b600060208201905062000e25600083018462000dfd565b92915050565b7f53656e64657220626c61636b6c69737465640000000000000000000000000000600082015250565b600062000e6360128362000d10565b915062000e708262000e2b565b602082019050919050565b6000602082019050818103600083015262000e968162000e54565b9050919050565b7f526563697069656e7420626c61636b6c69737465640000000000000000000000600082015250565b600062000ed560158362000d10565b915062000ee28262000e9d565b602082019050919050565b6000602082019050818103600083015262000f088162000ec6565b9050919050565b7f5061757361626c653a2070617573656400000000000000000000000000000000600082015250565b600062000f4760108362000d10565b915062000f548262000f0f565b602082019050919050565b6000602082019050818103600083015262000f7a8162000f38565b9050919050565b600062000f8e8262000ad5565b915062000f9b8362000ad5565b925082820390508181111562000fb65762000fb562000d93565b5b92915050565b7f4e487b7100000000000000000000000000000000000000000000000000000000600052603260045260246000fd5b6153e08062000ffb6000396000f3fe608060405234801561001057600080fd5b50600436106102955760003560e01c806379cc679011610167578063a9059cbb116100ce578063dbac26e911610087578063dbac26e9146107c8578063dd62ed3e146107f8578063e0cb8e5f14610828578063f16b51c114610844578063f2fde38b14610862578063fd84cb971461087e57610295565b8063a9059cbb1461070a578063b0eefabe1461073a578063b46f08bb14610756578063bec1d60814610772578063c415b95c1461078e578063c8cbc220146107ac57610295565b8063981b24d011610120578063981b24d01461061e5780639ed3edf01461064e578063a42dce801461066c578063a457c2d714610688578063a83ba53e146106b8578063a85c38ef146106d457610295565b806379cc6790146105965780638456cb59146105b25780638ab1d681146105bc5780638da5cb5b146105d857806395d89b41146105f65780639711715a1461061457610295565b8063395093511161020b5780635c975abb116101c45780635c975abb146104d457806366c85dee146104f25780636915b1fb1461050e5780636cc6cde11461053e57806370a082311461055c578063715018a61461058c57610295565b806339509351146104145780633f4ba83a1461044457806342966c681461044e5780634ee2cd7e1461046a578063514fcac71461049a5780635bf31d4d146104b657610295565b806317fd74711161025d57806317fd74711461033c57806318160ddd1461036c57806323b872dd1461038a5780632a58b330146103ba578063313ce567146103d857806332cb6b0c146103f657610295565b806306fdde031461029a578063095ea7b3146102b8578063096a8ab7146102e85780630e33599d14610304578063153b0d1e14610320575b600080fd5b6102a261089a565b6040516102af91906137df565b60405180910390f35b6102d260048036038101906102cd919061389f565b61092c565b6040516102df91906138fa565b60405180910390f35b61030260048036038101906102fd9190613915565b61094f565b005b61031e60048036038101906103199190613942565b6109a5565b005b61033a600480360381019061033591906139ae565b610de3565b005b61035660048036038101906103519190613a53565b610e94565b6040516103639190613ad6565b60405180910390f35b610374611206565b6040516103819190613ad6565b60405180910390f35b6103a4600480360381019061039f9190613af1565b611210565b6040516103b191906138fa565b60405180910390f35b6103c261123a565b6040516103cf9190613ad6565b60405180910390f35b6103e0611240565b6040516103ed9190613b60565b60405180910390f35b6103fe611249565b60405161040b9190613ad6565b60405180910390f35b61042e6004803603810190610429919061389f565b611258565b60405161043b91906138fa565b60405180910390f35b61044c61128f565b005b61046860048036038101906104639190613915565b6112a1565b005b610484600480360381019061047f919061389f565b6112b5565b6040516104919190613ad6565b60405180910390f35b6104b460048036038101906104af9190613915565b611325565b005b6104be6114e7565b6040516104cb9190613ad6565b60405180910390f35b6104dc6114ed565b6040516104e991906138fa565b60405180910390f35b61050c60048036038101906105079190613b7b565b611504565b005b61052860048036038101906105239190613bdb565b61173a565b60405161053591906138fa565b60405180910390f35b61054661175a565b6040516105539190613c17565b60405180910390f35b61057660048036038101906105719190613bdb565b611780565b6040516105839190613ad6565b60405180910390f35b6105946117c8565b005b6105b060048036038101906105ab919061389f565b6117dc565b005b6105ba6117fc565b005b6105d660048036038101906105d19190613bdb565b61180e565b005b6105e06118b4565b6040516105ed9190613c17565b60405180910390f35b6105fe6118de565b60405161060b91906137df565b60405180910390f35b61061c611970565b005b61063860048036038101906106339190613915565b611983565b6040516106459190613ad6565b60405180910390f35b6106566119b4565b6040516106639190613ad6565b60405180910390f35b61068660048036038101906106819190613bdb565b6119ba565b005b6106a2600480360381019061069d919061389f565b611a75565b6040516106af91906138fa565b60405180910390f35b6106d260048036038101906106cd9190613915565b611aec565b005b6106ee60048036038101906106e99190613915565b611b41565b6040516107019796959493929190613ca9565b60405180910390f35b610724600480360381019061071f919061389f565b611ce0565b60405161073191906138fa565b60405180910390f35b610754600480360381019061074f9190613bdb565b611cfe565b005b610770600480360381019061076b9190613915565b611db9565b005b61078c60048036038101906107879190613915565b611e0e565b005b610796612023565b6040516107a39190613c17565b60405180910390f35b6107c660048036038101906107c19190613bdb565b612049565b005b6107e260048036038101906107dd9190613bdb565b6120ef565b6040516107ef91906138fa565b60405180910390f35b610812600480360381019061080d9190613d26565b61210f565b60405161081f9190613ad6565b60405180910390f35b610842600480360381019061083d9190613915565b612196565b005b61084c612315565b6040516108599190613ad6565b60405180910390f35b61087c60048036038101906108779190613bdb565b61231b565b005b61089860048036038101906108939190613915565b61239e565b005b6060600380546108a990613d95565b80601f01602080910402602001604051908101604052809291908181526020018280546108d590613d95565b80156109225780601f106108f757610100808354040283529160200191610922565b820191906000526020600020905b81548152906001019060200180831161090557829003601f168201915b5050505050905090565b600080610937612560565b9050610944818585612568565b600191505092915050565b610957612731565b606481111561099b576040517f08c379a000000000000000000000000000000000000000000000000000000000815260040161099290613e12565b60405180910390fd5b80600b8190555050565b6109ad6127af565b601360009054906101000a900473ffffffffffffffffffffffffffffffffffffffff1673ffffffffffffffffffffffffffffffffffffffff163373ffffffffffffffffffffffffffffffffffffffff1614610a3d576040517f08c379a0000000000000000000000000000000000000000000000000000000008152600401610a3490613e7e565b60405180910390fd5b600073ffffffffffffffffffffffffffffffffffffffff168173ffffffffffffffffffffffffffffffffffffffff1603610aac576040517f08c379a0000000000000000000000000000000000000000000000000000000008152600401610aa390613eea565b60405180910390fd5b6000600f6000848152602001908152602001600020905060036005811115610ad757610ad6613c32565b5b8160040160009054906101000a900460ff166005811115610afb57610afa613c32565b5b14610b3b576040517f08c379a0000000000000000000000000000000000000000000000000000000008152600401610b3290613f56565b60405180910390fd5b8060000160009054906101000a900473ffffffffffffffffffffffffffffffffffffffff1673ffffffffffffffffffffffffffffffffffffffff168273ffffffffffffffffffffffffffffffffffffffff161480610be857508060010160009054906101000a900473ffffffffffffffffffffffffffffffffffffffff1673ffffffffffffffffffffffffffffffffffffffff168273ffffffffffffffffffffffffffffffffffffffff16145b610c27576040517f08c379a0000000000000000000000000000000000000000000000000000000008152600401610c1e90613eea565b60405180910390fd5b8060010160009054906101000a900473ffffffffffffffffffffffffffffffffffffffff1673ffffffffffffffffffffffffffffffffffffffff168273ffffffffffffffffffffffffffffffffffffffff1603610d1057610cb1308260010160009054906101000a900473ffffffffffffffffffffffffffffffffffffffff1683600201546127fe565b60028160040160006101000a81548160ff02191690836005811115610cd957610cd8613c32565b5b0217905550827f02a7d4d9472af7118644884b9a0ee443540c0027e938dd0aa35be8ecbe946c0a60405160405180910390a2610d9e565b610d43308260000160009054906101000a900473ffffffffffffffffffffffffffffffffffffffff1683600201546127fe565b60048160040160006101000a81548160ff02191690836005811115610d6b57610d6a613c32565b5b0217905550827f303a31648d19f17852cf82657162c4bdd4a06ab3f36f1e7ae1118f4ca6473e1160405160405180910390a25b827ff77ceb5e091d2da041bc760667f9d5fe7a756949eaf29250ad0e60ca6f4c27d983604051610dce9190613c17565b60405180910390a250610ddf612a74565b5050565b610deb612731565b80600e60008473ffffffffffffffffffffffffffffffffffffffff1673ffffffffffffffffffffffffffffffffffffffff16815260200190815260200160002060006101000a81548160ff0219169083151502179055508173ffffffffffffffffffffffffffffffffffffffff167f6a12b3df6cba4203bd7fd06b816789f87de8c594299aed5717ae070fac781bac82604051610e8891906138fa565b60405180910390a25050565b6000610e9e6127af565b60008411610ee1576040517f08c379a0000000000000000000000000000000000000000000000000000000008152600401610ed890613fc2565b60405180910390fd5b600073ffffffffffffffffffffffffffffffffffffffff168573ffffffffffffffffffffffffffffffffffffffff1614158015610f4a57503373ffffffffffffffffffffffffffffffffffffffff168573ffffffffffffffffffffffffffffffffffffffff1614155b610f89576040517f08c379a0000000000000000000000000000000000000000000000000000000008152600401610f809061402e565b60405180910390fd5b610f94333086612a7e565b600060106000815480929190610fa99061407d565b9190505590506040518060e001604052803373ffffffffffffffffffffffffffffffffffffffff1681526020018773ffffffffffffffffffffffffffffffffffffffff1681526020018681526020014281526020016000600581111561101257611011613c32565b5b815260200185858080601f016020809104026020016040519081016040528093929190818152602001838380828437600081840152601f19601f82011690508083019250505050505050815260200160405180602001604052806000815250815250600f600083815260200190815260200160002060008201518160000160006101000a81548173ffffffffffffffffffffffffffffffffffffffff021916908373ffffffffffffffffffffffffffffffffffffffff16021790555060208201518160010160006101000a81548173ffffffffffffffffffffffffffffffffffffffff021916908373ffffffffffffffffffffffffffffffffffffffff160217905550604082015181600201556060820151816003015560808201518160040160006101000a81548160ff0219169083600581111561115457611153613c32565b5b021790555060a082015181600501908161116e91906142a0565b5060c082015181600601908161118491906142a0565b509050508573ffffffffffffffffffffffffffffffffffffffff163373ffffffffffffffffffffffffffffffffffffffff16827f8a5442842accf64d1d239f8d2d0d32444aca25253e6b134bcf8e47207209eb148888886040516111ea939291906143ae565b60405180910390a4809150506111fe612a74565b949350505050565b6000600254905090565b60006112248461121e612560565b84612cc0565b61122f848484612a7e565b600190509392505050565b60105481565b60006012905090565b6a52b7d2dcc80cd2e400000081565b600080611263612560565b9050611284818585611275858961210f565b61127f91906143e0565b612568565b600191505092915050565b611297612731565b61129f612d4c565b565b6112b26112ac612560565b82612daf565b50565b600080600061130284600660008873ffffffffffffffffffffffffffffffffffffffff1673ffffffffffffffffffffffffffffffffffffffff168152602001908152602001600020612f7c565b91509150816113195761131485611780565b61131b565b805b9250505092915050565b61132d6127af565b6000600f600083815260200190815260200160002090508060000160009054906101000a900473ffffffffffffffffffffffffffffffffffffffff1673ffffffffffffffffffffffffffffffffffffffff163373ffffffffffffffffffffffffffffffffffffffff16146113d6576040517f08c379a00000000000000000000000000000000000000000000000000000000081526004016113cd90614460565b60405180910390fd5b600060058111156113ea576113e9613c32565b5b8160040160009054906101000a900460ff16600581111561140e5761140d613c32565b5b1461144e576040517f08c379a0000000000000000000000000000000000000000000000000000000008152600401611445906144cc565b60405180910390fd5b60058160040160006101000a81548160ff0219169083600581111561147657611475613c32565b5b02179055506114ae308260000160009054906101000a900473ffffffffffffffffffffffffffffffffffffffff1683600201546127fe565b817fc41f4ceb2938876c35e61b705e9d2f18a02c4a26ce5e049a6308a943d46851b360405160405180910390a2506114e4612a74565b50565b60125481565b6000600560149054906101000a900460ff16905090565b6000600f600085815260200190815260200160002090508060000160009054906101000a900473ffffffffffffffffffffffffffffffffffffffff1673ffffffffffffffffffffffffffffffffffffffff163373ffffffffffffffffffffffffffffffffffffffff16146115ad576040517f08c379a00000000000000000000000000000000000000000000000000000000081526004016115a490614460565b60405180910390fd5b600160058111156115c1576115c0613c32565b5b8160040160009054906101000a900460ff1660058111156115e5576115e4613c32565b5b1480611626575060006005811115611600576115ff613c32565b5b8160040160009054906101000a900460ff16600581111561162457611623613c32565b5b145b611665576040517f08c379a000000000000000000000000000000000000000000000000000000000815260040161165c90614538565b60405180910390fd5b601254816003015461167791906143e0565b4211156116b9576040517f08c379a00000000000000000000000000000000000000000000000000000000081526004016116b0906145a4565b60405180910390fd5b60038160040160006101000a81548160ff021916908360058111156116e1576116e0613c32565b5b021790555082828260060191826116f99291906145cf565b50837fd693ccc71a545a9010a955f8be4ad6805536312b27e1d1e5b182869807f0d27b848460405161172c92919061469f565b60405180910390a250505050565b600d6020528060005260406000206000915054906101000a900460ff1681565b601360009054906101000a900473ffffffffffffffffffffffffffffffffffffffff1681565b60008060008373ffffffffffffffffffffffffffffffffffffffff1673ffffffffffffffffffffffffffffffffffffffff168152602001908152602001600020549050919050565b6117d0612731565b6117da6000613071565b565b6117ee826117e8612560565b83612cc0565b6117f88282612daf565b5050565b611804612731565b61180c613137565b565b611816612731565b6000600d60008373ffffffffffffffffffffffffffffffffffffffff1673ffffffffffffffffffffffffffffffffffffffff16815260200190815260200160002060006101000a81548160ff0219169083151502179055508073ffffffffffffffffffffffffffffffffffffffff167fc358254384454f56baae358cc80e086a44f615bfcf50cf4c855c21bcb37dda8d60405160405180910390a250565b6000600560009054906101000a900473ffffffffffffffffffffffffffffffffffffffff16905090565b6060600480546118ed90613d95565b80601f016020809104026020016040519081016040528092919081815260200182805461191990613d95565b80156119665780601f1061193b57610100808354040283529160200191611966565b820191906000526020600020905b81548152906001019060200180831161194957829003601f168201915b5050505050905090565b611978612731565b61198061319a565b50565b6000806000611993846007612f7c565b91509150816119a9576119a4611206565b6119ab565b805b92505050919050565b600b5481565b6119c2612731565b600073ffffffffffffffffffffffffffffffffffffffff168173ffffffffffffffffffffffffffffffffffffffff1603611a31576040517f08c379a0000000000000000000000000000000000000000000000000000000008152600401611a289061470f565b60405180910390fd5b80600c60006101000a81548173ffffffffffffffffffffffffffffffffffffffff021916908373ffffffffffffffffffffffffffffffffffffffff16021790555050565b600080611a80612560565b90506000611a8e828661210f565b905083811015611ad3576040517f08c379a0000000000000000000000000000000000000000000000000000000008152600401611aca906147a1565b60405180910390fd5b611ae08286868403612568565b60019250505092915050565b611af4612731565b60008111611b37576040517f08c379a0000000000000000000000000000000000000000000000000000000008152600401611b2e9061480d565b60405180910390fd5b8060128190555050565b600f6020528060005260406000206000915090508060000160009054906101000a900473ffffffffffffffffffffffffffffffffffffffff16908060010160009054906101000a900473ffffffffffffffffffffffffffffffffffffffff16908060020154908060030154908060040160009054906101000a900460ff1690806005018054611bcf90613d95565b80601f0160208091040260200160405190810160405280929190818152602001828054611bfb90613d95565b8015611c485780601f10611c1d57610100808354040283529160200191611c48565b820191906000526020600020905b815481529060010190602001808311611c2b57829003601f168201915b505050505090806006018054611c5d90613d95565b80601f0160208091040260200160405190810160405280929190818152602001828054611c8990613d95565b8015611cd65780601f10611cab57610100808354040283529160200191611cd6565b820191906000526020600020905b815481529060010190602001808311611cb957829003601f168201915b5050505050905087565b6000611cf4611ced612560565b8484612a7e565b6001905092915050565b611d06612731565b600073ffffffffffffffffffffffffffffffffffffffff168173ffffffffffffffffffffffffffffffffffffffff1603611d75576040517f08c379a0000000000000000000000000000000000000000000000000000000008152600401611d6c90614879565b60405180910390fd5b80601360006101000a81548173ffffffffffffffffffffffffffffffffffffffff021916908373ffffffffffffffffffffffffffffffffffffffff16021790555050565b611dc1612731565b60008111611e04576040517f08c379a0000000000000000000000000000000000000000000000000000000008152600401611dfb9061480d565b60405180910390fd5b8060118190555050565b611e166127af565b6000600f600083815260200190815260200160002090508060010160009054906101000a900473ffffffffffffffffffffffffffffffffffffffff1673ffffffffffffffffffffffffffffffffffffffff163373ffffffffffffffffffffffffffffffffffffffff1614611ebf576040517f08c379a0000000000000000000000000000000000000000000000000000000008152600401611eb6906148e5565b60405180910390fd5b60016005811115611ed357611ed2613c32565b5b8160040160009054906101000a900460ff166005811115611ef757611ef6613c32565b5b14611f37576040517f08c379a0000000000000000000000000000000000000000000000000000000008152600401611f2e90614538565b60405180910390fd5b6011548160030154611f4991906143e0565b4211611f8a576040517f08c379a0000000000000000000000000000000000000000000000000000000008152600401611f8190614951565b60405180910390fd5b60028160040160006101000a81548160ff02191690836005811115611fb257611fb1613c32565b5b0217905550611fea308260010160009054906101000a900473ffffffffffffffffffffffffffffffffffffffff1683600201546127fe565b817f02a7d4d9472af7118644884b9a0ee443540c0027e938dd0aa35be8ecbe946c0a60405160405180910390a250612020612a74565b50565b600c60009054906101000a900473ffffffffffffffffffffffffffffffffffffffff1681565b612051612731565b6001600d60008373ffffffffffffffffffffffffffffffffffffffff1673ffffffffffffffffffffffffffffffffffffffff16815260200190815260200160002060006101000a81548160ff0219169083151502179055508073ffffffffffffffffffffffffffffffffffffffff167fbe7a3d8765318b42e4754e52b6fb5654b6ed0582cb0f3f185965184b0fd98f8a60405160405180910390a250565b600e6020528060005260406000206000915054906101000a900460ff1681565b6000600160008473ffffffffffffffffffffffffffffffffffffffff1673ffffffffffffffffffffffffffffffffffffffff16815260200190815260200160002060008373ffffffffffffffffffffffffffffffffffffffff1673ffffffffffffffffffffffffffffffffffffffff16815260200190815260200160002054905092915050565b6000600f600083815260200190815260200160002090508060010160009054906101000a900473ffffffffffffffffffffffffffffffffffffffff1673ffffffffffffffffffffffffffffffffffffffff163373ffffffffffffffffffffffffffffffffffffffff161461223f576040517f08c379a0000000000000000000000000000000000000000000000000000000008152600401612236906149bd565b60405180910390fd5b6000600581111561225357612252613c32565b5b8160040160009054906101000a900460ff16600581111561227757612276613c32565b5b146122b7576040517f08c379a00000000000000000000000000000000000000000000000000000000081526004016122ae90614538565b60405180910390fd5b60018160040160006101000a81548160ff021916908360058111156122df576122de613c32565b5b0217905550817fe3ce5f36666aec295b2ed1a858caf4782066e5e8c1a5a5da7ba6551b14fcfdcb60405160405180910390a25050565b60115481565b612323612731565b600073ffffffffffffffffffffffffffffffffffffffff168173ffffffffffffffffffffffffffffffffffffffff1603612392576040517f08c379a000000000000000000000000000000000000000000000000000000000815260040161238990614a4f565b60405180910390fd5b61239b81613071565b50565b6123a66127af565b6000600f600083815260200190815260200160002090508060000160009054906101000a900473ffffffffffffffffffffffffffffffffffffffff1673ffffffffffffffffffffffffffffffffffffffff163373ffffffffffffffffffffffffffffffffffffffff161461244f576040517f08c379a000000000000000000000000000000000000000000000000000000000815260040161244690614460565b60405180910390fd5b6001600581111561246357612462613c32565b5b8160040160009054906101000a900460ff16600581111561248757612486613c32565b5b146124c7576040517f08c379a00000000000000000000000000000000000000000000000000000000081526004016124be90614abb565b60405180910390fd5b60028160040160006101000a81548160ff021916908360058111156124ef576124ee613c32565b5b0217905550612527308260010160009054906101000a900473ffffffffffffffffffffffffffffffffffffffff1683600201546127fe565b817f02a7d4d9472af7118644884b9a0ee443540c0027e938dd0aa35be8ecbe946c0a60405160405180910390a25061255d612a74565b50565b600033905090565b600073ffffffffffffffffffffffffffffffffffffffff168373ffffffffffffffffffffffffffffffffffffffff16036125d7576040517f08c379a00000000000000000000000000000000000000000000000000000000081526004016125ce90614b4d565b60405180910390fd5b600073ffffffffffffffffffffffffffffffffffffffff168273ffffffffffffffffffffffffffffffffffffffff1603612646576040517f08c379a000000000000000000000000000000000000000000000000000000000815260040161263d90614bdf565b60405180910390fd5b80600160008573ffffffffffffffffffffffffffffffffffffffff1673ffffffffffffffffffffffffffffffffffffffff16815260200190815260200160002060008473ffffffffffffffffffffffffffffffffffffffff1673ffffffffffffffffffffffffffffffffffffffff168152602001908152602001600020819055508173ffffffffffffffffffffffffffffffffffffffff168373ffffffffffffffffffffffffffffffffffffffff167f8c5be1e5ebec7d5bd14f71427d1e84f3dd0314c0f7b2291e5b200ac8c7c3b925836040516127249190613ad6565b60405180910390a3505050565b612739612560565b73ffffffffffffffffffffffffffffffffffffffff166127576118b4565b73ffffffffffffffffffffffffffffffffffffffff16146127ad576040517f08c379a00000000000000000000000000000000000000000000000000000000081526004016127a490614c4b565b60405180910390fd5b565b6002600a54036127f4576040517f08c379a00000000000000000000000000000000000000000000000000000000081526004016127eb90614cb7565b60405180910390fd5b6002600a81905550565b600073ffffffffffffffffffffffffffffffffffffffff168373ffffffffffffffffffffffffffffffffffffffff160361286d576040517f08c379a000000000000000000000000000000000000000000000000000000000815260040161286490614d49565b60405180910390fd5b600073ffffffffffffffffffffffffffffffffffffffff168273ffffffffffffffffffffffffffffffffffffffff16036128dc576040517f08c379a00000000000000000000000000000000000000000000000000000000081526004016128d390614ddb565b60405180910390fd5b6128e78383836131f0565b60008060008573ffffffffffffffffffffffffffffffffffffffff1673ffffffffffffffffffffffffffffffffffffffff1681526020019081526020016000205490508181101561296d576040517f08c379a000000000000000000000000000000000000000000000000000000000815260040161296490614e6d565b60405180910390fd5b8181036000808673ffffffffffffffffffffffffffffffffffffffff1673ffffffffffffffffffffffffffffffffffffffff16815260200190815260200160002081905550816000808573ffffffffffffffffffffffffffffffffffffffff1673ffffffffffffffffffffffffffffffffffffffff168152602001908152602001600020600082825401925050819055508273ffffffffffffffffffffffffffffffffffffffff168473ffffffffffffffffffffffffffffffffffffffff167fddf252ad1be2c89b69c2b068fc378daa952ba7f163c4a11628f55a4df523b3ef84604051612a5b9190613ad6565b60405180910390a3612a6e84848461338c565b50505050565b6001600a81905550565b600e60008473ffffffffffffffffffffffffffffffffffffffff1673ffffffffffffffffffffffffffffffffffffffff16815260200190815260200160002060009054906101000a900460ff1615612b0b576040517f08c379a0000000000000000000000000000000000000000000000000000000008152600401612b0290614ed9565b60405180910390fd5b600e60008373ffffffffffffffffffffffffffffffffffffffff1673ffffffffffffffffffffffffffffffffffffffff16815260200190815260200160002060009054906101000a900460ff1615612b98576040517f08c379a0000000000000000000000000000000000000000000000000000000008152600401612b8f90614f45565b60405180910390fd5b6000600b54118015612bf45750600d60008473ffffffffffffffffffffffffffffffffffffffff1673ffffffffffffffffffffffffffffffffffffffff16815260200190815260200160002060009054906101000a900460ff16155b15612caf576000612710600b5483612c0c9190614f65565b612c169190614fd6565b9050612c4584600c60009054906101000a900473ffffffffffffffffffffffffffffffffffffffff16836127fe565b8373ffffffffffffffffffffffffffffffffffffffff167f9dc46f23cfb5ddcad0ae7ea2be38d47fec07bb9382ec7e564efc69e036dd66ce82604051612c8b9190613ad6565b60405180910390a2612ca984848385612ca49190615007565b6127fe565b50612cbb565b612cba8383836127fe565b5b505050565b6000612ccc848461210f565b90507fffffffffffffffffffffffffffffffffffffffffffffffffffffffffffffffff8114612d465781811015612d38576040517f08c379a0000000000000000000000000000000000000000000000000000000008152600401612d2f90615087565b60405180910390fd5b612d458484848403612568565b5b50505050565b612d54613391565b6000600560146101000a81548160ff0219169083151502179055507f5db9ee0a495bf2e6ff9c91a7834c1ba4fdd244a5e8aa4e537bd38aeae4b073aa612d98612560565b604051612da59190613c17565b60405180910390a1565b600073ffffffffffffffffffffffffffffffffffffffff168273ffffffffffffffffffffffffffffffffffffffff1603612e1e576040517f08c379a0000000000000000000000000000000000000000000000000000000008152600401612e1590615119565b60405180910390fd5b612e2a826000836131f0565b60008060008473ffffffffffffffffffffffffffffffffffffffff1673ffffffffffffffffffffffffffffffffffffffff16815260200190815260200160002054905081811015612eb0576040517f08c379a0000000000000000000000000000000000000000000000000000000008152600401612ea7906151ab565b60405180910390fd5b8181036000808573ffffffffffffffffffffffffffffffffffffffff1673ffffffffffffffffffffffffffffffffffffffff1681526020019081526020016000208190555081600260008282540392505081905550600073ffffffffffffffffffffffffffffffffffffffff168373ffffffffffffffffffffffffffffffffffffffff167fddf252ad1be2c89b69c2b068fc378daa952ba7f163c4a11628f55a4df523b3ef84604051612f639190613ad6565b60405180910390a3612f778360008461338c565b505050565b60008060008411612fc2576040517f08c379a0000000000000000000000000000000000000000000000000000000008152600401612fb990615217565b60405180910390fd5b612fca6133da565b84111561300c576040517f08c379a000000000000000000000000000000000000000000000000000000000815260040161300390615283565b60405180910390fd5b600061302485856000016133eb90919063ffffffff16565b90508360000180549050810361304157600080925092505061306a565b6001846001018281548110613059576130586152a3565b5b906000526020600020015492509250505b9250929050565b6000600560009054906101000a900473ffffffffffffffffffffffffffffffffffffffff16905081600560006101000a81548173ffffffffffffffffffffffffffffffffffffffff021916908373ffffffffffffffffffffffffffffffffffffffff1602179055508173ffffffffffffffffffffffffffffffffffffffff168173ffffffffffffffffffffffffffffffffffffffff167f8be0079c531659141344cd1fd0a4f28419497f9722a3daafe3b4186f6b6457e060405160405180910390a35050565b61313f6134a4565b6001600560146101000a81548160ff0219169083151502179055507f62e78cea01bee320cd4e420270b5ea74000d11b0c9f74754ebdbfc544b05a258613183612560565b6040516131909190613c17565b60405180910390a1565b60006131a660096134ee565b60006131b06133da565b90507f8030e83b04d87bef53480e26263266d6ca66863aa8506aca6f2559d18aa1cb67816040516131e19190613ad6565b60405180910390a18091505090565b6131f86134a4565b600073ffffffffffffffffffffffffffffffffffffffff168373ffffffffffffffffffffffffffffffffffffffff16146132ba57600e60008473ffffffffffffffffffffffffffffffffffffffff1673ffffffffffffffffffffffffffffffffffffffff16815260200190815260200160002060009054906101000a900460ff16156132b9576040517f08c379a00000000000000000000000000000000000000000000000000000000081526004016132b090614ed9565b60405180910390fd5b5b600073ffffffffffffffffffffffffffffffffffffffff168273ffffffffffffffffffffffffffffffffffffffff161461337c57600e60008373ffffffffffffffffffffffffffffffffffffffff1673ffffffffffffffffffffffffffffffffffffffff16815260200190815260200160002060009054906101000a900460ff161561337b576040517f08c379a000000000000000000000000000000000000000000000000000000000815260040161337290614f45565b60405180910390fd5b5b613387838383613504565b505050565b505050565b6133996114ed565b6133d8576040517f08c379a00000000000000000000000000000000000000000000000000000000081526004016133cf9061531e565b60405180910390fd5b565b60006133e660096135bc565b905090565b600080838054905003613401576000905061349e565b600080848054905090505b8082101561345557600061342083836135ca565b90508461342d87836135f0565b60000154111561343f5780915061344f565b60018161344c91906143e0565b92505b5061340c565b60008211801561347d575083613477866001856134729190615007565b6135f0565b60000154145b156134985760018261348f9190615007565b9250505061349e565b81925050505b92915050565b6134ac6114ed565b156134ec576040517f08c379a00000000000000000000000000000000000000000000000000000000081526004016134e39061538a565b60405180910390fd5b565b6001816000016000828254019250508190555050565b61350f838383613612565b600073ffffffffffffffffffffffffffffffffffffffff168373ffffffffffffffffffffffffffffffffffffffff16036135595761354c82613617565b61355461366a565b6135b7565b600073ffffffffffffffffffffffffffffffffffffffff168273ffffffffffffffffffffffffffffffffffffffff16036135a35761359683613617565b61359e61366a565b6135b6565b6135ac83613617565b6135b582613617565b5b5b505050565b600081600001549050919050565b600060028284186135db9190614fd6565b8284166135e891906143e0565b905092915050565b600080836000528260206000200190506136098161367e565b91505092915050565b505050565b613667600660008373ffffffffffffffffffffffffffffffffffffffff1673ffffffffffffffffffffffffffffffffffffffff16815260200190815260200160002061366283611780565b613688565b50565b61367c6007613677611206565b613688565b565b6000819050919050565b60006136926133da565b9050806136a184600001613703565b10156136fe5782600001819080600181540180825580915050600190039060005260206000200160009091909190915055826001018290806001815401808255809150506001900390600052602060002001600090919091909150555b505050565b600080828054905003613719576000905061374a565b816001838054905061372b9190615007565b8154811061373c5761373b6152a3565b5b906000526020600020015490505b919050565b600081519050919050565b600082825260208201905092915050565b60005b8381101561378957808201518184015260208101905061376e565b60008484015250505050565b6000601f19601f8301169050919050565b60006137b18261374f565b6137bb818561375a565b93506137cb81856020860161376b565b6137d481613795565b840191505092915050565b600060208201905081810360008301526137f981846137a6565b905092915050565b600080fd5b600080fd5b600073ffffffffffffffffffffffffffffffffffffffff82169050919050565b60006138368261380b565b9050919050565b6138468161382b565b811461385157600080fd5b50565b6000813590506138638161383d565b92915050565b6000819050919050565b61387c81613869565b811461388757600080fd5b50565b60008135905061389981613873565b92915050565b600080604083850312156138b6576138b5613801565b5b60006138c485828601613854565b92505060206138d58582860161388a565b9150509250929050565b60008115159050919050565b6138f4816138df565b82525050565b600060208201905061390f60008301846138eb565b92915050565b60006020828403121561392b5761392a613801565b5b60006139398482850161388a565b91505092915050565b6000806040838503121561395957613958613801565b5b60006139678582860161388a565b925050602061397885828601613854565b9150509250929050565b61398b816138df565b811461399657600080fd5b50565b6000813590506139a881613982565b92915050565b600080604083850312156139c5576139c4613801565b5b60006139d385828601613854565b92505060206139e485828601613999565b9150509250929050565b600080fd5b600080fd5b600080fd5b60008083601f840112613a1357613a126139ee565b5b8235905067ffffffffffffffff811115613a3057613a2f6139f3565b5b602083019150836001820283011115613a4c57613a4b6139f8565b5b9250929050565b60008060008060608587031215613a6d57613a6c613801565b5b6000613a7b87828801613854565b9450506020613a8c8782880161388a565b935050604085013567ffffffffffffffff811115613aad57613aac613806565b5b613ab9878288016139fd565b925092505092959194509250565b613ad081613869565b82525050565b6000602082019050613aeb6000830184613ac7565b92915050565b600080600060608486031215613b0a57613b09613801565b5b6000613b1886828701613854565b9350506020613b2986828701613854565b9250506040613b3a8682870161388a565b9150509250925092565b600060ff82169050919050565b613b5a81613b44565b82525050565b6000602082019050613b756000830184613b51565b92915050565b600080600060408486031215613b9457613b93613801565b5b6000613ba28682870161388a565b935050602084013567ffffffffffffffff811115613bc357613bc2613806565b5b613bcf868287016139fd565b92509250509250925092565b600060208284031215613bf157613bf0613801565b5b6000613bff84828501613854565b91505092915050565b613c118161382b565b82525050565b6000602082019050613c2c6000830184613c08565b92915050565b7f4e487b7100000000000000000000000000000000000000000000000000000000600052602160045260246000fd5b60068110613c7257613c71613c32565b5b50565b6000819050613c8382613c61565b919050565b6000613c9382613c75565b9050919050565b613ca381613c88565b82525050565b600060e082019050613cbe600083018a613c08565b613ccb6020830189613c08565b613cd86040830188613ac7565b613ce56060830187613ac7565b613cf26080830186613c9a565b81810360a0830152613d0481856137a6565b905081810360c0830152613d1881846137a6565b905098975050505050505050565b60008060408385031215613d3d57613d3c613801565b5b6000613d4b85828601613854565b9250506020613d5c85828601613854565b9150509250929050565b7f4e487b7100000000000000000000000000000000000000000000000000000000600052602260045260246000fd5b60006002820490506001821680613dad57607f821691505b602082108103613dc057613dbf613d66565b5b50919050565b7f4d61782066656520312500000000000000000000000000000000000000000000600082015250565b6000613dfc600a8361375a565b9150613e0782613dc6565b602082019050919050565b60006020820190508181036000830152613e2b81613def565b9050919050565b7f4f6e6c792061726269747261746f720000000000000000000000000000000000600082015250565b6000613e68600f8361375a565b9150613e7382613e32565b602082019050919050565b60006020820190508181036000830152613e9781613e5b565b9050919050565b7f496e76616c69642077696e6e6572000000000000000000000000000000000000600082015250565b6000613ed4600e8361375a565b9150613edf82613e9e565b602082019050919050565b60006020820190508181036000830152613f0381613ec7565b9050919050565b7f4e6f742064697370757465640000000000000000000000000000000000000000600082015250565b6000613f40600c8361375a565b9150613f4b82613f0a565b602082019050919050565b60006020820190508181036000830152613f6f81613f33565b9050919050565b7f416d6f756e74206d757374206265203e20300000000000000000000000000000600082015250565b6000613fac60128361375a565b9150613fb782613f76565b602082019050919050565b60006020820190508181036000830152613fdb81613f9f565b9050919050565b7f496e76616c69642073656c6c6572000000000000000000000000000000000000600082015250565b6000614018600e8361375a565b915061402382613fe2565b602082019050919050565b600060208201905081810360008301526140478161400b565b9050919050565b7f4e487b7100000000000000000000000000000000000000000000000000000000600052601160045260246000fd5b600061408882613869565b91507fffffffffffffffffffffffffffffffffffffffffffffffffffffffffffffffff82036140ba576140b961404e565b5b600182019050919050565b7f4e487b7100000000000000000000000000000000000000000000000000000000600052604160045260246000fd5b60008190508160005260206000209050919050565b60006020601f8301049050919050565b600082821b905092915050565b6000600883026141567fffffffffffffffffffffffffffffffffffffffffffffffffffffffffffffffff82614119565b6141608683614119565b95508019841693508086168417925050509392505050565b6000819050919050565b600061419d61419861419384613869565b614178565b613869565b9050919050565b6000819050919050565b6141b783614182565b6141cb6141c3826141a4565b848454614126565b825550505050565b600090565b6141e06141d3565b6141eb8184846141ae565b505050565b5b8181101561420f576142046000826141d8565b6001810190506141f1565b5050565b601f82111561425457614225816140f4565b61422e84614109565b8101602085101561423d578190505b61425161424985614109565b8301826141f0565b50505b505050565b600082821c905092915050565b600061427760001984600802614259565b1980831691505092915050565b60006142908383614266565b9150826002028217905092915050565b6142a98261374f565b67ffffffffffffffff8111156142c2576142c16140c5565b5b6142cc8254613d95565b6142d7828285614213565b600060209050601f83116001811461430a57600084156142f8578287015190505b6143028582614284565b86555061436a565b601f198416614318866140f4565b60005b828110156143405784890151825560018201915060208501945060208101905061431b565b8683101561435d5784890151614359601f891682614266565b8355505b6001600288020188555050505b505050505050565b82818337600083830152505050565b600061438d838561375a565b935061439a838584614372565b6143a383613795565b840190509392505050565b60006040820190506143c36000830186613ac7565b81810360208301526143d6818486614381565b9050949350505050565b60006143eb82613869565b91506143f683613869565b925082820190508082111561440e5761440d61404e565b5b92915050565b7f4f6e6c7920627579657200000000000000000000000000000000000000000000600082015250565b600061444a600a8361375a565b915061445582614414565b602082019050919050565b600060208201905081810360008301526144798161443d565b9050919050565b7f43616e6e6f742063616e63656c00000000000000000000000000000000000000600082015250565b60006144b6600d8361375a565b91506144c182614480565b602082019050919050565b600060208201905081810360008301526144e5816144a9565b9050919050565b7f496e76616c696420737461747573000000000000000000000000000000000000600082015250565b6000614522600e8361375a565b915061452d826144ec565b602082019050919050565b6000602082019050818103600083015261455181614515565b9050919050565b7f4469737075746520657870697265640000000000000000000000000000000000600082015250565b600061458e600f8361375a565b915061459982614558565b602082019050919050565b600060208201905081810360008301526145bd81614581565b9050919050565b600082905092915050565b6145d983836145c4565b67ffffffffffffffff8111156145f2576145f16140c5565b5b6145fc8254613d95565b614607828285614213565b6000601f8311600181146146365760008415614624578287013590505b61462e8582614284565b865550614696565b601f198416614644866140f4565b60005b8281101561466c57848901358255600182019150602085019450602081019050614647565b868310156146895784890135614685601f891682614266565b8355505b6001600288020188555050505b50505050505050565b600060208201905081810360008301526146ba818486614381565b90509392505050565b7f496e76616c696420616464726573730000000000000000000000000000000000600082015250565b60006146f9600f8361375a565b9150614704826146c3565b602082019050919050565b60006020820190508181036000830152614728816146ec565b9050919050565b7f45524332303a2064656372656173656420616c6c6f77616e63652062656c6f7760008201527f207a65726f000000000000000000000000000000000000000000000000000000602082015250565b600061478b60258361375a565b91506147968261472f565b604082019050919050565b600060208201905081810360008301526147ba8161477e565b9050919050565b7f4d757374206265203e2030000000000000000000000000000000000000000000600082015250565b60006147f7600b8361375a565b9150614802826147c1565b602082019050919050565b60006020820190508181036000830152614826816147ea565b9050919050565b7f496e76616c69642061726269747261746f720000000000000000000000000000600082015250565b600061486360128361375a565b915061486e8261482d565b602082019050919050565b6000602082019050818103600083015261489281614856565b9050919050565b7f4f6e6c792073656c6c6572000000000000000000000000000000000000000000600082015250565b60006148cf600b8361375a565b91506148da82614899565b602082019050919050565b600060208201905081810360008301526148fe816148c2565b9050919050565b7f546f6f206561726c790000000000000000000000000000000000000000000000600082015250565b600061493b60098361375a565b915061494682614905565b602082019050919050565b6000602082019050818103600083015261496a8161492e565b9050919050565b7f4f6e6c792073656c6c65722063616e20636f6e6669726d000000000000000000600082015250565b60006149a760178361375a565b91506149b282614971565b602082019050919050565b600060208201905081810360008301526149d68161499a565b9050919050565b7f4f776e61626c653a206e6577206f776e657220697320746865207a65726f206160008201527f6464726573730000000000000000000000000000000000000000000000000000602082015250565b6000614a3960268361375a565b9150614a44826149dd565b604082019050919050565b60006020820190508181036000830152614a6881614a2c565b9050919050565b7f4f72646572206e6f742073686970706564000000000000000000000000000000600082015250565b6000614aa560118361375a565b9150614ab082614a6f565b602082019050919050565b60006020820190508181036000830152614ad481614a98565b9050919050565b7f45524332303a20617070726f76652066726f6d20746865207a65726f2061646460008201527f7265737300000000000000000000000000000000000000000000000000000000602082015250565b6000614b3760248361375a565b9150614b4282614adb565b604082019050919050565b60006020820190508181036000830152614b6681614b2a565b9050919050565b7f45524332303a20617070726f766520746f20746865207a65726f20616464726560008201527f7373000000000000000000000000000000000000000000000000000000000000602082015250565b6000614bc960228361375a565b9150614bd482614b6d565b604082019050919050565b60006020820190508181036000830152614bf881614bbc565b9050919050565b7f4f776e61626c653a2063616c6c6572206973206e6f7420746865206f776e6572600082015250565b6000614c3560208361375a565b9150614c4082614bff565b602082019050919050565b60006020820190508181036000830152614c6481614c28565b9050919050565b7f5265656e7472616e637947756172643a207265656e7472616e742063616c6c00600082015250565b6000614ca1601f8361375a565b9150614cac82614c6b565b602082019050919050565b60006020820190508181036000830152614cd081614c94565b9050919050565b7f45524332303a207472616e736665722066726f6d20746865207a65726f20616460008201527f6472657373000000000000000000000000000000000000000000000000000000602082015250565b6000614d3360258361375a565b9150614d3e82614cd7565b604082019050919050565b60006020820190508181036000830152614d6281614d26565b9050919050565b7f45524332303a207472616e7366657220746f20746865207a65726f206164647260008201527f6573730000000000000000000000000000000000000000000000000000000000602082015250565b6000614dc560238361375a565b9150614dd082614d69565b604082019050919050565b60006020820190508181036000830152614df481614db8565b9050919050565b7f45524332303a207472616e7366657220616d6f756e742065786365656473206260008201527f616c616e63650000000000000000000000000000000000000000000000000000602082015250565b6000614e5760268361375a565b9150614e6282614dfb565b604082019050919050565b60006020820190508181036000830152614e8681614e4a565b9050919050565b7f53656e64657220626c61636b6c69737465640000000000000000000000000000600082015250565b6000614ec360128361375a565b9150614ece82614e8d565b602082019050919050565b60006020820190508181036000830152614ef281614eb6565b9050919050565b7f526563697069656e7420626c61636b6c69737465640000000000000000000000600082015250565b6000614f2f60158361375a565b9150614f3a82614ef9565b602082019050919050565b60006020820190508181036000830152614f5e81614f22565b9050919050565b6000614f7082613869565b9150614f7b83613869565b9250828202614f8981613869565b91508282048414831517614fa057614f9f61404e565b5b5092915050565b7f4e487b7100000000000000000000000000000000000000000000000000000000600052601260045260246000fd5b6000614fe182613869565b9150614fec83613869565b925082614ffc57614ffb614fa7565b5b828204905092915050565b600061501282613869565b915061501d83613869565b92508282039050818111156150355761503461404e565b5b92915050565b7f45524332303a20696e73756666696369656e7420616c6c6f77616e6365000000600082015250565b6000615071601d8361375a565b915061507c8261503b565b602082019050919050565b600060208201905081810360008301526150a081615064565b9050919050565b7f45524332303a206275726e2066726f6d20746865207a65726f2061646472657360008201527f7300000000000000000000000000000000000000000000000000000000000000602082015250565b600061510360218361375a565b915061510e826150a7565b604082019050919050565b60006020820190508181036000830152615132816150f6565b9050919050565b7f45524332303a206275726e20616d6f756e7420657863656564732062616c616e60008201527f6365000000000000000000000000000000000000000000000000000000000000602082015250565b600061519560228361375a565b91506151a082615139565b604082019050919050565b600060208201905081810360008301526151c481615188565b9050919050565b7f4552433230536e617073686f743a206964206973203000000000000000000000600082015250565b600061520160168361375a565b915061520c826151cb565b602082019050919050565b60006020820190508181036000830152615230816151f4565b9050919050565b7f4552433230536e617073686f743a206e6f6e6578697374656e74206964000000600082015250565b600061526d601d8361375a565b915061527882615237565b602082019050919050565b6000602082019050818103600083015261529c81615260565b9050919050565b7f4e487b7100000000000000000000000000000000000000000000000000000000600052603260045260246000fd5b7f5061757361626c653a206e6f7420706175736564000000000000000000000000600082015250565b600061530860148361375a565b9150615313826152d2565b602082019050919050565b60006020820190508181036000830152615337816152fb565b9050919050565b7f5061757361626c653a2070617573656400000000000000000000000000000000600082015250565b600061537460108361375a565b915061537f8261533e565b602082019050919050565b600060208201905081810360008301526153a381615367565b905091905056fea264697066735822122034f09f98ceca51939877d660716c0988759d45dfec1d2f3f3af8adffcfe3419a64736f6c63430008140033",
  "linkReferences": {},
  "deployedLinkReferences": {}
}