{
  "_format": "hh-sol-artifact-1",
  "contractName": "EComToken",
  "sourceName": "contracts/EComToken.sol",
  "abi": [
    {
      "inputs": [
        {
          "internalType": "address",
          "name": "initialOwner",
          "type": "address"
        }
      ],
      "stateMutability": "nonpayable",
      "type": "constructor"
    },
    {
      "anonymous": false,
      "inputs": [
        {
          "indexed": true,
          "internalType": "address",
          "name": "owner",
          "type": "address"
        },
        {
          "indexed": true,
          "internalType": "address",
          "name": "spender",
          "type": "address"
        },
        {
          "indexed": false,
          "internalType": "uint256",
          "name": "value",
          "type": "uint256"
        }
      ],
      "name": "Approval",
      "type": "event"
    },
    {
      "anonymous": false,
      "inputs": [
        {
          "indexed": true,
          "internalType": "address",
          "name": "account",
          "type": "address"
        },
        {
          "indexed": false,
          "internalType": "bool",
          "name": "status",
          "type": "bool"
        }
      ],
      "name": "BlacklistUpdated",
      "type": "event"
    },
    {
      "anonymous": false,
      "inputs": [
        {
          "indexed": true,
          "internalType": "address",
          "name": "from",
          "type": "address"
        },
        {
          "indexed": false,
          "internalType": "uint256",
          "name": "amount",
          "type": "uint256"
        }
      ],
      "name": "FeesCollected",
      "type": "event"
    },
    {
      "anonymous": false,
      "inputs": [
        {
          "indexed": true,
          "internalType": "address",
          "name": "merchant",
          "type": "address"
        }
      ],
      "name": "MerchantWhitelisted",
      "type": "event"
    },
    {
      "anonymous": false,
      "inputs": [
        {
          "indexed": true,
          "internalType": "address",
          "name": "previousOwner",
          "type": "address"
        },
        {
          "indexed": true,
          "internalType": "address",
          "name": "newOwner",
          "type": "address"
        }
      ],
      "name": "OwnershipTransferred",
      "type": "event"
    },
    {
      "anonymous": false,
      "inputs": [
        {
          "indexed": false,
          "internalType": "address",
          "name": "account",
          "type": "address"
        }
      ],
      "name": "Paused",
      "type": "event"
    },
    {
      "anonymous": false,
      "inputs": [
        {
          "indexed": false,
          "internalType": "uint256",
          "name": "id",
          "type": "uint256"
        }
      ],
      "name": "Snapshot",
      "type": "event"
    },
    {
      "anonymous": false,
      "inputs": [
        {
          "indexed": true,
          "internalType": "address",
          "name": "from",
          "type": "address"
        },
        {
          "indexed": true,
          "internalType": "address",
          "name": "to",
          "type": "address"
        },
        {
          "indexed": false,
          "internalType": "uint256",
          "name": "value",
          "type": "uint256"
        }
      ],
      "name": "Transfer",
      "type": "event"
    },
    {
      "anonymous": false,
      "inputs": [
        {
          "indexed": false,
          "internalType": "address",
          "name": "account",
          "type": "address"
        }
      ],
      "name": "Unpaused",
      "type": "event"
    },
    {
      "inputs": [],
      "name": "MAX_SUPPLY",
      "outputs": [
        {
          "internalType": "uint256",
          "name": "",
          "type": "uint256"
        }
      ],
      "stateMutability": "view",
      "type": "function"
    },
    {
      "inputs": [
        {
          "internalType": "address",
          "name": "owner",
          "type": "address"
        },
        {
          "internalType": "address",
          "name": "spender",
          "type": "address"
        }
      ],
      "name": "allowance",
      "outputs": [
        {
          "internalType": "uint256",
          "name": "",
          "type": "uint256"
        }
      ],
      "stateMutability": "view",
      "type": "function"
    },
    {
      "inputs": [
        {
          "internalType": "address",
          "name": "spender",
          "type": "address"
        },
        {
          "internalType": "uint256",
          "name": "amount",
          "type": "uint256"
        }
      ],
      "name": "approve",
      "outputs": [
        {
          "internalType": "bool",
          "name": "",
          "type": "bool"
        }
      ],
      "stateMutability": "nonpayable",
      "type": "function"
    },
    {
      "inputs": [
        {
          "internalType": "address",
          "name": "account",
          "type": "address"
        }
      ],
      "name": "balanceOf",
      "outputs": [
        {
          "internalType": "uint256",
          "name": "",
          "type": "uint256"
        }
      ],
      "stateMutability": "view",
      "type": "function"
    },
    {
      "inputs": [
        {
          "internalType": "address",
          "name": "account",
          "type": "address"
        },
        {
          "internalType": "uint256",
          "name": "snapshotId",
          "type": "uint256"
        }
      ],
      "name": "balanceOfAt",
      "outputs": [
        {
          "internalType": "uint256",
          "name": "",
          "type": "uint256"
        }
      ],
      "stateMutability": "view",
      "type": "function"
    },
    {
      "inputs": [
        {
          "internalType": "address",
          "name": "",
          "type": "address"
        }
      ],
      "name": "blacklisted",
      "outputs": [
        {
          "internalType": "bool",
          "name": "",
          "type": "bool"
        }
      ],
      "stateMutability": "view",
      "type": "function"
    },
    {
      "inputs": [
        {
          "internalType": "uint256",
          "name": "amount",
          "type": "uint256"
        }
      ],
      "name": "burn",
      "outputs": [],
      "stateMutability": "nonpayable",
      "type": "function"
    },
    {
      "inputs": [
        {
          "internalType": "address",
          "name": "account",
          "type": "address"
        },
        {
          "internalType": "uint256",
          "name": "amount",
          "type": "uint256"
        }
      ],
      "name": "burnFrom",
      "outputs": [],
      "stateMutability": "nonpayable",
      "type": "function"
    },
    {
      "inputs": [],
      "name": "decimals",
      "outputs": [
        {
          "internalType": "uint8",
          "name": "",
          "type": "uint8"
        }
      ],
      "stateMutability": "pure",
      "type": "function"
    },
    {
      "inputs": [
        {
          "internalType": "address",
          "name": "spender",
          "type": "address"
        },
        {
          "internalType": "uint256",
          "name": "subtractedValue",
          "type": "uint256"
        }
      ],
      "name": "decreaseAllowance",
      "outputs": [
        {
          "internalType": "bool",
          "name": "",
          "type": "bool"
        }
      ],
      "stateMutability": "nonpayable",
      "type": "function"
    },
    {
      "inputs": [],
      "name": "feeCollector",
      "outputs": [
        {
          "internalType": "address",
          "name": "",
          "type": "address"
        }
      ],
      "stateMutability": "view",
      "type": "function"
    },
    {
      "inputs": [
        {
          "internalType": "address",
          "name": "spender",
          "type": "address"
        },
        {
          "internalType": "uint256",
          "name": "addedValue",
          "type": "uint256"
        }
      ],
      "name": "increaseAllowance",
      "outputs": [
        {
          "internalType": "bool",
          "name": "",
          "type": "bool"
        }
      ],
      "stateMutability": "nonpayable",
      "type": "function"
    },
    {
      "inputs": [],
      "name": "name",
      "outputs": [
        {
          "internalType": "string",
          "name": "",
          "type": "string"
        }
      ],
      "stateMutability": "view",
      "type": "function"
    },
    {
      "inputs": [],
      "name": "owner",
      "outputs": [
        {
          "internalType": "address",
          "name": "",
          "type": "address"
        }
      ],
      "stateMutability": "view",
      "type": "function"
    },
    {
      "inputs": [],
      "name": "pause",
      "outputs": [],
      "stateMutability": "nonpayable",
      "type": "function"
    },
    {
      "inputs": [],
      "name": "paused",
      "outputs": [
        {
          "internalType": "bool",
          "name": "",
          "type": "bool"
        }
      ],
      "stateMutability": "view",
      "type": "function"
    },
    {
      "inputs": [],
      "name": "renounceOwnership",
      "outputs": [],
      "stateMutability": "nonpayable",
      "type": "function"
    },
    {
      "inputs": [
        {
          "internalType": "address",
          "name": "account",
          "type": "address"
        },
        {
          "internalType": "bool",
          "name": "status",
          "type": "bool"
        }
      ],
      "name": "setBlacklist",
      "outputs": [],
      "stateMutability": "nonpayable",
      "type": "function"
    },
    {
      "inputs": [
        {
          "internalType": "address",
          "name": "newCollector",
          "type": "address"
        }
      ],
      "name": "setFeeCollector",
      "outputs": [],
      "stateMutability": "nonpayable",
      "type": "function"
    },
    {
      "inputs": [
        {
          "internalType": "uint256",
          "name": "newFee",
          "type": "uint256"
        }
      ],
      "name": "setTransactionFee",
      "outputs": [],
      "stateMutability": "nonpayable",
      "type": "function"
    },
    {
      "inputs": [],
      "name": "snapshot",
      "outputs": [],
      "stateMutability": "nonpayable",
      "type": "function"
    },
    {
      "inputs": [],
      "name": "symbol",
      "outputs": [
        {
          "internalType": "string",
          "name": "",
          "type": "string"
        }
      ],
      "stateMutability": "view",
      "type": "function"
    },
    {
      "inputs": [],
      "name": "totalSupply",
      "outputs": [
        {
          "internalType": "uint256",
          "name": "",
          "type": "uint256"
        }
      ],
      "stateMutability": "view",
      "type": "function"
    },
    {
      "inputs": [
        {
          "internalType": "uint256",
          "name": "snapshotId",
          "type": "uint256"
        }
      ],
      "name": "totalSupplyAt",
      "outputs": [
        {
          "internalType": "uint256",
          "name": "",
          "type": "uint256"
        }
      ],
      "stateMutability": "view",
      "type": "function"
    },
    {
      "inputs": [],
      "name": "transactionFee",
      "outputs": [
        {
          "internalType": "uint256",
          "name": "",
          "type": "uint256"
        }
      ],
      "stateMutability": "view",
      "type": "function"
    },
    {
      "inputs": [
        {
          "internalType": "address",
          "name": "to",
          "type": "address"
        },
        {
          "internalType": "uint256",
          "name": "amount",
          "type": "uint256"
        }
      ],
      "name": "transfer",
      "outputs": [
        {
          "internalType": "bool",
          "name": "",
          "type": "bool"
        }
      ],
      "stateMutability": "nonpayable",
      "type": "function"
    },
    {
      "inputs": [
        {
          "internalType": "address",
          "name": "from",
          "type": "address"
        },
        {
          "internalType": "address",
          "name": "to",
          "type": "address"
        },
        {
          "internalType": "uint256",
          "name": "amount",
          "type": "uint256"
        }
      ],
      "name": "transferFrom",
      "outputs": [
        {
          "internalType": "bool",
          "name": "",
          "type": "bool"
        }
      ],
      "stateMutability": "nonpayable",
      "type": "function"
    },
    {
      "inputs": [
        {
          "internalType": "address",
          "name": "newOwner",
          "type": "address"
        }
      ],
      "name": "transferOwnership",
      "outputs": [],
      "stateMutability": "nonpayable",
      "type": "function"
    },
    {
      "inputs": [],
      "name": "unpause",
      "outputs": [],
      "stateMutability": "nonpayable",
      "type": "function"
    },
    {
      "inputs": [
        {
          "internalType": "address",
          "name": "merchant",
          "type": "address"
        }
      ],
      "name": "whitelistMerchant",
      "outputs": [],
      "stateMutability": "nonpayable",
      "type": "function"
    },
    {
      "inputs": [
        {
          "internalType": "address",
          "name": "",
          "type": "address"
        }
      ],
      "name": "whitelistedMerchants",
      "outputs": [
        {
          "internalType": "bool",
          "name": "",
          "type": "bool"
        }
      ],
      "stateMutability": "view",
      "type": "function"
    }
  ],
  "bytecode": "0x60806040526019600a553480156200001657600080fd5b5060405162003d1738038062003d1783398181016040528101906200003c919062000a06565b6040518060400160405280601681526020017f45436f6d6d6572636520476c6f62616c20546f6b656e000000000000000000008152506040518060400160405280600481526020017f45434f4d000000000000000000000000000000000000000000000000000000008152508160039081620000b9919062000cb2565b508060049081620000cb919062000cb2565b505050620000ee620000e26200017f60201b60201c565b6200018760201b60201c565b6000600560146101000a81548160ff02191690831515021790555080600b60006101000a81548173ffffffffffffffffffffffffffffffffffffffff021916908373ffffffffffffffffffffffffffffffffffffffff16021790555062000167816a52b7d2dcc80cd2e40000006200024d60201b60201c565b6200017881620003ba60201b60201c565b506200117e565b600033905090565b6000600560009054906101000a900473ffffffffffffffffffffffffffffffffffffffff16905081600560006101000a81548173ffffffffffffffffffffffffffffffffffffffff021916908373ffffffffffffffffffffffffffffffffffffffff1602179055508173ffffffffffffffffffffffffffffffffffffffff168173ffffffffffffffffffffffffffffffffffffffff167f8be0079c531659141344cd1fd0a4f28419497f9722a3daafe3b4186f6b6457e060405160405180910390a35050565b600073ffffffffffffffffffffffffffffffffffffffff168273ffffffffffffffffffffffffffffffffffffffff1603620002bf576040517f08c379a0000000000000000000000000000000000000000000000000000000008152600401620002b69062000dfa565b60405180910390fd5b620002d3600083836200045060201b60201c565b8060026000828254620002e7919062000e4b565b92505081905550806000808473ffffffffffffffffffffffffffffffffffffffff1673ffffffffffffffffffffffffffffffffffffffff168152602001908152602001600020600082825401925050819055508173ffffffffffffffffffffffffffffffffffffffff16600073ffffffffffffffffffffffffffffffffffffffff167fddf252ad1be2c89b69c2b068fc378daa952ba7f163c4a11628f55a4df523b3ef836040516200039a919062000e97565b60405180910390a3620003b6600083836200059860201b60201c565b5050565b620003ca6200059d60201b60201c565b600073ffffffffffffffffffffffffffffffffffffffff168173ffffffffffffffffffffffffffffffffffffffff16036200043c576040517f08c379a0000000000000000000000000000000000000000000000000000000008152600401620004339062000f2a565b60405180910390fd5b6200044d816200018760201b60201c565b50565b620004606200062e60201b60201c565b600d60008473ffffffffffffffffffffffffffffffffffffffff1673ffffffffffffffffffffffffffffffffffffffff16815260200190815260200160002060009054906101000a900460ff1615620004f0576040517f08c379a0000000000000000000000000000000000000000000000000000000008152600401620004e79062000f9c565b60405180910390fd5b600d60008373ffffffffffffffffffffffffffffffffffffffff1673ffffffffffffffffffffffffffffffffffffffff16815260200190815260200160002060009054906101000a900460ff161562000580576040517f08c379a000000000000000000000000000000000000000000000000000000000815260040162000577906200100e565b60405180910390fd5b620005938383836200068360201b60201c565b505050565b505050565b620005ad6200017f60201b60201c565b73ffffffffffffffffffffffffffffffffffffffff16620005d36200077760201b60201c565b73ffffffffffffffffffffffffffffffffffffffff16146200062c576040517f08c379a0000000000000000000000000000000000000000000000000000000008152600401620006239062001080565b60405180910390fd5b565b6200063e620007a160201b60201c565b1562000681576040517f08c379a00000000000000000000000000000000000000000000000000000000081526004016200067890620010f2565b60405180910390fd5b565b62000696838383620007b860201b60201c565b600073ffffffffffffffffffffffffffffffffffffffff168373ffffffffffffffffffffffffffffffffffffffff1603620006f257620006dc82620007bd60201b60201c565b620006ec6200082060201b60201c565b62000772565b600073ffffffffffffffffffffffffffffffffffffffff168273ffffffffffffffffffffffffffffffffffffffff16036200074e576200073883620007bd60201b60201c565b620007486200082060201b60201c565b62000771565b6200075f83620007bd60201b60201c565b6200077082620007bd60201b60201c565b5b5b505050565b6000600560009054906101000a900473ffffffffffffffffffffffffffffffffffffffff16905090565b6000600560149054906101000a900460ff16905090565b505050565b6200081d600660008373ffffffffffffffffffffffffffffffffffffffff1673ffffffffffffffffffffffffffffffffffffffff16815260200190815260200160002062000811836200084460201b60201c565b6200088c60201b60201c565b50565b620008426007620008366200091860201b60201c565b6200088c60201b60201c565b565b60008060008373ffffffffffffffffffffffffffffffffffffffff1673ffffffffffffffffffffffffffffffffffffffff168152602001908152602001600020549050919050565b60006200089e6200092260201b60201c565b905080620008b5846000016200093b60201b60201c565b1015620009135782600001819080600181540180825580915050600190039060005260206000200160009091909190915055826001018290806001815401808255809150506001900390600052602060002001600090919091909150555b505050565b6000600254905090565b60006200093660096200098e60201b60201c565b905090565b60008082805490500362000953576000905062000989565b816001838054905062000967919062001114565b815481106200097b576200097a6200114f565b5b906000526020600020015490505b919050565b600081600001549050919050565b600080fd5b600073ffffffffffffffffffffffffffffffffffffffff82169050919050565b6000620009ce82620009a1565b9050919050565b620009e081620009c1565b8114620009ec57600080fd5b50565b60008151905062000a0081620009d5565b92915050565b60006020828403121562000a1f5762000a1e6200099c565b5b600062000a2f84828501620009ef565b91505092915050565b600081519050919050565b7f4e487b7100000000000000000000000000000000000000000000000000000000600052604160045260246000fd5b7f4e487b7100000000000000000000000000000000000000000000000000000000600052602260045260246000fd5b6000600282049050600182168062000aba57607f821691505b60208210810362000ad05762000acf62000a72565b5b50919050565b60008190508160005260206000209050919050565b60006020601f8301049050919050565b600082821b905092915050565b60006008830262000b3a7fffffffffffffffffffffffffffffffffffffffffffffffffffffffffffffffff8262000afb565b62000b46868362000afb565b95508019841693508086168417925050509392505050565b6000819050919050565b6000819050919050565b600062000b9362000b8d62000b878462000b5e565b62000b68565b62000b5e565b9050919050565b6000819050919050565b62000baf8362000b72565b62000bc762000bbe8262000b9a565b84845462000b08565b825550505050565b600090565b62000bde62000bcf565b62000beb81848462000ba4565b505050565b5b8181101562000c135762000c0760008262000bd4565b60018101905062000bf1565b5050565b601f82111562000c625762000c2c8162000ad6565b62000c378462000aeb565b8101602085101562000c47578190505b62000c5f62000c568562000aeb565b83018262000bf0565b50505b505050565b600082821c905092915050565b600062000c876000198460080262000c67565b1980831691505092915050565b600062000ca2838362000c74565b9150826002028217905092915050565b62000cbd8262000a38565b67ffffffffffffffff81111562000cd95762000cd862000a43565b5b62000ce5825462000aa1565b62000cf282828562000c17565b600060209050601f83116001811462000d2a576000841562000d15578287015190505b62000d21858262000c94565b86555062000d91565b601f19841662000d3a8662000ad6565b60005b8281101562000d645784890151825560018201915060208501945060208101905062000d3d565b8683101562000d84578489015162000d80601f89168262000c74565b8355505b6001600288020188555050505b505050505050565b600082825260208201905092915050565b7f45524332303a206d696e7420746f20746865207a65726f206164647265737300600082015250565b600062000de2601f8362000d99565b915062000def8262000daa565b602082019050919050565b6000602082019050818103600083015262000e158162000dd3565b9050919050565b7f4e487b7100000000000000000000000000000000000000000000000000000000600052601160045260246000fd5b600062000e588262000b5e565b915062000e658362000b5e565b925082820190508082111562000e805762000e7f62000e1c565b5b92915050565b62000e918162000b5e565b82525050565b600060208201905062000eae600083018462000e86565b92915050565b7f4f776e61626c653a206e6577206f776e657220697320746865207a65726f206160008201527f6464726573730000000000000000000000000000000000000000000000000000602082015250565b600062000f1260268362000d99565b915062000f1f8262000eb4565b604082019050919050565b6000602082019050818103600083015262000f458162000f03565b9050919050565b7f53656e64657220626c61636b6c69737465640000000000000000000000000000600082015250565b600062000f8460128362000d99565b915062000f918262000f4c565b602082019050919050565b6000602082019050818103600083015262000fb78162000f75565b9050919050565b7f526563697069656e7420626c61636b6c69737465640000000000000000000000600082015250565b600062000ff660158362000d99565b9150620010038262000fbe565b602082019050919050565b60006020820190508181036000830152620010298162000fe7565b9050919050565b7f4f776e61626c653a2063616c6c6572206973206e6f7420746865206f776e6572600082015250565b60006200106860208362000d99565b9150620010758262001030565b602082019050919050565b600060208201905081810360008301526200109b8162001059565b9050919050565b7f5061757361626c653a2070617573656400000000000000000000000000000000600082015250565b6000620010da60108362000d99565b9150620010e782620010a2565b602082019050919050565b600060208201905081810360008301526200110d81620010cb565b9050919050565b6000620011218262000b5e565b91506200112e8362000b5e565b925082820390508181111562001149576200114862000e1c565b5b92915050565b7f4e487b7100000000000000000000000000000000000000000000000000000000600052603260045260246000fd5b612b89806200118e6000396000f3fe608060405234801561001057600080fd5b50600436106101e55760003560e01c8063715018a61161010f578063a42dce80116100a2578063c8cbc22011610071578063c8cbc2201461055c578063dbac26e914610578578063dd62ed3e146105a8578063f2fde38b146105d8576101e5565b8063a42dce80146104c2578063a457c2d7146104de578063a9059cbb1461050e578063c415b95c1461053e576101e5565b806395d89b41116100de57806395d89b411461044c5780639711715a1461046a578063981b24d0146104745780639ed3edf0146104a4576101e5565b8063715018a6146103fe57806379cc6790146104085780638456cb59146104245780638da5cb5b1461042e576101e5565b806332cb6b0c116101875780634ee2cd7e116101565780634ee2cd7e146103505780635c975abb146103805780636915b1fb1461039e57806370a08231146103ce576101e5565b806332cb6b0c146102dc57806339509351146102fa5780633f4ba83a1461032a57806342966c6814610334576101e5565b8063153b0d1e116101c3578063153b0d1e1461025457806318160ddd1461027057806323b872dd1461028e578063313ce567146102be576101e5565b806306fdde03146101ea578063095ea7b314610208578063096a8ab714610238575b600080fd5b6101f26105f4565b6040516101ff9190611d5e565b60405180910390f35b610222600480360381019061021d9190611e19565b610686565b60405161022f9190611e74565b60405180910390f35b610252600480360381019061024d9190611e8f565b6106a9565b005b61026e60048036038101906102699190611ee8565b6106ff565b005b6102786107b0565b6040516102859190611f37565b60405180910390f35b6102a860048036038101906102a39190611f52565b6107ba565b6040516102b59190611e74565b60405180910390f35b6102c66107e9565b6040516102d39190611fc1565b60405180910390f35b6102e46107f2565b6040516102f19190611f37565b60405180910390f35b610314600480360381019061030f9190611e19565b610801565b6040516103219190611e74565b60405180910390f35b610332610838565b005b61034e60048036038101906103499190611e8f565b61084a565b005b61036a60048036038101906103659190611e19565b61085e565b6040516103779190611f37565b60405180910390f35b6103886108ce565b6040516103959190611e74565b60405180910390f35b6103b860048036038101906103b39190611fdc565b6108e5565b6040516103c59190611e74565b60405180910390f35b6103e860048036038101906103e39190611fdc565b610905565b6040516103f59190611f37565b60405180910390f35b61040661094d565b005b610422600480360381019061041d9190611e19565b610961565b005b61042c610981565b005b610436610993565b6040516104439190612018565b60405180910390f35b6104546109bd565b6040516104619190611d5e565b60405180910390f35b610472610a4f565b005b61048e60048036038101906104899190611e8f565b610a62565b60405161049b9190611f37565b60405180910390f35b6104ac610a93565b6040516104b99190611f37565b60405180910390f35b6104dc60048036038101906104d79190611fdc565b610a99565b005b6104f860048036038101906104f39190611e19565b610b54565b6040516105059190611e74565b60405180910390f35b61052860048036038101906105239190611e19565b610bcb565b6040516105359190611e74565b60405180910390f35b610546610bee565b6040516105539190612018565b60405180910390f35b61057660048036038101906105719190611fdc565b610c14565b005b610592600480360381019061058d9190611fdc565b610cba565b60405161059f9190611e74565b60405180910390f35b6105c260048036038101906105bd9190612033565b610cda565b6040516105cf9190611f37565b60405180910390f35b6105f260048036038101906105ed9190611fdc565b610d61565b005b606060038054610603906120a2565b80601f016020809104026020016040519081016040528092919081815260200182805461062f906120a2565b801561067c5780601f106106515761010080835404028352916020019161067c565b820191906000526020600020905b81548152906001019060200180831161065f57829003601f168201915b5050505050905090565b600080610691610de4565b905061069e818585610dec565b600191505092915050565b6106b1610fb5565b60648111156106f5576040517f08c379a00000000000000000000000000000000000000000000000000000000081526004016106ec9061211f565b60405180910390fd5b80600a8190555050565b610707610fb5565b80600d60008473ffffffffffffffffffffffffffffffffffffffff1673ffffffffffffffffffffffffffffffffffffffff16815260200190815260200160002060006101000a81548160ff0219169083151502179055508173ffffffffffffffffffffffffffffffffffffffff167f6a12b3df6cba4203bd7fd06b816789f87de8c594299aed5717ae070fac781bac826040516107a49190611e74565b60405180910390a25050565b6000600254905090565b6000806107c5610de4565b90506107d2858285611033565b6107dd8585856110bf565b60019150509392505050565b60006012905090565b6a52b7d2dcc80cd2e400000081565b60008061080c610de4565b905061082d81858561081e8589610cda565b610828919061216e565b610dec565b600191505092915050565b610840610fb5565b610848611335565b565b61085b610855610de4565b82611398565b50565b60008060006108ab84600660008873ffffffffffffffffffffffffffffffffffffffff1673ffffffffffffffffffffffffffffffffffffffff168152602001908152602001600020611565565b91509150816108c2576108bd85610905565b6108c4565b805b9250505092915050565b6000600560149054906101000a900460ff16905090565b600c6020528060005260406000206000915054906101000a900460ff1681565b60008060008373ffffffffffffffffffffffffffffffffffffffff1673ffffffffffffffffffffffffffffffffffffffff168152602001908152602001600020549050919050565b610955610fb5565b61095f600061165a565b565b6109738261096d610de4565b83611033565b61097d8282611398565b5050565b610989610fb5565b610991611720565b565b6000600560009054906101000a900473ffffffffffffffffffffffffffffffffffffffff16905090565b6060600480546109cc906120a2565b80601f01602080910402602001604051908101604052809291908181526020018280546109f8906120a2565b8015610a455780601f10610a1a57610100808354040283529160200191610a45565b820191906000526020600020905b815481529060010190602001808311610a2857829003601f168201915b5050505050905090565b610a57610fb5565b610a5f611783565b50565b6000806000610a72846007611565565b9150915081610a8857610a836107b0565b610a8a565b805b92505050919050565b600a5481565b610aa1610fb5565b600073ffffffffffffffffffffffffffffffffffffffff168173ffffffffffffffffffffffffffffffffffffffff1603610b10576040517f08c379a0000000000000000000000000000000000000000000000000000000008152600401610b07906121ee565b60405180910390fd5b80600b60006101000a81548173ffffffffffffffffffffffffffffffffffffffff021916908373ffffffffffffffffffffffffffffffffffffffff16021790555050565b600080610b5f610de4565b90506000610b6d8286610cda565b905083811015610bb2576040517f08c379a0000000000000000000000000000000000000000000000000000000008152600401610ba990612280565b60405180910390fd5b610bbf8286868403610dec565b60019250505092915050565b600080610bd6610de4565b9050610be38185856110bf565b600191505092915050565b600b60009054906101000a900473ffffffffffffffffffffffffffffffffffffffff1681565b610c1c610fb5565b6001600c60008373ffffffffffffffffffffffffffffffffffffffff1673ffffffffffffffffffffffffffffffffffffffff16815260200190815260200160002060006101000a81548160ff0219169083151502179055508073ffffffffffffffffffffffffffffffffffffffff167fbe7a3d8765318b42e4754e52b6fb5654b6ed0582cb0f3f185965184b0fd98f8a60405160405180910390a250565b600d6020528060005260406000206000915054906101000a900460ff1681565b6000600160008473ffffffffffffffffffffffffffffffffffffffff1673ffffffffffffffffffffffffffffffffffffffff16815260200190815260200160002060008373ffffffffffffffffffffffffffffffffffffffff1673ffffffffffffffffffffffffffffffffffffffff16815260200190815260200160002054905092915050565b610d69610fb5565b600073ffffffffffffffffffffffffffffffffffffffff168173ffffffffffffffffffffffffffffffffffffffff1603610dd8576040517f08c379a0000000000000000000000000000000000000000000000000000000008152600401610dcf90612312565b60405180910390fd5b610de18161165a565b50565b600033905090565b600073ffffffffffffffffffffffffffffffffffffffff168373ffffffffffffffffffffffffffffffffffffffff1603610e5b576040517f08c379a0000000000000000000000000000000000000000000000000000000008152600401610e52906123a4565b60405180910390fd5b600073ffffffffffffffffffffffffffffffffffffffff168273ffffffffffffffffffffffffffffffffffffffff1603610eca576040517f08c379a0000000000000000000000000000000000000000000000000000000008152600401610ec190612436565b60405180910390fd5b80600160008573ffffffffffffffffffffffffffffffffffffffff1673ffffffffffffffffffffffffffffffffffffffff16815260200190815260200160002060008473ffffffffffffffffffffffffffffffffffffffff1673ffffffffffffffffffffffffffffffffffffffff168152602001908152602001600020819055508173ffffffffffffffffffffffffffffffffffffffff168373ffffffffffffffffffffffffffffffffffffffff167f8c5be1e5ebec7d5bd14f71427d1e84f3dd0314c0f7b2291e5b200ac8c7c3b92583604051610fa89190611f37565b60405180910390a3505050565b610fbd610de4565b73ffffffffffffffffffffffffffffffffffffffff16610fdb610993565b73ffffffffffffffffffffffffffffffffffffffff1614611031576040517f08c379a0000000000000000000000000000000000000000000000000000000008152600401611028906124a2565b60405180910390fd5b565b600061103f8484610cda565b90507fffffffffffffffffffffffffffffffffffffffffffffffffffffffffffffffff81146110b957818110156110ab576040517f08c379a00000000000000000000000000000000000000000000000000000000081526004016110a29061250e565b60405180910390fd5b6110b88484848403610dec565b5b50505050565b600073ffffffffffffffffffffffffffffffffffffffff168373ffffffffffffffffffffffffffffffffffffffff160361112e576040517f08c379a0000000000000000000000000000000000000000000000000000000008152600401611125906125a0565b60405180910390fd5b600073ffffffffffffffffffffffffffffffffffffffff168273ffffffffffffffffffffffffffffffffffffffff160361119d576040517f08c379a000000000000000000000000000000000000000000000000000000000815260040161119490612632565b60405180910390fd5b6111a88383836117d9565b60008060008573ffffffffffffffffffffffffffffffffffffffff1673ffffffffffffffffffffffffffffffffffffffff1681526020019081526020016000205490508181101561122e576040517f08c379a0000000000000000000000000000000000000000000000000000000008152600401611225906126c4565b60405180910390fd5b8181036000808673ffffffffffffffffffffffffffffffffffffffff1673ffffffffffffffffffffffffffffffffffffffff16815260200190815260200160002081905550816000808573ffffffffffffffffffffffffffffffffffffffff1673ffffffffffffffffffffffffffffffffffffffff168152602001908152602001600020600082825401925050819055508273ffffffffffffffffffffffffffffffffffffffff168473ffffffffffffffffffffffffffffffffffffffff167fddf252ad1be2c89b69c2b068fc378daa952ba7f163c4a11628f55a4df523b3ef8460405161131c9190611f37565b60405180910390a361132f84848461190b565b50505050565b61133d611910565b6000600560146101000a81548160ff0219169083151502179055507f5db9ee0a495bf2e6ff9c91a7834c1ba4fdd244a5e8aa4e537bd38aeae4b073aa611381610de4565b60405161138e9190612018565b60405180910390a1565b600073ffffffffffffffffffffffffffffffffffffffff168273ffffffffffffffffffffffffffffffffffffffff1603611407576040517f08c379a00000000000000000000000000000000000000000000000000000000081526004016113fe90612756565b60405180910390fd5b611413826000836117d9565b60008060008473ffffffffffffffffffffffffffffffffffffffff1673ffffffffffffffffffffffffffffffffffffffff16815260200190815260200160002054905081811015611499576040517f08c379a0000000000000000000000000000000000000000000000000000000008152600401611490906127e8565b60405180910390fd5b8181036000808573ffffffffffffffffffffffffffffffffffffffff1673ffffffffffffffffffffffffffffffffffffffff1681526020019081526020016000208190555081600260008282540392505081905550600073ffffffffffffffffffffffffffffffffffffffff168373ffffffffffffffffffffffffffffffffffffffff167fddf252ad1be2c89b69c2b068fc378daa952ba7f163c4a11628f55a4df523b3ef8460405161154c9190611f37565b60405180910390a36115608360008461190b565b505050565b600080600084116115ab576040517f08c379a00000000000000000000000000000000000000000000000000000000081526004016115a290612854565b60405180910390fd5b6115b3611959565b8411156115f5576040517f08c379a00000000000000000000000000000000000000000000000000000000081526004016115ec906128c0565b60405180910390fd5b600061160d858560000161196a90919063ffffffff16565b90508360000180549050810361162a576000809250925050611653565b6001846001018281548110611642576116416128e0565b5b906000526020600020015492509250505b9250929050565b6000600560009054906101000a900473ffffffffffffffffffffffffffffffffffffffff16905081600560006101000a81548173ffffffffffffffffffffffffffffffffffffffff021916908373ffffffffffffffffffffffffffffffffffffffff1602179055508173ffffffffffffffffffffffffffffffffffffffff168173ffffffffffffffffffffffffffffffffffffffff167f8be0079c531659141344cd1fd0a4f28419497f9722a3daafe3b4186f6b6457e060405160405180910390a35050565b611728611a23565b6001600560146101000a81548160ff0219169083151502179055507f62e78cea01bee320cd4e420270b5ea74000d11b0c9f74754ebdbfc544b05a25861176c610de4565b6040516117799190612018565b60405180910390a1565b600061178f6009611a6d565b6000611799611959565b90507f8030e83b04d87bef53480e26263266d6ca66863aa8506aca6f2559d18aa1cb67816040516117ca9190611f37565b60405180910390a18091505090565b6117e1611a23565b600d60008473ffffffffffffffffffffffffffffffffffffffff1673ffffffffffffffffffffffffffffffffffffffff16815260200190815260200160002060009054906101000a900460ff161561186e576040517f08c379a00000000000000000000000000000000000000000000000000000000081526004016118659061295b565b60405180910390fd5b600d60008373ffffffffffffffffffffffffffffffffffffffff1673ffffffffffffffffffffffffffffffffffffffff16815260200190815260200160002060009054906101000a900460ff16156118fb576040517f08c379a00000000000000000000000000000000000000000000000000000000081526004016118f2906129c7565b60405180910390fd5b611906838383611a83565b505050565b505050565b6119186108ce565b611957576040517f08c379a000000000000000000000000000000000000000000000000000000000815260040161194e90612a33565b60405180910390fd5b565b60006119656009611b3b565b905090565b6000808380549050036119805760009050611a1d565b600080848054905090505b808210156119d457600061199f8383611b49565b9050846119ac8783611b6f565b6000015411156119be578091506119ce565b6001816119cb919061216e565b92505b5061198b565b6000821180156119fc5750836119f6866001856119f19190612a53565b611b6f565b60000154145b15611a1757600182611a0e9190612a53565b92505050611a1d565b81925050505b92915050565b611a2b6108ce565b15611a6b576040517f08c379a0000000000000000000000000000000000000000000000000000000008152600401611a6290612ad3565b60405180910390fd5b565b6001816000016000828254019250508190555050565b611a8e838383611b91565b600073ffffffffffffffffffffffffffffffffffffffff168373ffffffffffffffffffffffffffffffffffffffff1603611ad857611acb82611b96565b611ad3611be9565b611b36565b600073ffffffffffffffffffffffffffffffffffffffff168273ffffffffffffffffffffffffffffffffffffffff1603611b2257611b1583611b96565b611b1d611be9565b611b35565b611b2b83611b96565b611b3482611b96565b5b5b505050565b600081600001549050919050565b60006002828418611b5a9190612b22565b828416611b67919061216e565b905092915050565b60008083600052826020600020019050611b8881611bfd565b91505092915050565b505050565b611be6600660008373ffffffffffffffffffffffffffffffffffffffff1673ffffffffffffffffffffffffffffffffffffffff168152602001908152602001600020611be183610905565b611c07565b50565b611bfb6007611bf66107b0565b611c07565b565b6000819050919050565b6000611c11611959565b905080611c2084600001611c82565b1015611c7d5782600001819080600181540180825580915050600190039060005260206000200160009091909190915055826001018290806001815401808255809150506001900390600052602060002001600090919091909150555b505050565b600080828054905003611c985760009050611cc9565b8160018380549050611caa9190612a53565b81548110611cbb57611cba6128e0565b5b906000526020600020015490505b919050565b600081519050919050565b600082825260208201905092915050565b60005b83811015611d08578082015181840152602081019050611ced565b60008484015250505050565b6000601f19601f8301169050919050565b6000611d3082611cce565b611d3a8185611cd9565b9350611d4a818560208601611cea565b611d5381611d14565b840191505092915050565b60006020820190508181036000830152611d788184611d25565b905092915050565b600080fd5b600073ffffffffffffffffffffffffffffffffffffffff82169050919050565b6000611db082611d85565b9050919050565b611dc081611da5565b8114611dcb57600080fd5b50565b600081359050611ddd81611db7565b92915050565b6000819050919050565b611df681611de3565b8114611e0157600080fd5b50565b600081359050611e1381611ded565b92915050565b60008060408385031215611e3057611e2f611d80565b5b6000611e3e85828601611dce565b9250506020611e4f85828601611e04565b9150509250929050565b60008115159050919050565b611e6e81611e59565b82525050565b6000602082019050611e896000830184611e65565b92915050565b600060208284031215611ea557611ea4611d80565b5b6000611eb384828501611e04565b91505092915050565b611ec581611e59565b8114611ed057600080fd5b50565b600081359050611ee281611ebc565b92915050565b60008060408385031215611eff57611efe611d80565b5b6000611f0d85828601611dce565b9250506020611f1e85828601611ed3565b9150509250929050565b611f3181611de3565b82525050565b6000602082019050611f4c6000830184611f28565b92915050565b600080600060608486031215611f6b57611f6a611d80565b5b6000611f7986828701611dce565b9350506020611f8a86828701611dce565b9250506040611f9b86828701611e04565b9150509250925092565b600060ff82169050919050565b611fbb81611fa5565b82525050565b6000602082019050611fd66000830184611fb2565b92915050565b600060208284031215611ff257611ff1611d80565b5b600061200084828501611dce565b91505092915050565b61201281611da5565b82525050565b600060208201905061202d6000830184612009565b92915050565b6000806040838503121561204a57612049611d80565b5b600061205885828601611dce565b925050602061206985828601611dce565b9150509250929050565b7f4e487b7100000000000000000000000000000000000000000000000000000000600052602260045260246000fd5b600060028204905060018216806120ba57607f821691505b6020821081036120cd576120cc612073565b5b50919050565b7f4d61782066656520312500000000000000000000000000000000000000000000600082015250565b6000612109600a83611cd9565b9150612114826120d3565b602082019050919050565b60006020820190508181036000830152612138816120fc565b9050919050565b7f4e487b7100000000000000000000000000000000000000000000000000000000600052601160045260246000fd5b600061217982611de3565b915061218483611de3565b925082820190508082111561219c5761219b61213f565b5b92915050565b7f496e76616c696420616464726573730000000000000000000000000000000000600082015250565b60006121d8600f83611cd9565b91506121e3826121a2565b602082019050919050565b60006020820190508181036000830152612207816121cb565b9050919050565b7f45524332303a2064656372656173656420616c6c6f77616e63652062656c6f7760008201527f207a65726f000000000000000000000000000000000000000000000000000000602082015250565b600061226a602583611cd9565b91506122758261220e565b604082019050919050565b600060208201905081810360008301526122998161225d565b9050919050565b7f4f776e61626c653a206e6577206f776e657220697320746865207a65726f206160008201527f6464726573730000000000000000000000000000000000000000000000000000602082015250565b60006122fc602683611cd9565b9150612307826122a0565b604082019050919050565b6000602082019050818103600083015261232b816122ef565b9050919050565b7f45524332303a20617070726f76652066726f6d20746865207a65726f2061646460008201527f7265737300000000000000000000000000000000000000000000000000000000602082015250565b600061238e602483611cd9565b915061239982612332565b604082019050919050565b600060208201905081810360008301526123bd81612381565b9050919050565b7f45524332303a20617070726f766520746f20746865207a65726f20616464726560008201527f7373000000000000000000000000000000000000000000000000000000000000602082015250565b6000612420602283611cd9565b915061242b826123c4565b604082019050919050565b6000602082019050818103600083015261244f81612413565b9050919050565b7f4f776e61626c653a2063616c6c6572206973206e6f7420746865206f776e6572600082015250565b600061248c602083611cd9565b915061249782612456565b602082019050919050565b600060208201905081810360008301526124bb8161247f565b9050919050565b7f45524332303a20696e73756666696369656e7420616c6c6f77616e6365000000600082015250565b60006124f8601d83611cd9565b9150612503826124c2565b602082019050919050565b60006020820190508181036000830152612527816124eb565b9050919050565b7f45524332303a207472616e736665722066726f6d20746865207a65726f20616460008201527f6472657373000000000000000000000000000000000000000000000000000000602082015250565b600061258a602583611cd9565b91506125958261252e565b604082019050919050565b600060208201905081810360008301526125b98161257d565b9050919050565b7f45524332303a207472616e7366657220746f20746865207a65726f206164647260008201527f6573730000000000000000000000000000000000000000000000000000000000602082015250565b600061261c602383611cd9565b9150612627826125c0565b604082019050919050565b6000602082019050818103600083015261264b8161260f565b9050919050565b7f45524332303a207472616e7366657220616d6f756e742065786365656473206260008201527f616c616e63650000000000000000000000000000000000000000000000000000602082015250565b60006126ae602683611cd9565b91506126b982612652565b604082019050919050565b600060208201905081810360008301526126dd816126a1565b9050919050565b7f45524332303a206275726e2066726f6d20746865207a65726f2061646472657360008201527f7300000000000000000000000000000000000000000000000000000000000000602082015250565b6000612740602183611cd9565b915061274b826126e4565b604082019050919050565b6000602082019050818103600083015261276f81612733565b9050919050565b7f45524332303a206275726e20616d6f756e7420657863656564732062616c616e60008201527f6365000000000000000000000000000000000000000000000000000000000000602082015250565b60006127d2602283611cd9565b91506127dd82612776565b604082019050919050565b60006020820190508181036000830152612801816127c5565b9050919050565b7f4552433230536e617073686f743a206964206973203000000000000000000000600082015250565b600061283e601683611cd9565b915061284982612808565b602082019050919050565b6000602082019050818103600083015261286d81612831565b9050919050565b7f4552433230536e617073686f743a206e6f6e6578697374656e74206964000000600082015250565b60006128aa601d83611cd9565b91506128b582612874565b602082019050919050565b600060208201905081810360008301526128d98161289d565b9050919050565b7f4e487b7100000000000000000000000000000000000000000000000000000000600052603260045260246000fd5b7f53656e64657220626c61636b6c69737465640000000000000000000000000000600082015250565b6000612945601283611cd9565b91506129508261290f565b602082019050919050565b6000602082019050818103600083015261297481612938565b9050919050565b7f526563697069656e7420626c61636b6c69737465640000000000000000000000600082015250565b60006129b1601583611cd9565b91506129bc8261297b565b602082019050919050565b600060208201905081810360008301526129e0816129a4565b9050919050565b7f5061757361626c653a206e6f7420706175736564000000000000000000000000600082015250565b6000612a1d601483611cd9565b9150612a28826129e7565b602082019050919050565b60006020820190508181036000830152612a4c81612a10565b9050919050565b6000612a5e82611de3565b9150612a6983611de3565b9250828203905081811115612a8157612a8061213f565b5b92915050565b7f5061757361626c653a2070617573656400000000000000000000000000000000600082015250565b6000612abd601083611cd9565b9150612ac882612a87565b602082019050919050565b60006020820190508181036000830152612aec81612ab0565b9050919050565b7f4e487b7100000000000000000000000000000000000000000000000000000000600052601260045260246000fd5b6000612b2d82611de3565b9150612b3883611de3565b925082612b4857612b47612af3565b5b82820490509291505056fea2646970667358221220c4432ced4eb8934243333a3deb9b0b1fe189bb2fec71f16f6663d7ff317e10b664736f6c63430008180033",
  "linkReferences": {},
  "deployedLinkReferences": {}
}