{
  "_format": "hh-sol-artifact-1",
  "contractName": "EComToken",
  "sourceName": "contracts/EComToken.sol",
  "abi": [
    {
      "inputs": [
        {
          "internalType": "address",
          "name": "initialOwner",
          "type": "address"
        }
      ],
      "stateMutability": "nonpayable",
      "type": "constructor"
    },
    {
      "anonymous": false,
      "inputs": [
        {
          "indexed": true,
          "internalType": "address",
          "name": "owner",
          "type": "address"
        },
        {
          "indexed": true,
          "internalType": "address",
          "name": "spender",
          "type": "address"
        },
        {
          "indexed": false,
          "internalType": "uint256",
          "name": "value",
          "type": "uint256"
        }
      ],
      "name": "Approval",
      "type": "event"
    },
    {
      "anonymous": false,
      "inputs": [
        {
          "indexed": true,
          "internalType": "address",
          "name": "account",
          "type": "address"
        },
        {
          "indexed": false,
          "internalType": "bool",
          "name": "status",
          "type": "bool"
        }
      ],
      "name": "BlacklistUpdated",
      "type": "event"
    },
    {
      "anonymous": false,
      "inputs": [
        {
          "indexed": true,
          "internalType": "address",
          "name": "from",
          "type": "address"
        },
        {
          "indexed": false,
          "internalType": "uint256",
          "name": "amount",
          "type": "uint256"
        }
      ],
      "name": "FeesCollected",
      "type": "event"
    },
    {
      "anonymous": false,
      "inputs": [
        {
          "indexed": true,
          "internalType": "address",
          "name": "merchant",
          "type": "address"
        }
      ],
      "name": "MerchantWhitelisted",
      "type": "event"
    },
    {
      "anonymous": false,
      "inputs": [
        {
          "indexed": true,
          "internalType": "address",
          "name": "previousOwner",
          "type": "address"
        },
        {
          "indexed": true,
          "internalType": "address",
          "name": "newOwner",
          "type": "address"
        }
      ],
      "name": "OwnershipTransferred",
      "type": "event"
    },
    {
      "anonymous": false,
      "inputs": [
        {
          "indexed": false,
          "internalType": "address",
          "name": "account",
          "type": "address"
        }
      ],
      "name": "Paused",
      "type": "event"
    },
    {
      "anonymous": false,
      "inputs": [
        {
          "indexed": false,
          "internalType": "uint256",
          "name": "id",
          "type": "uint256"
        }
      ],
      "name": "Snapshot",
      "type": "event"
    },
    {
      "anonymous": false,
      "inputs": [
        {
          "indexed": true,
          "internalType": "address",
          "name": "from",
          "type": "address"
        },
        {
          "indexed": true,
          "internalType": "address",
          "name": "to",
          "type": "address"
        },
        {
          "indexed": false,
          "internalType": "uint256",
          "name": "value",
          "type": "uint256"
        }
      ],
      "name": "Transfer",
      "type": "event"
    },
    {
      "anonymous": false,
      "inputs": [
        {
          "indexed": false,
          "internalType": "address",
          "name": "account",
          "type": "address"
        }
      ],
      "name": "Unpaused",
      "type": "event"
    },
    {
      "inputs": [],
      "name": "MAX_SUPPLY",
      "outputs": [
        {
          "internalType": "uint256",
          "name": "",
          "type": "uint256"
        }
      ],
      "stateMutability": "view",
      "type": "function"
    },
    {
      "inputs": [
        {
          "internalType": "address",
          "name": "owner",
          "type": "address"
        },
        {
          "internalType": "address",
          "name": "spender",
          "type": "address"
        }
      ],
      "name": "allowance",
      "outputs": [
        {
          "internalType": "uint256",
          "name": "",
          "type": "uint256"
        }
      ],
      "stateMutability": "view",
      "type": "function"
    },
    {
      "inputs": [
        {
          "internalType": "address",
          "name": "spender",
          "type": "address"
        },
        {
          "internalType": "uint256",
          "name": "amount",
          "type": "uint256"
        }
      ],
      "name": "approve",
      "outputs": [
        {
          "internalType": "bool",
          "name": "",
          "type": "bool"
        }
      ],
      "stateMutability": "nonpayable",
      "type": "function"
    },
    {
      "inputs": [
        {
          "internalType": "address",
          "name": "account",
          "type": "address"
        }
      ],
      "name": "balanceOf",
      "outputs": [
        {
          "internalType": "uint256",
          "name": "",
          "type": "uint256"
        }
      ],
      "stateMutability": "view",
      "type": "function"
    },
    {
      "inputs": [
        {
          "internalType": "address",
          "name": "account",
          "type": "address"
        },
        {
          "internalType": "uint256",
          "name": "snapshotId",
          "type": "uint256"
        }
      ],
      "name": "balanceOfAt",
      "outputs": [
        {
          "internalType": "uint256",
          "name": "",
          "type": "uint256"
        }
      ],
      "stateMutability": "view",
      "type": "function"
    },
    {
      "inputs": [
        {
          "internalType": "address",
          "name": "",
          "type": "address"
        }
      ],
      "name": "blacklisted",
      "outputs": [
        {
          "internalType": "bool",
          "name": "",
          "type": "bool"
        }
      ],
      "stateMutability": "view",
      "type": "function"
    },
    {
      "inputs": [
        {
          "internalType": "uint256",
          "name": "amount",
          "type": "uint256"
        }
      ],
      "name": "burn",
      "outputs": [],
      "stateMutability": "nonpayable",
      "type": "function"
    },
    {
      "inputs": [
        {
          "internalType": "address",
          "name": "account",
          "type": "address"
        },
        {
          "internalType": "uint256",
          "name": "amount",
          "type": "uint256"
        }
      ],
      "name": "burnFrom",
      "outputs": [],
      "stateMutability": "nonpayable",
      "type": "function"
    },
    {
      "inputs": [],
      "name": "decimals",
      "outputs": [
        {
          "internalType": "uint8",
          "name": "",
          "type": "uint8"
        }
      ],
      "stateMutability": "pure",
      "type": "function"
    },
    {
      "inputs": [
        {
          "internalType": "address",
          "name": "spender",
          "type": "address"
        },
        {
          "internalType": "uint256",
          "name": "subtractedValue",
          "type": "uint256"
        }
      ],
      "name": "decreaseAllowance",
      "outputs": [
        {
          "internalType": "bool",
          "name": "",
          "type": "bool"
        }
      ],
      "stateMutability": "nonpayable",
      "type": "function"
    },
    {
      "inputs": [],
      "name": "feeCollector",
      "outputs": [
        {
          "internalType": "address",
          "name": "",
          "type": "address"
        }
      ],
      "stateMutability": "view",
      "type": "function"
    },
    {
      "inputs": [
        {
          "internalType": "address",
          "name": "spender",
          "type": "address"
        },
        {
          "internalType": "uint256",
          "name": "addedValue",
          "type": "uint256"
        }
      ],
      "name": "increaseAllowance",
      "outputs": [
        {
          "internalType": "bool",
          "name": "",
          "type": "bool"
        }
      ],
      "stateMutability": "nonpayable",
      "type": "function"
    },
    {
      "inputs": [],
      "name": "name",
      "outputs": [
        {
          "internalType": "string",
          "name": "",
          "type": "string"
        }
      ],
      "stateMutability": "view",
      "type": "function"
    },
    {
      "inputs": [],
      "name": "owner",
      "outputs": [
        {
          "internalType": "address",
          "name": "",
          "type": "address"
        }
      ],
      "stateMutability": "view",
      "type": "function"
    },
    {
      "inputs": [],
      "name": "pause",
      "outputs": [],
      "stateMutability": "nonpayable",
      "type": "function"
    },
    {
      "inputs": [],
      "name": "paused",
      "outputs": [
        {
          "internalType": "bool",
          "name": "",
          "type": "bool"
        }
      ],
      "stateMutability": "view",
      "type": "function"
    },
    {
      "inputs": [
        {
          "internalType": "address",
          "name": "merchant",
          "type": "address"
        }
      ],
      "name": "removeFromWhitelist",
      "outputs": [],
      "stateMutability": "nonpayable",
      "type": "function"
    },
    {
      "inputs": [],
      "name": "renounceOwnership",
      "outputs": [],
      "stateMutability": "nonpayable",
      "type": "function"
    },
    {
      "inputs": [
        {
          "internalType": "address",
          "name": "account",
          "type": "address"
        },
        {
          "internalType": "bool",
          "name": "status",
          "type": "bool"
        }
      ],
      "name": "setBlacklist",
      "outputs": [],
      "stateMutability": "nonpayable",
      "type": "function"
    },
    {
      "inputs": [
        {
          "internalType": "address",
          "name": "newCollector",
          "type": "address"
        }
      ],
      "name": "setFeeCollector",
      "outputs": [],
      "stateMutability": "nonpayable",
      "type": "function"
    },
    {
      "inputs": [
        {
          "internalType": "uint256",
          "name": "newFee",
          "type": "uint256"
        }
      ],
      "name": "setTransactionFee",
      "outputs": [],
      "stateMutability": "nonpayable",
      "type": "function"
    },
    {
      "inputs": [],
      "name": "snapshot",
      "outputs": [],
      "stateMutability": "nonpayable",
      "type": "function"
    },
    {
      "inputs": [],
      "name": "symbol",
      "outputs": [
        {
          "internalType": "string",
          "name": "",
          "type": "string"
        }
      ],
      "stateMutability": "view",
      "type": "function"
    },
    {
      "inputs": [],
      "name": "totalSupply",
      "outputs": [
        {
          "internalType": "uint256",
          "name": "",
          "type": "uint256"
        }
      ],
      "stateMutability": "view",
      "type": "function"
    },
    {
      "inputs": [
        {
          "internalType": "uint256",
          "name": "snapshotId",
          "type": "uint256"
        }
      ],
      "name": "totalSupplyAt",
      "outputs": [
        {
          "internalType": "uint256",
          "name": "",
          "type": "uint256"
        }
      ],
      "stateMutability": "view",
      "type": "function"
    },
    {
      "inputs": [],
      "name": "transactionFee",
      "outputs": [
        {
          "internalType": "uint256",
          "name": "",
          "type": "uint256"
        }
      ],
      "stateMutability": "view",
      "type": "function"
    },
    {
      "inputs": [
        {
          "internalType": "address",
          "name": "to",
          "type": "address"
        },
        {
          "internalType": "uint256",
          "name": "amount",
          "type": "uint256"
        }
      ],
      "name": "transfer",
      "outputs": [
        {
          "internalType": "bool",
          "name": "",
          "type": "bool"
        }
      ],
      "stateMutability": "nonpayable",
      "type": "function"
    },
    {
      "inputs": [
        {
          "internalType": "address",
          "name": "from",
          "type": "address"
        },
        {
          "internalType": "address",
          "name": "to",
          "type": "address"
        },
        {
          "internalType": "uint256",
          "name": "amount",
          "type": "uint256"
        }
      ],
      "name": "transferFrom",
      "outputs": [
        {
          "internalType": "bool",
          "name": "",
          "type": "bool"
        }
      ],
      "stateMutability": "nonpayable",
      "type": "function"
    },
    {
      "inputs": [
        {
          "internalType": "address",
          "name": "newOwner",
          "type": "address"
        }
      ],
      "name": "transferOwnership",
      "outputs": [],
      "stateMutability": "nonpayable",
      "type": "function"
    },
    {
      "inputs": [],
      "name": "unpause",
      "outputs": [],
      "stateMutability": "nonpayable",
      "type": "function"
    },
    {
      "inputs": [
        {
          "internalType": "address",
          "name": "merchant",
          "type": "address"
        }
      ],
      "name": "whitelistMerchant",
      "outputs": [],
      "stateMutability": "nonpayable",
      "type": "function"
    },
    {
      "inputs": [
        {
          "internalType": "address",
          "name": "",
          "type": "address"
        }
      ],
      "name": "whitelistedMerchants",
      "outputs": [
        {
          "internalType": "bool",
          "name": "",
          "type": "bool"
        }
      ],
      "stateMutability": "view",
      "type": "function"
    }
  ],
  "bytecode": "0x60806040526019600a553480156200001657600080fd5b50604051620042193803806200421983398181016040528101906200003c919062000ae3565b6040518060400160405280601681526020017f45436f6d6d6572636520476c6f62616c20546f6b656e000000000000000000008152506040518060400160405280600481526020017f45434f4d000000000000000000000000000000000000000000000000000000008152508160039081620000b9919062000d8f565b508060049081620000cb919062000d8f565b505050620000ee620000e26200017f60201b60201c565b6200018760201b60201c565b6000600560146101000a81548160ff02191690831515021790555080600b60006101000a81548173ffffffffffffffffffffffffffffffffffffffff021916908373ffffffffffffffffffffffffffffffffffffffff16021790555062000167816a52b7d2dcc80cd2e40000006200024d60201b60201c565b6200017881620003ba60201b60201c565b506200125b565b600033905090565b6000600560009054906101000a900473ffffffffffffffffffffffffffffffffffffffff16905081600560006101000a81548173ffffffffffffffffffffffffffffffffffffffff021916908373ffffffffffffffffffffffffffffffffffffffff1602179055508173ffffffffffffffffffffffffffffffffffffffff168173ffffffffffffffffffffffffffffffffffffffff167f8be0079c531659141344cd1fd0a4f28419497f9722a3daafe3b4186f6b6457e060405160405180910390a35050565b600073ffffffffffffffffffffffffffffffffffffffff168273ffffffffffffffffffffffffffffffffffffffff1603620002bf576040517f08c379a0000000000000000000000000000000000000000000000000000000008152600401620002b69062000ed7565b60405180910390fd5b620002d3600083836200045060201b60201c565b8060026000828254620002e7919062000f28565b92505081905550806000808473ffffffffffffffffffffffffffffffffffffffff1673ffffffffffffffffffffffffffffffffffffffff168152602001908152602001600020600082825401925050819055508173ffffffffffffffffffffffffffffffffffffffff16600073ffffffffffffffffffffffffffffffffffffffff167fddf252ad1be2c89b69c2b068fc378daa952ba7f163c4a11628f55a4df523b3ef836040516200039a919062000f74565b60405180910390a3620003b6600083836200067560201b60201c565b5050565b620003ca6200067a60201b60201c565b600073ffffffffffffffffffffffffffffffffffffffff168173ffffffffffffffffffffffffffffffffffffffff16036200043c576040517f08c379a0000000000000000000000000000000000000000000000000000000008152600401620004339062001007565b60405180910390fd5b6200044d816200018760201b60201c565b50565b620004606200070b60201b60201c565b600073ffffffffffffffffffffffffffffffffffffffff168373ffffffffffffffffffffffffffffffffffffffff1614158015620004cb5750600073ffffffffffffffffffffffffffffffffffffffff168273ffffffffffffffffffffffffffffffffffffffff1614155b6200065d57600073ffffffffffffffffffffffffffffffffffffffff168373ffffffffffffffffffffffffffffffffffffffff16146200059657600d60008473ffffffffffffffffffffffffffffffffffffffff1673ffffffffffffffffffffffffffffffffffffffff16815260200190815260200160002060009054906101000a900460ff161562000595576040517f08c379a00000000000000000000000000000000000000000000000000000000081526004016200058c9062001079565b60405180910390fd5b5b600073ffffffffffffffffffffffffffffffffffffffff168273ffffffffffffffffffffffffffffffffffffffff16146200065c57600d60008373ffffffffffffffffffffffffffffffffffffffff1673ffffffffffffffffffffffffffffffffffffffff16815260200190815260200160002060009054906101000a900460ff16156200065b576040517f08c379a00000000000000000000000000000000000000000000000000000000081526004016200065290620010eb565b60405180910390fd5b5b5b620006708383836200076060201b60201c565b505050565b505050565b6200068a6200017f60201b60201c565b73ffffffffffffffffffffffffffffffffffffffff16620006b06200085460201b60201c565b73ffffffffffffffffffffffffffffffffffffffff161462000709576040517f08c379a000000000000000000000000000000000000000000000000000000000815260040162000700906200115d565b60405180910390fd5b565b6200071b6200087e60201b60201c565b156200075e576040517f08c379a00000000000000000000000000000000000000000000000000000000081526004016200075590620011cf565b60405180910390fd5b565b620007738383836200089560201b60201c565b600073ffffffffffffffffffffffffffffffffffffffff168373ffffffffffffffffffffffffffffffffffffffff1603620007cf57620007b9826200089a60201b60201c565b620007c9620008fd60201b60201c565b6200084f565b600073ffffffffffffffffffffffffffffffffffffffff168273ffffffffffffffffffffffffffffffffffffffff16036200082b5762000815836200089a60201b60201c565b62000825620008fd60201b60201c565b6200084e565b6200083c836200089a60201b60201c565b6200084d826200089a60201b60201c565b5b5b505050565b6000600560009054906101000a900473ffffffffffffffffffffffffffffffffffffffff16905090565b6000600560149054906101000a900460ff16905090565b505050565b620008fa600660008373ffffffffffffffffffffffffffffffffffffffff1673ffffffffffffffffffffffffffffffffffffffff168152602001908152602001600020620008ee836200092160201b60201c565b6200096960201b60201c565b50565b6200091f600762000913620009f560201b60201c565b6200096960201b60201c565b565b60008060008373ffffffffffffffffffffffffffffffffffffffff1673ffffffffffffffffffffffffffffffffffffffff168152602001908152602001600020549050919050565b60006200097b620009ff60201b60201c565b905080620009928460000162000a1860201b60201c565b1015620009f05782600001819080600181540180825580915050600190039060005260206000200160009091909190915055826001018290806001815401808255809150506001900390600052602060002001600090919091909150555b505050565b6000600254905090565b600062000a13600962000a6b60201b60201c565b905090565b60008082805490500362000a30576000905062000a66565b816001838054905062000a449190620011f1565b8154811062000a585762000a576200122c565b5b906000526020600020015490505b919050565b600081600001549050919050565b600080fd5b600073ffffffffffffffffffffffffffffffffffffffff82169050919050565b600062000aab8262000a7e565b9050919050565b62000abd8162000a9e565b811462000ac957600080fd5b50565b60008151905062000add8162000ab2565b92915050565b60006020828403121562000afc5762000afb62000a79565b5b600062000b0c8482850162000acc565b91505092915050565b600081519050919050565b7f4e487b7100000000000000000000000000000000000000000000000000000000600052604160045260246000fd5b7f4e487b7100000000000000000000000000000000000000000000000000000000600052602260045260246000fd5b6000600282049050600182168062000b9757607f821691505b60208210810362000bad5762000bac62000b4f565b5b50919050565b60008190508160005260206000209050919050565b60006020601f8301049050919050565b600082821b905092915050565b60006008830262000c177fffffffffffffffffffffffffffffffffffffffffffffffffffffffffffffffff8262000bd8565b62000c23868362000bd8565b95508019841693508086168417925050509392505050565b6000819050919050565b6000819050919050565b600062000c7062000c6a62000c648462000c3b565b62000c45565b62000c3b565b9050919050565b6000819050919050565b62000c8c8362000c4f565b62000ca462000c9b8262000c77565b84845462000be5565b825550505050565b600090565b62000cbb62000cac565b62000cc881848462000c81565b505050565b5b8181101562000cf05762000ce460008262000cb1565b60018101905062000cce565b5050565b601f82111562000d3f5762000d098162000bb3565b62000d148462000bc8565b8101602085101562000d24578190505b62000d3c62000d338562000bc8565b83018262000ccd565b50505b505050565b600082821c905092915050565b600062000d646000198460080262000d44565b1980831691505092915050565b600062000d7f838362000d51565b9150826002028217905092915050565b62000d9a8262000b15565b67ffffffffffffffff81111562000db65762000db562000b20565b5b62000dc2825462000b7e565b62000dcf82828562000cf4565b600060209050601f83116001811462000e07576000841562000df2578287015190505b62000dfe858262000d71565b86555062000e6e565b601f19841662000e178662000bb3565b60005b8281101562000e415784890151825560018201915060208501945060208101905062000e1a565b8683101562000e61578489015162000e5d601f89168262000d51565b8355505b6001600288020188555050505b505050505050565b600082825260208201905092915050565b7f45524332303a206d696e7420746f20746865207a65726f206164647265737300600082015250565b600062000ebf601f8362000e76565b915062000ecc8262000e87565b602082019050919050565b6000602082019050818103600083015262000ef28162000eb0565b9050919050565b7f4e487b7100000000000000000000000000000000000000000000000000000000600052601160045260246000fd5b600062000f358262000c3b565b915062000f428362000c3b565b925082820190508082111562000f5d5762000f5c62000ef9565b5b92915050565b62000f6e8162000c3b565b82525050565b600060208201905062000f8b600083018462000f63565b92915050565b7f4f776e61626c653a206e6577206f776e657220697320746865207a65726f206160008201527f6464726573730000000000000000000000000000000000000000000000000000602082015250565b600062000fef60268362000e76565b915062000ffc8262000f91565b604082019050919050565b60006020820190508181036000830152620010228162000fe0565b9050919050565b7f53656e64657220626c61636b6c69737465640000000000000000000000000000600082015250565b60006200106160128362000e76565b91506200106e8262001029565b602082019050919050565b60006020820190508181036000830152620010948162001052565b9050919050565b7f526563697069656e7420626c61636b6c69737465640000000000000000000000600082015250565b6000620010d360158362000e76565b9150620010e0826200109b565b602082019050919050565b600060208201905081810360008301526200110681620010c4565b9050919050565b7f4f776e61626c653a2063616c6c6572206973206e6f7420746865206f776e6572600082015250565b60006200114560208362000e76565b915062001152826200110d565b602082019050919050565b60006020820190508181036000830152620011788162001136565b9050919050565b7f5061757361626c653a2070617573656400000000000000000000000000000000600082015250565b6000620011b760108362000e76565b9150620011c4826200117f565b602082019050919050565b60006020820190508181036000830152620011ea81620011a8565b9050919050565b6000620011fe8262000c3b565b91506200120b8362000c3b565b925082820390508181111562001226576200122562000ef9565b5b92915050565b7f4e487b7100000000000000000000000000000000000000000000000000000000600052603260045260246000fd5b612fae806200126b6000396000f3fe608060405234801561001057600080fd5b50600436106101f05760003560e01c806379cc67901161010f578063a42dce80116100a2578063c8cbc22011610071578063c8cbc22014610583578063dbac26e91461059f578063dd62ed3e146105cf578063f2fde38b146105ff576101f0565b8063a42dce80146104e9578063a457c2d714610505578063a9059cbb14610535578063c415b95c14610565576101f0565b806395d89b41116100de57806395d89b41146104735780639711715a14610491578063981b24d01461049b5780639ed3edf0146104cb576101f0565b806379cc6790146104135780638456cb591461042f5780638ab1d681146104395780638da5cb5b14610455576101f0565b806339509351116101875780635c975abb116101565780635c975abb1461038b5780636915b1fb146103a957806370a08231146103d9578063715018a614610409576101f0565b806339509351146103055780633f4ba83a1461033557806342966c681461033f5780634ee2cd7e1461035b576101f0565b806318160ddd116101c357806318160ddd1461027b57806323b872dd14610299578063313ce567146102c957806332cb6b0c146102e7576101f0565b806306fdde03146101f5578063095ea7b314610213578063096a8ab714610243578063153b0d1e1461025f575b600080fd5b6101fd61061b565b60405161020a9190612141565b60405180910390f35b61022d600480360381019061022891906121fc565b6106ad565b60405161023a9190612257565b60405180910390f35b61025d60048036038101906102589190612272565b6106d0565b005b610279600480360381019061027491906122cb565b610726565b005b6102836107d7565b604051610290919061231a565b60405180910390f35b6102b360048036038101906102ae9190612335565b6107e1565b6040516102c09190612257565b60405180910390f35b6102d1610810565b6040516102de91906123a4565b60405180910390f35b6102ef610819565b6040516102fc919061231a565b60405180910390f35b61031f600480360381019061031a91906121fc565b610828565b60405161032c9190612257565b60405180910390f35b61033d61085f565b005b61035960048036038101906103549190612272565b610871565b005b610375600480360381019061037091906121fc565b610885565b604051610382919061231a565b60405180910390f35b6103936108f5565b6040516103a09190612257565b60405180910390f35b6103c360048036038101906103be91906123bf565b61090c565b6040516103d09190612257565b60405180910390f35b6103f360048036038101906103ee91906123bf565b61092c565b604051610400919061231a565b60405180910390f35b610411610974565b005b61042d600480360381019061042891906121fc565b610988565b005b6104376109a8565b005b610453600480360381019061044e91906123bf565b6109ba565b005b61045d610a60565b60405161046a91906123fb565b60405180910390f35b61047b610a8a565b6040516104889190612141565b60405180910390f35b610499610b1c565b005b6104b560048036038101906104b09190612272565b610b2f565b6040516104c2919061231a565b60405180910390f35b6104d3610b60565b6040516104e0919061231a565b60405180910390f35b61050360048036038101906104fe91906123bf565b610b66565b005b61051f600480360381019061051a91906121fc565b610c21565b60405161052c9190612257565b60405180910390f35b61054f600480360381019061054a91906121fc565b610c98565b60405161055c9190612257565b60405180910390f35b61056d610cb6565b60405161057a91906123fb565b60405180910390f35b61059d600480360381019061059891906123bf565b610cdc565b005b6105b960048036038101906105b491906123bf565b610d82565b6040516105c69190612257565b60405180910390f35b6105e960048036038101906105e49190612416565b610da2565b6040516105f6919061231a565b60405180910390f35b610619600480360381019061061491906123bf565b610e29565b005b60606003805461062a90612485565b80601f016020809104026020016040519081016040528092919081815260200182805461065690612485565b80156106a35780601f10610678576101008083540402835291602001916106a3565b820191906000526020600020905b81548152906001019060200180831161068657829003601f168201915b5050505050905090565b6000806106b8610eac565b90506106c5818585610eb4565b600191505092915050565b6106d861107d565b606481111561071c576040517f08c379a000000000000000000000000000000000000000000000000000000000815260040161071390612502565b60405180910390fd5b80600a8190555050565b61072e61107d565b80600d60008473ffffffffffffffffffffffffffffffffffffffff1673ffffffffffffffffffffffffffffffffffffffff16815260200190815260200160002060006101000a81548160ff0219169083151502179055508173ffffffffffffffffffffffffffffffffffffffff167f6a12b3df6cba4203bd7fd06b816789f87de8c594299aed5717ae070fac781bac826040516107cb9190612257565b60405180910390a25050565b6000600254905090565b6000806107ec610eac565b90506107f98582856110fb565b610804858585611187565b60019150509392505050565b60006012905090565b6a52b7d2dcc80cd2e400000081565b600080610833610eac565b90506108548185856108458589610da2565b61084f9190612551565b610eb4565b600191505092915050565b61086761107d565b61086f6113c9565b565b61088261087c610eac565b8261142c565b50565b60008060006108d284600660008873ffffffffffffffffffffffffffffffffffffffff1673ffffffffffffffffffffffffffffffffffffffff1681526020019081526020016000206115f9565b91509150816108e9576108e48561092c565b6108eb565b805b9250505092915050565b6000600560149054906101000a900460ff16905090565b600c6020528060005260406000206000915054906101000a900460ff1681565b60008060008373ffffffffffffffffffffffffffffffffffffffff1673ffffffffffffffffffffffffffffffffffffffff168152602001908152602001600020549050919050565b61097c61107d565b61098660006116ee565b565b61099a82610994610eac565b836110fb565b6109a4828261142c565b5050565b6109b061107d565b6109b86117b4565b565b6109c261107d565b6000600c60008373ffffffffffffffffffffffffffffffffffffffff1673ffffffffffffffffffffffffffffffffffffffff16815260200190815260200160002060006101000a81548160ff0219169083151502179055508073ffffffffffffffffffffffffffffffffffffffff167fbe7a3d8765318b42e4754e52b6fb5654b6ed0582cb0f3f185965184b0fd98f8a60405160405180910390a250565b6000600560009054906101000a900473ffffffffffffffffffffffffffffffffffffffff16905090565b606060048054610a9990612485565b80601f0160208091040260200160405190810160405280929190818152602001828054610ac590612485565b8015610b125780601f10610ae757610100808354040283529160200191610b12565b820191906000526020600020905b815481529060010190602001808311610af557829003601f168201915b5050505050905090565b610b2461107d565b610b2c611817565b50565b6000806000610b3f8460076115f9565b9150915081610b5557610b506107d7565b610b57565b805b92505050919050565b600a5481565b610b6e61107d565b600073ffffffffffffffffffffffffffffffffffffffff168173ffffffffffffffffffffffffffffffffffffffff1603610bdd576040517f08c379a0000000000000000000000000000000000000000000000000000000008152600401610bd4906125d1565b60405180910390fd5b80600b60006101000a81548173ffffffffffffffffffffffffffffffffffffffff021916908373ffffffffffffffffffffffffffffffffffffffff16021790555050565b600080610c2c610eac565b90506000610c3a8286610da2565b905083811015610c7f576040517f08c379a0000000000000000000000000000000000000000000000000000000008152600401610c7690612663565b60405180910390fd5b610c8c8286868403610eb4565b60019250505092915050565b6000610cac610ca5610eac565b8484611187565b6001905092915050565b600b60009054906101000a900473ffffffffffffffffffffffffffffffffffffffff1681565b610ce461107d565b6001600c60008373ffffffffffffffffffffffffffffffffffffffff1673ffffffffffffffffffffffffffffffffffffffff16815260200190815260200160002060006101000a81548160ff0219169083151502179055508073ffffffffffffffffffffffffffffffffffffffff167fbe7a3d8765318b42e4754e52b6fb5654b6ed0582cb0f3f185965184b0fd98f8a60405160405180910390a250565b600d6020528060005260406000206000915054906101000a900460ff1681565b6000600160008473ffffffffffffffffffffffffffffffffffffffff1673ffffffffffffffffffffffffffffffffffffffff16815260200190815260200160002060008373ffffffffffffffffffffffffffffffffffffffff1673ffffffffffffffffffffffffffffffffffffffff16815260200190815260200160002054905092915050565b610e3161107d565b600073ffffffffffffffffffffffffffffffffffffffff168173ffffffffffffffffffffffffffffffffffffffff1603610ea0576040517f08c379a0000000000000000000000000000000000000000000000000000000008152600401610e97906126f5565b60405180910390fd5b610ea9816116ee565b50565b600033905090565b600073ffffffffffffffffffffffffffffffffffffffff168373ffffffffffffffffffffffffffffffffffffffff1603610f23576040517f08c379a0000000000000000000000000000000000000000000000000000000008152600401610f1a90612787565b60405180910390fd5b600073ffffffffffffffffffffffffffffffffffffffff168273ffffffffffffffffffffffffffffffffffffffff1603610f92576040517f08c379a0000000000000000000000000000000000000000000000000000000008152600401610f8990612819565b60405180910390fd5b80600160008573ffffffffffffffffffffffffffffffffffffffff1673ffffffffffffffffffffffffffffffffffffffff16815260200190815260200160002060008473ffffffffffffffffffffffffffffffffffffffff1673ffffffffffffffffffffffffffffffffffffffff168152602001908152602001600020819055508173ffffffffffffffffffffffffffffffffffffffff168373ffffffffffffffffffffffffffffffffffffffff167f8c5be1e5ebec7d5bd14f71427d1e84f3dd0314c0f7b2291e5b200ac8c7c3b92583604051611070919061231a565b60405180910390a3505050565b611085610eac565b73ffffffffffffffffffffffffffffffffffffffff166110a3610a60565b73ffffffffffffffffffffffffffffffffffffffff16146110f9576040517f08c379a00000000000000000000000000000000000000000000000000000000081526004016110f090612885565b60405180910390fd5b565b60006111078484610da2565b90507fffffffffffffffffffffffffffffffffffffffffffffffffffffffffffffffff81146111815781811015611173576040517f08c379a000000000000000000000000000000000000000000000000000000000815260040161116a906128f1565b60405180910390fd5b6111808484848403610eb4565b5b50505050565b600d60008473ffffffffffffffffffffffffffffffffffffffff1673ffffffffffffffffffffffffffffffffffffffff16815260200190815260200160002060009054906101000a900460ff1615611214576040517f08c379a000000000000000000000000000000000000000000000000000000000815260040161120b9061295d565b60405180910390fd5b600d60008373ffffffffffffffffffffffffffffffffffffffff1673ffffffffffffffffffffffffffffffffffffffff16815260200190815260200160002060009054906101000a900460ff16156112a1576040517f08c379a0000000000000000000000000000000000000000000000000000000008152600401611298906129c9565b60405180910390fd5b6000600a541180156112fd5750600c60008473ffffffffffffffffffffffffffffffffffffffff1673ffffffffffffffffffffffffffffffffffffffff16815260200190815260200160002060009054906101000a900460ff16155b156113b8576000612710600a548361131591906129e9565b61131f9190612a5a565b905061134e84600b60009054906101000a900473ffffffffffffffffffffffffffffffffffffffff168361186d565b8373ffffffffffffffffffffffffffffffffffffffff167f9dc46f23cfb5ddcad0ae7ea2be38d47fec07bb9382ec7e564efc69e036dd66ce82604051611394919061231a565b60405180910390a26113b2848483856113ad9190612a8b565b61186d565b506113c4565b6113c383838361186d565b5b505050565b6113d1611ae3565b6000600560146101000a81548160ff0219169083151502179055507f5db9ee0a495bf2e6ff9c91a7834c1ba4fdd244a5e8aa4e537bd38aeae4b073aa611415610eac565b60405161142291906123fb565b60405180910390a1565b600073ffffffffffffffffffffffffffffffffffffffff168273ffffffffffffffffffffffffffffffffffffffff160361149b576040517f08c379a000000000000000000000000000000000000000000000000000000000815260040161149290612b31565b60405180910390fd5b6114a782600083611b2c565b60008060008473ffffffffffffffffffffffffffffffffffffffff1673ffffffffffffffffffffffffffffffffffffffff1681526020019081526020016000205490508181101561152d576040517f08c379a000000000000000000000000000000000000000000000000000000000815260040161152490612bc3565b60405180910390fd5b8181036000808573ffffffffffffffffffffffffffffffffffffffff1673ffffffffffffffffffffffffffffffffffffffff1681526020019081526020016000208190555081600260008282540392505081905550600073ffffffffffffffffffffffffffffffffffffffff168373ffffffffffffffffffffffffffffffffffffffff167fddf252ad1be2c89b69c2b068fc378daa952ba7f163c4a11628f55a4df523b3ef846040516115e0919061231a565b60405180910390a36115f483600084611d37565b505050565b6000806000841161163f576040517f08c379a000000000000000000000000000000000000000000000000000000000815260040161163690612c2f565b60405180910390fd5b611647611d3c565b841115611689576040517f08c379a000000000000000000000000000000000000000000000000000000000815260040161168090612c9b565b60405180910390fd5b60006116a18585600001611d4d90919063ffffffff16565b9050836000018054905081036116be5760008092509250506116e7565b60018460010182815481106116d6576116d5612cbb565b5b906000526020600020015492509250505b9250929050565b6000600560009054906101000a900473ffffffffffffffffffffffffffffffffffffffff16905081600560006101000a81548173ffffffffffffffffffffffffffffffffffffffff021916908373ffffffffffffffffffffffffffffffffffffffff1602179055508173ffffffffffffffffffffffffffffffffffffffff168173ffffffffffffffffffffffffffffffffffffffff167f8be0079c531659141344cd1fd0a4f28419497f9722a3daafe3b4186f6b6457e060405160405180910390a35050565b6117bc611e06565b6001600560146101000a81548160ff0219169083151502179055507f62e78cea01bee320cd4e420270b5ea74000d11b0c9f74754ebdbfc544b05a258611800610eac565b60405161180d91906123fb565b60405180910390a1565b60006118236009611e50565b600061182d611d3c565b90507f8030e83b04d87bef53480e26263266d6ca66863aa8506aca6f2559d18aa1cb678160405161185e919061231a565b60405180910390a18091505090565b600073ffffffffffffffffffffffffffffffffffffffff168373ffffffffffffffffffffffffffffffffffffffff16036118dc576040517f08c379a00000000000000000000000000000000000000000000000000000000081526004016118d390612d5c565b60405180910390fd5b600073ffffffffffffffffffffffffffffffffffffffff168273ffffffffffffffffffffffffffffffffffffffff160361194b576040517f08c379a000000000000000000000000000000000000000000000000000000000815260040161194290612dee565b60405180910390fd5b611956838383611b2c565b60008060008573ffffffffffffffffffffffffffffffffffffffff1673ffffffffffffffffffffffffffffffffffffffff168152602001908152602001600020549050818110156119dc576040517f08c379a00000000000000000000000000000000000000000000000000000000081526004016119d390612e80565b60405180910390fd5b8181036000808673ffffffffffffffffffffffffffffffffffffffff1673ffffffffffffffffffffffffffffffffffffffff16815260200190815260200160002081905550816000808573ffffffffffffffffffffffffffffffffffffffff1673ffffffffffffffffffffffffffffffffffffffff168152602001908152602001600020600082825401925050819055508273ffffffffffffffffffffffffffffffffffffffff168473ffffffffffffffffffffffffffffffffffffffff167fddf252ad1be2c89b69c2b068fc378daa952ba7f163c4a11628f55a4df523b3ef84604051611aca919061231a565b60405180910390a3611add848484611d37565b50505050565b611aeb6108f5565b611b2a576040517f08c379a0000000000000000000000000000000000000000000000000000000008152600401611b2190612eec565b60405180910390fd5b565b611b34611e06565b600073ffffffffffffffffffffffffffffffffffffffff168373ffffffffffffffffffffffffffffffffffffffff1614158015611b9e5750600073ffffffffffffffffffffffffffffffffffffffff168273ffffffffffffffffffffffffffffffffffffffff1614155b611d2757600073ffffffffffffffffffffffffffffffffffffffff168373ffffffffffffffffffffffffffffffffffffffff1614611c6457600d60008473ffffffffffffffffffffffffffffffffffffffff1673ffffffffffffffffffffffffffffffffffffffff16815260200190815260200160002060009054906101000a900460ff1615611c63576040517f08c379a0000000000000000000000000000000000000000000000000000000008152600401611c5a9061295d565b60405180910390fd5b5b600073ffffffffffffffffffffffffffffffffffffffff168273ffffffffffffffffffffffffffffffffffffffff1614611d2657600d60008373ffffffffffffffffffffffffffffffffffffffff1673ffffffffffffffffffffffffffffffffffffffff16815260200190815260200160002060009054906101000a900460ff1615611d25576040517f08c379a0000000000000000000000000000000000000000000000000000000008152600401611d1c906129c9565b60405180910390fd5b5b5b611d32838383611e66565b505050565b505050565b6000611d486009611f1e565b905090565b600080838054905003611d635760009050611e00565b600080848054905090505b80821015611db7576000611d828383611f2c565b905084611d8f8783611f52565b600001541115611da157809150611db1565b600181611dae9190612551565b92505b50611d6e565b600082118015611ddf575083611dd986600185611dd49190612a8b565b611f52565b60000154145b15611dfa57600182611df19190612a8b565b92505050611e00565b81925050505b92915050565b611e0e6108f5565b15611e4e576040517f08c379a0000000000000000000000000000000000000000000000000000000008152600401611e4590612f58565b60405180910390fd5b565b6001816000016000828254019250508190555050565b611e71838383611f74565b600073ffffffffffffffffffffffffffffffffffffffff168373ffffffffffffffffffffffffffffffffffffffff1603611ebb57611eae82611f79565b611eb6611fcc565b611f19565b600073ffffffffffffffffffffffffffffffffffffffff168273ffffffffffffffffffffffffffffffffffffffff1603611f0557611ef883611f79565b611f00611fcc565b611f18565b611f0e83611f79565b611f1782611f79565b5b5b505050565b600081600001549050919050565b60006002828418611f3d9190612a5a565b828416611f4a9190612551565b905092915050565b60008083600052826020600020019050611f6b81611fe0565b91505092915050565b505050565b611fc9600660008373ffffffffffffffffffffffffffffffffffffffff1673ffffffffffffffffffffffffffffffffffffffff168152602001908152602001600020611fc48361092c565b611fea565b50565b611fde6007611fd96107d7565b611fea565b565b6000819050919050565b6000611ff4611d3c565b90508061200384600001612065565b10156120605782600001819080600181540180825580915050600190039060005260206000200160009091909190915055826001018290806001815401808255809150506001900390600052602060002001600090919091909150555b505050565b60008082805490500361207b57600090506120ac565b816001838054905061208d9190612a8b565b8154811061209e5761209d612cbb565b5b906000526020600020015490505b919050565b600081519050919050565b600082825260208201905092915050565b60005b838110156120eb5780820151818401526020810190506120d0565b60008484015250505050565b6000601f19601f8301169050919050565b6000612113826120b1565b61211d81856120bc565b935061212d8185602086016120cd565b612136816120f7565b840191505092915050565b6000602082019050818103600083015261215b8184612108565b905092915050565b600080fd5b600073ffffffffffffffffffffffffffffffffffffffff82169050919050565b600061219382612168565b9050919050565b6121a381612188565b81146121ae57600080fd5b50565b6000813590506121c08161219a565b92915050565b6000819050919050565b6121d9816121c6565b81146121e457600080fd5b50565b6000813590506121f6816121d0565b92915050565b6000806040838503121561221357612212612163565b5b6000612221858286016121b1565b9250506020612232858286016121e7565b9150509250929050565b60008115159050919050565b6122518161223c565b82525050565b600060208201905061226c6000830184612248565b92915050565b60006020828403121561228857612287612163565b5b6000612296848285016121e7565b91505092915050565b6122a88161223c565b81146122b357600080fd5b50565b6000813590506122c58161229f565b92915050565b600080604083850312156122e2576122e1612163565b5b60006122f0858286016121b1565b9250506020612301858286016122b6565b9150509250929050565b612314816121c6565b82525050565b600060208201905061232f600083018461230b565b92915050565b60008060006060848603121561234e5761234d612163565b5b600061235c868287016121b1565b935050602061236d868287016121b1565b925050604061237e868287016121e7565b9150509250925092565b600060ff82169050919050565b61239e81612388565b82525050565b60006020820190506123b96000830184612395565b92915050565b6000602082840312156123d5576123d4612163565b5b60006123e3848285016121b1565b91505092915050565b6123f581612188565b82525050565b600060208201905061241060008301846123ec565b92915050565b6000806040838503121561242d5761242c612163565b5b600061243b858286016121b1565b925050602061244c858286016121b1565b9150509250929050565b7f4e487b7100000000000000000000000000000000000000000000000000000000600052602260045260246000fd5b6000600282049050600182168061249d57607f821691505b6020821081036124b0576124af612456565b5b50919050565b7f4d61782066656520312500000000000000000000000000000000000000000000600082015250565b60006124ec600a836120bc565b91506124f7826124b6565b602082019050919050565b6000602082019050818103600083015261251b816124df565b9050919050565b7f4e487b7100000000000000000000000000000000000000000000000000000000600052601160045260246000fd5b600061255c826121c6565b9150612567836121c6565b925082820190508082111561257f5761257e612522565b5b92915050565b7f496e76616c696420616464726573730000000000000000000000000000000000600082015250565b60006125bb600f836120bc565b91506125c682612585565b602082019050919050565b600060208201905081810360008301526125ea816125ae565b9050919050565b7f45524332303a2064656372656173656420616c6c6f77616e63652062656c6f7760008201527f207a65726f000000000000000000000000000000000000000000000000000000602082015250565b600061264d6025836120bc565b9150612658826125f1565b604082019050919050565b6000602082019050818103600083015261267c81612640565b9050919050565b7f4f776e61626c653a206e6577206f776e657220697320746865207a65726f206160008201527f6464726573730000000000000000000000000000000000000000000000000000602082015250565b60006126df6026836120bc565b91506126ea82612683565b604082019050919050565b6000602082019050818103600083015261270e816126d2565b9050919050565b7f45524332303a20617070726f76652066726f6d20746865207a65726f2061646460008201527f7265737300000000000000000000000000000000000000000000000000000000602082015250565b60006127716024836120bc565b915061277c82612715565b604082019050919050565b600060208201905081810360008301526127a081612764565b9050919050565b7f45524332303a20617070726f766520746f20746865207a65726f20616464726560008201527f7373000000000000000000000000000000000000000000000000000000000000602082015250565b60006128036022836120bc565b915061280e826127a7565b604082019050919050565b60006020820190508181036000830152612832816127f6565b9050919050565b7f4f776e61626c653a2063616c6c6572206973206e6f7420746865206f776e6572600082015250565b600061286f6020836120bc565b915061287a82612839565b602082019050919050565b6000602082019050818103600083015261289e81612862565b9050919050565b7f45524332303a20696e73756666696369656e7420616c6c6f77616e6365000000600082015250565b60006128db601d836120bc565b91506128e6826128a5565b602082019050919050565b6000602082019050818103600083015261290a816128ce565b9050919050565b7f53656e64657220626c61636b6c69737465640000000000000000000000000000600082015250565b60006129476012836120bc565b915061295282612911565b602082019050919050565b600060208201905081810360008301526129768161293a565b9050919050565b7f526563697069656e7420626c61636b6c69737465640000000000000000000000600082015250565b60006129b36015836120bc565b91506129be8261297d565b602082019050919050565b600060208201905081810360008301526129e2816129a6565b9050919050565b60006129f4826121c6565b91506129ff836121c6565b9250828202612a0d816121c6565b91508282048414831517612a2457612a23612522565b5b5092915050565b7f4e487b7100000000000000000000000000000000000000000000000000000000600052601260045260246000fd5b6000612a65826121c6565b9150612a70836121c6565b925082612a8057612a7f612a2b565b5b828204905092915050565b6000612a96826121c6565b9150612aa1836121c6565b9250828203905081811115612ab957612ab8612522565b5b92915050565b7f45524332303a206275726e2066726f6d20746865207a65726f2061646472657360008201527f7300000000000000000000000000000000000000000000000000000000000000602082015250565b6000612b1b6021836120bc565b9150612b2682612abf565b604082019050919050565b60006020820190508181036000830152612b4a81612b0e565b9050919050565b7f45524332303a206275726e20616d6f756e7420657863656564732062616c616e60008201527f6365000000000000000000000000000000000000000000000000000000000000602082015250565b6000612bad6022836120bc565b9150612bb882612b51565b604082019050919050565b60006020820190508181036000830152612bdc81612ba0565b9050919050565b7f4552433230536e617073686f743a206964206973203000000000000000000000600082015250565b6000612c196016836120bc565b9150612c2482612be3565b602082019050919050565b60006020820190508181036000830152612c4881612c0c565b9050919050565b7f4552433230536e617073686f743a206e6f6e6578697374656e74206964000000600082015250565b6000612c85601d836120bc565b9150612c9082612c4f565b602082019050919050565b60006020820190508181036000830152612cb481612c78565b9050919050565b7f4e487b7100000000000000000000000000000000000000000000000000000000600052603260045260246000fd5b7f45524332303a207472616e736665722066726f6d20746865207a65726f20616460008201527f6472657373000000000000000000000000000000000000000000000000000000602082015250565b6000612d466025836120bc565b9150612d5182612cea565b604082019050919050565b60006020820190508181036000830152612d7581612d39565b9050919050565b7f45524332303a207472616e7366657220746f20746865207a65726f206164647260008201527f6573730000000000000000000000000000000000000000000000000000000000602082015250565b6000612dd86023836120bc565b9150612de382612d7c565b604082019050919050565b60006020820190508181036000830152612e0781612dcb565b9050919050565b7f45524332303a207472616e7366657220616d6f756e742065786365656473206260008201527f616c616e63650000000000000000000000000000000000000000000000000000602082015250565b6000612e6a6026836120bc565b9150612e7582612e0e565b604082019050919050565b60006020820190508181036000830152612e9981612e5d565b9050919050565b7f5061757361626c653a206e6f7420706175736564000000000000000000000000600082015250565b6000612ed66014836120bc565b9150612ee182612ea0565b602082019050919050565b60006020820190508181036000830152612f0581612ec9565b9050919050565b7f5061757361626c653a2070617573656400000000000000000000000000000000600082015250565b6000612f426010836120bc565b9150612f4d82612f0c565b602082019050919050565b60006020820190508181036000830152612f7181612f35565b905091905056fea2646970667358221220c8d62f4fda8ab3b663235986bd00910b750217ece07795df39e60165877b231264736f6c63430008140033",
  "linkReferences": {},
  "deployedLinkReferences": {}
}