{
  "_format": "hh-sol-artifact-1",
  "contractName": "EComToken",
  "sourceName": "contracts/EComToken.sol",
  "abi": [
    {
      "inputs": [
        {
          "internalType": "address",
          "name": "initialOwner",
          "type": "address"
        }
      ],
      "stateMutability": "nonpayable",
      "type": "constructor"
    },
    {
      "inputs": [
        {
          "internalType": "address",
          "name": "user",
          "type": "address"
        }
      ],
      "name": "Blacklisted",
      "type": "error"
    },
    {
      "inputs": [],
      "name": "FeeTooHigh",
      "type": "error"
    },
    {
      "inputs": [],
      "name": "InvalidAddress",
      "type": "error"
    },
    {
      "anonymous": false,
      "inputs": [
        {
          "indexed": true,
          "internalType": "address",
          "name": "owner",
          "type": "address"
        },
        {
          "indexed": true,
          "internalType": "address",
          "name": "spender",
          "type": "address"
        },
        {
          "indexed": false,
          "internalType": "uint256",
          "name": "value",
          "type": "uint256"
        }
      ],
      "name": "Approval",
      "type": "event"
    },
    {
      "anonymous": false,
      "inputs": [
        {
          "indexed": true,
          "internalType": "address",
          "name": "account",
          "type": "address"
        },
        {
          "indexed": false,
          "internalType": "bool",
          "name": "status",
          "type": "bool"
        }
      ],
      "name": "BlacklistUpdated",
      "type": "event"
    },
    {
      "anonymous": false,
      "inputs": [
        {
          "indexed": true,
          "internalType": "address",
          "name": "from",
          "type": "address"
        },
        {
          "indexed": false,
          "internalType": "uint256",
          "name": "amount",
          "type": "uint256"
        }
      ],
      "name": "FeesCollected",
      "type": "event"
    },
    {
      "anonymous": false,
      "inputs": [
        {
          "indexed": true,
          "internalType": "address",
          "name": "merchant",
          "type": "address"
        }
      ],
      "name": "MerchantRemoved",
      "type": "event"
    },
    {
      "anonymous": false,
      "inputs": [
        {
          "indexed": true,
          "internalType": "address",
          "name": "merchant",
          "type": "address"
        }
      ],
      "name": "MerchantWhitelisted",
      "type": "event"
    },
    {
      "anonymous": false,
      "inputs": [
        {
          "indexed": true,
          "internalType": "address",
          "name": "previousOwner",
          "type": "address"
        },
        {
          "indexed": true,
          "internalType": "address",
          "name": "newOwner",
          "type": "address"
        }
      ],
      "name": "OwnershipTransferred",
      "type": "event"
    },
    {
      "anonymous": false,
      "inputs": [
        {
          "indexed": false,
          "internalType": "address",
          "name": "account",
          "type": "address"
        }
      ],
      "name": "Paused",
      "type": "event"
    },
    {
      "anonymous": false,
      "inputs": [
        {
          "indexed": false,
          "internalType": "uint256",
          "name": "id",
          "type": "uint256"
        }
      ],
      "name": "Snapshot",
      "type": "event"
    },
    {
      "anonymous": false,
      "inputs": [
        {
          "indexed": true,
          "internalType": "address",
          "name": "from",
          "type": "address"
        },
        {
          "indexed": true,
          "internalType": "address",
          "name": "to",
          "type": "address"
        },
        {
          "indexed": false,
          "internalType": "uint256",
          "name": "value",
          "type": "uint256"
        }
      ],
      "name": "Transfer",
      "type": "event"
    },
    {
      "anonymous": false,
      "inputs": [
        {
          "indexed": false,
          "internalType": "address",
          "name": "account",
          "type": "address"
        }
      ],
      "name": "Unpaused",
      "type": "event"
    },
    {
      "inputs": [],
      "name": "MAX_SUPPLY",
      "outputs": [
        {
          "internalType": "uint256",
          "name": "",
          "type": "uint256"
        }
      ],
      "stateMutability": "view",
      "type": "function"
    },
    {
      "inputs": [
        {
          "internalType": "address",
          "name": "owner",
          "type": "address"
        },
        {
          "internalType": "address",
          "name": "spender",
          "type": "address"
        }
      ],
      "name": "allowance",
      "outputs": [
        {
          "internalType": "uint256",
          "name": "",
          "type": "uint256"
        }
      ],
      "stateMutability": "view",
      "type": "function"
    },
    {
      "inputs": [
        {
          "internalType": "address",
          "name": "spender",
          "type": "address"
        },
        {
          "internalType": "uint256",
          "name": "amount",
          "type": "uint256"
        }
      ],
      "name": "approve",
      "outputs": [
        {
          "internalType": "bool",
          "name": "",
          "type": "bool"
        }
      ],
      "stateMutability": "nonpayable",
      "type": "function"
    },
    {
      "inputs": [
        {
          "internalType": "address",
          "name": "account",
          "type": "address"
        }
      ],
      "name": "balanceOf",
      "outputs": [
        {
          "internalType": "uint256",
          "name": "",
          "type": "uint256"
        }
      ],
      "stateMutability": "view",
      "type": "function"
    },
    {
      "inputs": [
        {
          "internalType": "address",
          "name": "account",
          "type": "address"
        },
        {
          "internalType": "uint256",
          "name": "snapshotId",
          "type": "uint256"
        }
      ],
      "name": "balanceOfAt",
      "outputs": [
        {
          "internalType": "uint256",
          "name": "",
          "type": "uint256"
        }
      ],
      "stateMutability": "view",
      "type": "function"
    },
    {
      "inputs": [
        {
          "internalType": "address",
          "name": "",
          "type": "address"
        }
      ],
      "name": "blacklisted",
      "outputs": [
        {
          "internalType": "bool",
          "name": "",
          "type": "bool"
        }
      ],
      "stateMutability": "view",
      "type": "function"
    },
    {
      "inputs": [
        {
          "internalType": "uint256",
          "name": "amount",
          "type": "uint256"
        }
      ],
      "name": "burn",
      "outputs": [],
      "stateMutability": "nonpayable",
      "type": "function"
    },
    {
      "inputs": [
        {
          "internalType": "address",
          "name": "account",
          "type": "address"
        },
        {
          "internalType": "uint256",
          "name": "amount",
          "type": "uint256"
        }
      ],
      "name": "burnFrom",
      "outputs": [],
      "stateMutability": "nonpayable",
      "type": "function"
    },
    {
      "inputs": [],
      "name": "decimals",
      "outputs": [
        {
          "internalType": "uint8",
          "name": "",
          "type": "uint8"
        }
      ],
      "stateMutability": "pure",
      "type": "function"
    },
    {
      "inputs": [
        {
          "internalType": "address",
          "name": "spender",
          "type": "address"
        },
        {
          "internalType": "uint256",
          "name": "subtractedValue",
          "type": "uint256"
        }
      ],
      "name": "decreaseAllowance",
      "outputs": [
        {
          "internalType": "bool",
          "name": "",
          "type": "bool"
        }
      ],
      "stateMutability": "nonpayable",
      "type": "function"
    },
    {
      "inputs": [],
      "name": "feeCollector",
      "outputs": [
        {
          "internalType": "address",
          "name": "",
          "type": "address"
        }
      ],
      "stateMutability": "view",
      "type": "function"
    },
    {
      "inputs": [
        {
          "internalType": "address",
          "name": "spender",
          "type": "address"
        },
        {
          "internalType": "uint256",
          "name": "addedValue",
          "type": "uint256"
        }
      ],
      "name": "increaseAllowance",
      "outputs": [
        {
          "internalType": "bool",
          "name": "",
          "type": "bool"
        }
      ],
      "stateMutability": "nonpayable",
      "type": "function"
    },
    {
      "inputs": [],
      "name": "name",
      "outputs": [
        {
          "internalType": "string",
          "name": "",
          "type": "string"
        }
      ],
      "stateMutability": "view",
      "type": "function"
    },
    {
      "inputs": [],
      "name": "owner",
      "outputs": [
        {
          "internalType": "address",
          "name": "",
          "type": "address"
        }
      ],
      "stateMutability": "view",
      "type": "function"
    },
    {
      "inputs": [],
      "name": "pause",
      "outputs": [],
      "stateMutability": "nonpayable",
      "type": "function"
    },
    {
      "inputs": [],
      "name": "paused",
      "outputs": [
        {
          "internalType": "bool",
          "name": "",
          "type": "bool"
        }
      ],
      "stateMutability": "view",
      "type": "function"
    },
    {
      "inputs": [
        {
          "internalType": "address",
          "name": "merchant",
          "type": "address"
        }
      ],
      "name": "removeFromWhitelist",
      "outputs": [],
      "stateMutability": "nonpayable",
      "type": "function"
    },
    {
      "inputs": [],
      "name": "renounceOwnership",
      "outputs": [],
      "stateMutability": "nonpayable",
      "type": "function"
    },
    {
      "inputs": [
        {
          "internalType": "address",
          "name": "account",
          "type": "address"
        },
        {
          "internalType": "bool",
          "name": "status",
          "type": "bool"
        }
      ],
      "name": "setBlacklist",
      "outputs": [],
      "stateMutability": "nonpayable",
      "type": "function"
    },
    {
      "inputs": [
        {
          "internalType": "uint256",
          "name": "newFee",
          "type": "uint256"
        }
      ],
      "name": "setTransactionFee",
      "outputs": [],
      "stateMutability": "nonpayable",
      "type": "function"
    },
    {
      "inputs": [],
      "name": "snapshot",
      "outputs": [],
      "stateMutability": "nonpayable",
      "type": "function"
    },
    {
      "inputs": [],
      "name": "symbol",
      "outputs": [
        {
          "internalType": "string",
          "name": "",
          "type": "string"
        }
      ],
      "stateMutability": "view",
      "type": "function"
    },
    {
      "inputs": [],
      "name": "totalSupply",
      "outputs": [
        {
          "internalType": "uint256",
          "name": "",
          "type": "uint256"
        }
      ],
      "stateMutability": "view",
      "type": "function"
    },
    {
      "inputs": [
        {
          "internalType": "uint256",
          "name": "snapshotId",
          "type": "uint256"
        }
      ],
      "name": "totalSupplyAt",
      "outputs": [
        {
          "internalType": "uint256",
          "name": "",
          "type": "uint256"
        }
      ],
      "stateMutability": "view",
      "type": "function"
    },
    {
      "inputs": [],
      "name": "transactionFee",
      "outputs": [
        {
          "internalType": "uint256",
          "name": "",
          "type": "uint256"
        }
      ],
      "stateMutability": "view",
      "type": "function"
    },
    {
      "inputs": [
        {
          "internalType": "address",
          "name": "to",
          "type": "address"
        },
        {
          "internalType": "uint256",
          "name": "amount",
          "type": "uint256"
        }
      ],
      "name": "transfer",
      "outputs": [
        {
          "internalType": "bool",
          "name": "",
          "type": "bool"
        }
      ],
      "stateMutability": "nonpayable",
      "type": "function"
    },
    {
      "inputs": [
        {
          "internalType": "address",
          "name": "from",
          "type": "address"
        },
        {
          "internalType": "address",
          "name": "to",
          "type": "address"
        },
        {
          "internalType": "uint256",
          "name": "amount",
          "type": "uint256"
        }
      ],
      "name": "transferFrom",
      "outputs": [
        {
          "internalType": "bool",
          "name": "",
          "type": "bool"
        }
      ],
      "stateMutability": "nonpayable",
      "type": "function"
    },
    {
      "inputs": [
        {
          "internalType": "address",
          "name": "newOwner",
          "type": "address"
        }
      ],
      "name": "transferOwnership",
      "outputs": [],
      "stateMutability": "nonpayable",
      "type": "function"
    },
    {
      "inputs": [],
      "name": "unpause",
      "outputs": [],
      "stateMutability": "nonpayable",
      "type": "function"
    },
    {
      "inputs": [
        {
          "internalType": "address",
          "name": "merchant",
          "type": "address"
        }
      ],
      "name": "whitelistMerchant",
      "outputs": [],
      "stateMutability": "nonpayable",
      "type": "function"
    },
    {
      "inputs": [
        {
          "internalType": "address",
          "name": "",
          "type": "address"
        }
      ],
      "name": "whitelistedMerchants",
      "outputs": [
        {
          "internalType": "bool",
          "name": "",
          "type": "bool"
        }
      ],
      "stateMutability": "view",
      "type": "function"
    }
  ],
  "bytecode": "0x60a06040526019600a553480156200001657600080fd5b5060405162003e5b38038062003e5b83398181016040528101906200003c919062000ad6565b6040518060400160405280601681526020017f45436f6d6d6572636520476c6f62616c20546f6b656e000000000000000000008152506040518060400160405280600481526020017f45434f4d000000000000000000000000000000000000000000000000000000008152508160039081620000b9919062000d82565b508060049081620000cb919062000d82565b505050620000ee620000e2620001d960201b60201c565b620001e160201b60201c565b6000600560146101000a81548160ff021916908315150217905550600073ffffffffffffffffffffffffffffffffffffffff168173ffffffffffffffffffffffffffffffffffffffff160362000170576040517fe6c4247b00000000000000000000000000000000000000000000000000000000815260040160405180910390fd5b8073ffffffffffffffffffffffffffffffffffffffff1660808173ffffffffffffffffffffffffffffffffffffffff1681525050620001c1816a52b7d2dcc80cd2e4000000620002a760201b60201c565b620001d2816200041460201b60201c565b5062001198565b600033905090565b6000600560009054906101000a900473ffffffffffffffffffffffffffffffffffffffff16905081600560006101000a81548173ffffffffffffffffffffffffffffffffffffffff021916908373ffffffffffffffffffffffffffffffffffffffff1602179055508173ffffffffffffffffffffffffffffffffffffffff168173ffffffffffffffffffffffffffffffffffffffff167f8be0079c531659141344cd1fd0a4f28419497f9722a3daafe3b4186f6b6457e060405160405180910390a35050565b600073ffffffffffffffffffffffffffffffffffffffff168273ffffffffffffffffffffffffffffffffffffffff160362000319576040517f08c379a0000000000000000000000000000000000000000000000000000000008152600401620003109062000eca565b60405180910390fd5b6200032d60008383620004aa60201b60201c565b806002600082825462000341919062000f1b565b92505081905550806000808473ffffffffffffffffffffffffffffffffffffffff1673ffffffffffffffffffffffffffffffffffffffff168152602001908152602001600020600082825401925050819055508173ffffffffffffffffffffffffffffffffffffffff16600073ffffffffffffffffffffffffffffffffffffffff167fddf252ad1be2c89b69c2b068fc378daa952ba7f163c4a11628f55a4df523b3ef83604051620003f4919062000f67565b60405180910390a362000410600083836200066860201b60201c565b5050565b620004246200066d60201b60201c565b600073ffffffffffffffffffffffffffffffffffffffff168173ffffffffffffffffffffffffffffffffffffffff160362000496576040517f08c379a00000000000000000000000000000000000000000000000000000000081526004016200048d9062000ffa565b60405180910390fd5b620004a781620001e160201b60201c565b50565b620004ba620006fe60201b60201c565b600073ffffffffffffffffffffffffffffffffffffffff168373ffffffffffffffffffffffffffffffffffffffff16036200058757600c60008373ffffffffffffffffffffffffffffffffffffffff1673ffffffffffffffffffffffffffffffffffffffff16815260200190815260200160002060009054906101000a900460ff16156200058157816040517fffa4e6180000000000000000000000000000000000000000000000000000000081526004016200057891906200102d565b60405180910390fd5b62000650565b600073ffffffffffffffffffffffffffffffffffffffff168273ffffffffffffffffffffffffffffffffffffffff16036200064f57600c60008473ffffffffffffffffffffffffffffffffffffffff1673ffffffffffffffffffffffffffffffffffffffff16815260200190815260200160002060009054906101000a900460ff16156200064e57826040517fffa4e6180000000000000000000000000000000000000000000000000000000081526004016200064591906200102d565b60405180910390fd5b5b5b620006638383836200075360201b60201c565b505050565b505050565b6200067d620001d960201b60201c565b73ffffffffffffffffffffffffffffffffffffffff16620006a36200084760201b60201c565b73ffffffffffffffffffffffffffffffffffffffff1614620006fc576040517f08c379a0000000000000000000000000000000000000000000000000000000008152600401620006f3906200109a565b60405180910390fd5b565b6200070e6200087160201b60201c565b1562000751576040517f08c379a000000000000000000000000000000000000000000000000000000000815260040162000748906200110c565b60405180910390fd5b565b620007668383836200088860201b60201c565b600073ffffffffffffffffffffffffffffffffffffffff168373ffffffffffffffffffffffffffffffffffffffff1603620007c257620007ac826200088d60201b60201c565b620007bc620008f060201b60201c565b62000842565b600073ffffffffffffffffffffffffffffffffffffffff168273ffffffffffffffffffffffffffffffffffffffff16036200081e5762000808836200088d60201b60201c565b62000818620008f060201b60201c565b62000841565b6200082f836200088d60201b60201c565b62000840826200088d60201b60201c565b5b5b505050565b6000600560009054906101000a900473ffffffffffffffffffffffffffffffffffffffff16905090565b6000600560149054906101000a900460ff16905090565b505050565b620008ed600660008373ffffffffffffffffffffffffffffffffffffffff1673ffffffffffffffffffffffffffffffffffffffff168152602001908152602001600020620008e1836200091460201b60201c565b6200095c60201b60201c565b50565b62000912600762000906620009e860201b60201c565b6200095c60201b60201c565b565b60008060008373ffffffffffffffffffffffffffffffffffffffff1673ffffffffffffffffffffffffffffffffffffffff168152602001908152602001600020549050919050565b60006200096e620009f260201b60201c565b905080620009858460000162000a0b60201b60201c565b1015620009e35782600001819080600181540180825580915050600190039060005260206000200160009091909190915055826001018290806001815401808255809150506001900390600052602060002001600090919091909150555b505050565b6000600254905090565b600062000a06600962000a5e60201b60201c565b905090565b60008082805490500362000a23576000905062000a59565b816001838054905062000a3791906200112e565b8154811062000a4b5762000a4a62001169565b5b906000526020600020015490505b919050565b600081600001549050919050565b600080fd5b600073ffffffffffffffffffffffffffffffffffffffff82169050919050565b600062000a9e8262000a71565b9050919050565b62000ab08162000a91565b811462000abc57600080fd5b50565b60008151905062000ad08162000aa5565b92915050565b60006020828403121562000aef5762000aee62000a6c565b5b600062000aff8482850162000abf565b91505092915050565b600081519050919050565b7f4e487b7100000000000000000000000000000000000000000000000000000000600052604160045260246000fd5b7f4e487b7100000000000000000000000000000000000000000000000000000000600052602260045260246000fd5b6000600282049050600182168062000b8a57607f821691505b60208210810362000ba05762000b9f62000b42565b5b50919050565b60008190508160005260206000209050919050565b60006020601f8301049050919050565b600082821b905092915050565b60006008830262000c0a7fffffffffffffffffffffffffffffffffffffffffffffffffffffffffffffffff8262000bcb565b62000c16868362000bcb565b95508019841693508086168417925050509392505050565b6000819050919050565b6000819050919050565b600062000c6362000c5d62000c578462000c2e565b62000c38565b62000c2e565b9050919050565b6000819050919050565b62000c7f8362000c42565b62000c9762000c8e8262000c6a565b84845462000bd8565b825550505050565b600090565b62000cae62000c9f565b62000cbb81848462000c74565b505050565b5b8181101562000ce35762000cd760008262000ca4565b60018101905062000cc1565b5050565b601f82111562000d325762000cfc8162000ba6565b62000d078462000bbb565b8101602085101562000d17578190505b62000d2f62000d268562000bbb565b83018262000cc0565b50505b505050565b600082821c905092915050565b600062000d576000198460080262000d37565b1980831691505092915050565b600062000d72838362000d44565b9150826002028217905092915050565b62000d8d8262000b08565b67ffffffffffffffff81111562000da95762000da862000b13565b5b62000db5825462000b71565b62000dc282828562000ce7565b600060209050601f83116001811462000dfa576000841562000de5578287015190505b62000df1858262000d64565b86555062000e61565b601f19841662000e0a8662000ba6565b60005b8281101562000e345784890151825560018201915060208501945060208101905062000e0d565b8683101562000e54578489015162000e50601f89168262000d44565b8355505b6001600288020188555050505b505050505050565b600082825260208201905092915050565b7f45524332303a206d696e7420746f20746865207a65726f206164647265737300600082015250565b600062000eb2601f8362000e69565b915062000ebf8262000e7a565b602082019050919050565b6000602082019050818103600083015262000ee58162000ea3565b9050919050565b7f4e487b7100000000000000000000000000000000000000000000000000000000600052601160045260246000fd5b600062000f288262000c2e565b915062000f358362000c2e565b925082820190508082111562000f505762000f4f62000eec565b5b92915050565b62000f618162000c2e565b82525050565b600060208201905062000f7e600083018462000f56565b92915050565b7f4f776e61626c653a206e6577206f776e657220697320746865207a65726f206160008201527f6464726573730000000000000000000000000000000000000000000000000000602082015250565b600062000fe260268362000e69565b915062000fef8262000f84565b604082019050919050565b60006020820190508181036000830152620010158162000fd3565b9050919050565b620010278162000a91565b82525050565b60006020820190506200104460008301846200101c565b92915050565b7f4f776e61626c653a2063616c6c6572206973206e6f7420746865206f776e6572600082015250565b60006200108260208362000e69565b91506200108f826200104a565b602082019050919050565b60006020820190508181036000830152620010b58162001073565b9050919050565b7f5061757361626c653a2070617573656400000000000000000000000000000000600082015250565b6000620010f460108362000e69565b91506200110182620010bc565b602082019050919050565b600060208201905081810360008301526200112781620010e5565b9050919050565b60006200113b8262000c2e565b9150620011488362000c2e565b925082820390508181111562001163576200116262000eec565b5b92915050565b7f4e487b7100000000000000000000000000000000000000000000000000000000600052603260045260246000fd5b608051612ca0620011bb60003960008181610bcd01526112400152612ca06000f3fe608060405234801561001057600080fd5b50600436106101e55760003560e01c8063715018a61161010f5780639ed3edf0116100a2578063c8cbc22011610071578063c8cbc2201461055c578063dbac26e914610578578063dd62ed3e146105a8578063f2fde38b146105d8576101e5565b80639ed3edf0146104c0578063a457c2d7146104de578063a9059cbb1461050e578063c415b95c1461053e576101e5565b80638da5cb5b116100de5780638da5cb5b1461044a57806395d89b41146104685780639711715a14610486578063981b24d014610490576101e5565b8063715018a6146103fe57806379cc6790146104085780638456cb59146104245780638ab1d6811461042e576101e5565b806332cb6b0c116101875780634ee2cd7e116101565780634ee2cd7e146103505780635c975abb146103805780636915b1fb1461039e57806370a08231146103ce576101e5565b806332cb6b0c146102dc57806339509351146102fa5780633f4ba83a1461032a57806342966c6814610334576101e5565b8063153b0d1e116101c3578063153b0d1e1461025457806318160ddd1461027057806323b872dd1461028e578063313ce567146102be576101e5565b806306fdde03146101ea578063095ea7b314610208578063096a8ab714610238575b600080fd5b6101f26105f4565b6040516101ff9190611fe3565b60405180910390f35b610222600480360381019061021d919061209e565b610686565b60405161022f91906120f9565b60405180910390f35b610252600480360381019061024d9190612114565b6106a9565b005b61026e6004803603810190610269919061216d565b6106f6565b005b6102786107a7565b60405161028591906121bc565b60405180910390f35b6102a860048036038101906102a391906121d7565b6107b1565b6040516102b591906120f9565b60405180910390f35b6102c66107e0565b6040516102d39190612246565b60405180910390f35b6102e46107e9565b6040516102f191906121bc565b60405180910390f35b610314600480360381019061030f919061209e565b6107f8565b60405161032191906120f9565b60405180910390f35b61033261082f565b005b61034e60048036038101906103499190612114565b610841565b005b61036a6004803603810190610365919061209e565b610855565b60405161037791906121bc565b60405180910390f35b6103886108c5565b60405161039591906120f9565b60405180910390f35b6103b860048036038101906103b39190612261565b6108dc565b6040516103c591906120f9565b60405180910390f35b6103e860048036038101906103e39190612261565b6108fc565b6040516103f591906121bc565b60405180910390f35b610406610944565b005b610422600480360381019061041d919061209e565b610958565b005b61042c610978565b005b61044860048036038101906104439190612261565b61098a565b005b610452610a30565b60405161045f919061229d565b60405180910390f35b610470610a5a565b60405161047d9190611fe3565b60405180910390f35b61048e610aec565b005b6104aa60048036038101906104a59190612114565b610aff565b6040516104b791906121bc565b60405180910390f35b6104c8610b30565b6040516104d591906121bc565b60405180910390f35b6104f860048036038101906104f3919061209e565b610b36565b60405161050591906120f9565b60405180910390f35b6105286004803603810190610523919061209e565b610bad565b60405161053591906120f9565b60405180910390f35b610546610bcb565b604051610553919061229d565b60405180910390f35b61057660048036038101906105719190612261565b610bef565b005b610592600480360381019061058d9190612261565b610c95565b60405161059f91906120f9565b60405180910390f35b6105c260048036038101906105bd91906122b8565b610cb5565b6040516105cf91906121bc565b60405180910390f35b6105f260048036038101906105ed9190612261565b610d3c565b005b60606003805461060390612327565b80601f016020809104026020016040519081016040528092919081815260200182805461062f90612327565b801561067c5780601f106106515761010080835404028352916020019161067c565b820191906000526020600020905b81548152906001019060200180831161065f57829003601f168201915b5050505050905090565b600080610691610dbf565b905061069e818585610dc7565b600191505092915050565b6106b1610f90565b60648111156106ec576040517fcd4e616700000000000000000000000000000000000000000000000000000000815260040160405180910390fd5b80600a8190555050565b6106fe610f90565b80600c60008473ffffffffffffffffffffffffffffffffffffffff1673ffffffffffffffffffffffffffffffffffffffff16815260200190815260200160002060006101000a81548160ff0219169083151502179055508173ffffffffffffffffffffffffffffffffffffffff167f6a12b3df6cba4203bd7fd06b816789f87de8c594299aed5717ae070fac781bac8260405161079b91906120f9565b60405180910390a25050565b6000600254905090565b6000806107bc610dbf565b90506107c985828561100e565b6107d485858561109a565b60019150509392505050565b60006012905090565b6a52b7d2dcc80cd2e400000081565b600080610803610dbf565b90506108248185856108158589610cb5565b61081f9190612387565b610dc7565b600191505092915050565b610837610f90565b61083f6112d1565b565b61085261084c610dbf565b82611334565b50565b60008060006108a284600660008873ffffffffffffffffffffffffffffffffffffffff1673ffffffffffffffffffffffffffffffffffffffff168152602001908152602001600020611501565b91509150816108b9576108b4856108fc565b6108bb565b805b9250505092915050565b6000600560149054906101000a900460ff16905090565b600b6020528060005260406000206000915054906101000a900460ff1681565b60008060008373ffffffffffffffffffffffffffffffffffffffff1673ffffffffffffffffffffffffffffffffffffffff168152602001908152602001600020549050919050565b61094c610f90565b61095660006115f6565b565b61096a82610964610dbf565b8361100e565b6109748282611334565b5050565b610980610f90565b6109886116bc565b565b610992610f90565b6000600b60008373ffffffffffffffffffffffffffffffffffffffff1673ffffffffffffffffffffffffffffffffffffffff16815260200190815260200160002060006101000a81548160ff0219169083151502179055508073ffffffffffffffffffffffffffffffffffffffff167fae4bdf5adabafca6721399496d24fe50fb6564effcb386fbae92de33540763bc60405160405180910390a250565b6000600560009054906101000a900473ffffffffffffffffffffffffffffffffffffffff16905090565b606060048054610a6990612327565b80601f0160208091040260200160405190810160405280929190818152602001828054610a9590612327565b8015610ae25780601f10610ab757610100808354040283529160200191610ae2565b820191906000526020600020905b815481529060010190602001808311610ac557829003601f168201915b5050505050905090565b610af4610f90565b610afc61171f565b50565b6000806000610b0f846007611501565b9150915081610b2557610b206107a7565b610b27565b805b92505050919050565b600a5481565b600080610b41610dbf565b90506000610b4f8286610cb5565b905083811015610b94576040517f08c379a0000000000000000000000000000000000000000000000000000000008152600401610b8b9061242d565b60405180910390fd5b610ba18286868403610dc7565b60019250505092915050565b6000610bc1610bba610dbf565b848461109a565b6001905092915050565b7f000000000000000000000000000000000000000000000000000000000000000081565b610bf7610f90565b6001600b60008373ffffffffffffffffffffffffffffffffffffffff1673ffffffffffffffffffffffffffffffffffffffff16815260200190815260200160002060006101000a81548160ff0219169083151502179055508073ffffffffffffffffffffffffffffffffffffffff167fbe7a3d8765318b42e4754e52b6fb5654b6ed0582cb0f3f185965184b0fd98f8a60405160405180910390a250565b600c6020528060005260406000206000915054906101000a900460ff1681565b6000600160008473ffffffffffffffffffffffffffffffffffffffff1673ffffffffffffffffffffffffffffffffffffffff16815260200190815260200160002060008373ffffffffffffffffffffffffffffffffffffffff1673ffffffffffffffffffffffffffffffffffffffff16815260200190815260200160002054905092915050565b610d44610f90565b600073ffffffffffffffffffffffffffffffffffffffff168173ffffffffffffffffffffffffffffffffffffffff1603610db3576040517f08c379a0000000000000000000000000000000000000000000000000000000008152600401610daa906124bf565b60405180910390fd5b610dbc816115f6565b50565b600033905090565b600073ffffffffffffffffffffffffffffffffffffffff168373ffffffffffffffffffffffffffffffffffffffff1603610e36576040517f08c379a0000000000000000000000000000000000000000000000000000000008152600401610e2d90612551565b60405180910390fd5b600073ffffffffffffffffffffffffffffffffffffffff168273ffffffffffffffffffffffffffffffffffffffff1603610ea5576040517f08c379a0000000000000000000000000000000000000000000000000000000008152600401610e9c906125e3565b60405180910390fd5b80600160008573ffffffffffffffffffffffffffffffffffffffff1673ffffffffffffffffffffffffffffffffffffffff16815260200190815260200160002060008473ffffffffffffffffffffffffffffffffffffffff1673ffffffffffffffffffffffffffffffffffffffff168152602001908152602001600020819055508173ffffffffffffffffffffffffffffffffffffffff168373ffffffffffffffffffffffffffffffffffffffff167f8c5be1e5ebec7d5bd14f71427d1e84f3dd0314c0f7b2291e5b200ac8c7c3b92583604051610f8391906121bc565b60405180910390a3505050565b610f98610dbf565b73ffffffffffffffffffffffffffffffffffffffff16610fb6610a30565b73ffffffffffffffffffffffffffffffffffffffff161461100c576040517f08c379a00000000000000000000000000000000000000000000000000000000081526004016110039061264f565b60405180910390fd5b565b600061101a8484610cb5565b90507fffffffffffffffffffffffffffffffffffffffffffffffffffffffffffffffff81146110945781811015611086576040517f08c379a000000000000000000000000000000000000000000000000000000000815260040161107d906126bb565b60405180910390fd5b6110938484848403610dc7565b5b50505050565b600c60008473ffffffffffffffffffffffffffffffffffffffff1673ffffffffffffffffffffffffffffffffffffffff16815260200190815260200160002060009054906101000a900460ff161561112957826040517fffa4e618000000000000000000000000000000000000000000000000000000008152600401611120919061229d565b60405180910390fd5b600c60008373ffffffffffffffffffffffffffffffffffffffff1673ffffffffffffffffffffffffffffffffffffffff16815260200190815260200160002060009054906101000a900460ff16156111b857816040517fffa4e6180000000000000000000000000000000000000000000000000000000081526004016111af919061229d565b60405180910390fd5b6000600a5490506000808211801561121a5750600b60008673ffffffffffffffffffffffffffffffffffffffff1673ffffffffffffffffffffffffffffffffffffffff16815260200190815260200160002060009054906101000a900460ff16155b156112b457612710828461122e91906126db565b611238919061274c565b9050611265857f000000000000000000000000000000000000000000000000000000000000000083611775565b8473ffffffffffffffffffffffffffffffffffffffff167f9dc46f23cfb5ddcad0ae7ea2be38d47fec07bb9382ec7e564efc69e036dd66ce826040516112ab91906121bc565b60405180910390a25b6112ca858583866112c5919061277d565b611775565b5050505050565b6112d96119eb565b6000600560146101000a81548160ff0219169083151502179055507f5db9ee0a495bf2e6ff9c91a7834c1ba4fdd244a5e8aa4e537bd38aeae4b073aa61131d610dbf565b60405161132a919061229d565b60405180910390a1565b600073ffffffffffffffffffffffffffffffffffffffff168273ffffffffffffffffffffffffffffffffffffffff16036113a3576040517f08c379a000000000000000000000000000000000000000000000000000000000815260040161139a90612823565b60405180910390fd5b6113af82600083611a34565b60008060008473ffffffffffffffffffffffffffffffffffffffff1673ffffffffffffffffffffffffffffffffffffffff16815260200190815260200160002054905081811015611435576040517f08c379a000000000000000000000000000000000000000000000000000000000815260040161142c906128b5565b60405180910390fd5b8181036000808573ffffffffffffffffffffffffffffffffffffffff1673ffffffffffffffffffffffffffffffffffffffff1681526020019081526020016000208190555081600260008282540392505081905550600073ffffffffffffffffffffffffffffffffffffffff168373ffffffffffffffffffffffffffffffffffffffff167fddf252ad1be2c89b69c2b068fc378daa952ba7f163c4a11628f55a4df523b3ef846040516114e891906121bc565b60405180910390a36114fc83600084611bd9565b505050565b60008060008411611547576040517f08c379a000000000000000000000000000000000000000000000000000000000815260040161153e90612921565b60405180910390fd5b61154f611bde565b841115611591576040517f08c379a00000000000000000000000000000000000000000000000000000000081526004016115889061298d565b60405180910390fd5b60006115a98585600001611bef90919063ffffffff16565b9050836000018054905081036115c65760008092509250506115ef565b60018460010182815481106115de576115dd6129ad565b5b906000526020600020015492509250505b9250929050565b6000600560009054906101000a900473ffffffffffffffffffffffffffffffffffffffff16905081600560006101000a81548173ffffffffffffffffffffffffffffffffffffffff021916908373ffffffffffffffffffffffffffffffffffffffff1602179055508173ffffffffffffffffffffffffffffffffffffffff168173ffffffffffffffffffffffffffffffffffffffff167f8be0079c531659141344cd1fd0a4f28419497f9722a3daafe3b4186f6b6457e060405160405180910390a35050565b6116c4611ca8565b6001600560146101000a81548160ff0219169083151502179055507f62e78cea01bee320cd4e420270b5ea74000d11b0c9f74754ebdbfc544b05a258611708610dbf565b604051611715919061229d565b60405180910390a1565b600061172b6009611cf2565b6000611735611bde565b90507f8030e83b04d87bef53480e26263266d6ca66863aa8506aca6f2559d18aa1cb678160405161176691906121bc565b60405180910390a18091505090565b600073ffffffffffffffffffffffffffffffffffffffff168373ffffffffffffffffffffffffffffffffffffffff16036117e4576040517f08c379a00000000000000000000000000000000000000000000000000000000081526004016117db90612a4e565b60405180910390fd5b600073ffffffffffffffffffffffffffffffffffffffff168273ffffffffffffffffffffffffffffffffffffffff1603611853576040517f08c379a000000000000000000000000000000000000000000000000000000000815260040161184a90612ae0565b60405180910390fd5b61185e838383611a34565b60008060008573ffffffffffffffffffffffffffffffffffffffff1673ffffffffffffffffffffffffffffffffffffffff168152602001908152602001600020549050818110156118e4576040517f08c379a00000000000000000000000000000000000000000000000000000000081526004016118db90612b72565b60405180910390fd5b8181036000808673ffffffffffffffffffffffffffffffffffffffff1673ffffffffffffffffffffffffffffffffffffffff16815260200190815260200160002081905550816000808573ffffffffffffffffffffffffffffffffffffffff1673ffffffffffffffffffffffffffffffffffffffff168152602001908152602001600020600082825401925050819055508273ffffffffffffffffffffffffffffffffffffffff168473ffffffffffffffffffffffffffffffffffffffff167fddf252ad1be2c89b69c2b068fc378daa952ba7f163c4a11628f55a4df523b3ef846040516119d291906121bc565b60405180910390a36119e5848484611bd9565b50505050565b6119f36108c5565b611a32576040517f08c379a0000000000000000000000000000000000000000000000000000000008152600401611a2990612bde565b60405180910390fd5b565b611a3c611ca8565b600073ffffffffffffffffffffffffffffffffffffffff168373ffffffffffffffffffffffffffffffffffffffff1603611b0457600c60008373ffffffffffffffffffffffffffffffffffffffff1673ffffffffffffffffffffffffffffffffffffffff16815260200190815260200160002060009054906101000a900460ff1615611aff57816040517fffa4e618000000000000000000000000000000000000000000000000000000008152600401611af6919061229d565b60405180910390fd5b611bc9565b600073ffffffffffffffffffffffffffffffffffffffff168273ffffffffffffffffffffffffffffffffffffffff1603611bc857600c60008473ffffffffffffffffffffffffffffffffffffffff1673ffffffffffffffffffffffffffffffffffffffff16815260200190815260200160002060009054906101000a900460ff1615611bc757826040517fffa4e618000000000000000000000000000000000000000000000000000000008152600401611bbe919061229d565b60405180910390fd5b5b5b611bd4838383611d08565b505050565b505050565b6000611bea6009611dc0565b905090565b600080838054905003611c055760009050611ca2565b600080848054905090505b80821015611c59576000611c248383611dce565b905084611c318783611df4565b600001541115611c4357809150611c53565b600181611c509190612387565b92505b50611c10565b600082118015611c81575083611c7b86600185611c76919061277d565b611df4565b60000154145b15611c9c57600182611c93919061277d565b92505050611ca2565b81925050505b92915050565b611cb06108c5565b15611cf0576040517f08c379a0000000000000000000000000000000000000000000000000000000008152600401611ce790612c4a565b60405180910390fd5b565b6001816000016000828254019250508190555050565b611d13838383611e16565b600073ffffffffffffffffffffffffffffffffffffffff168373ffffffffffffffffffffffffffffffffffffffff1603611d5d57611d5082611e1b565b611d58611e6e565b611dbb565b600073ffffffffffffffffffffffffffffffffffffffff168273ffffffffffffffffffffffffffffffffffffffff1603611da757611d9a83611e1b565b611da2611e6e565b611dba565b611db083611e1b565b611db982611e1b565b5b5b505050565b600081600001549050919050565b60006002828418611ddf919061274c565b828416611dec9190612387565b905092915050565b60008083600052826020600020019050611e0d81611e82565b91505092915050565b505050565b611e6b600660008373ffffffffffffffffffffffffffffffffffffffff1673ffffffffffffffffffffffffffffffffffffffff168152602001908152602001600020611e66836108fc565b611e8c565b50565b611e806007611e7b6107a7565b611e8c565b565b6000819050919050565b6000611e96611bde565b905080611ea584600001611f07565b1015611f025782600001819080600181540180825580915050600190039060005260206000200160009091909190915055826001018290806001815401808255809150506001900390600052602060002001600090919091909150555b505050565b600080828054905003611f1d5760009050611f4e565b8160018380549050611f2f919061277d565b81548110611f4057611f3f6129ad565b5b906000526020600020015490505b919050565b600081519050919050565b600082825260208201905092915050565b60005b83811015611f8d578082015181840152602081019050611f72565b60008484015250505050565b6000601f19601f8301169050919050565b6000611fb582611f53565b611fbf8185611f5e565b9350611fcf818560208601611f6f565b611fd881611f99565b840191505092915050565b60006020820190508181036000830152611ffd8184611faa565b905092915050565b600080fd5b600073ffffffffffffffffffffffffffffffffffffffff82169050919050565b60006120358261200a565b9050919050565b6120458161202a565b811461205057600080fd5b50565b6000813590506120628161203c565b92915050565b6000819050919050565b61207b81612068565b811461208657600080fd5b50565b60008135905061209881612072565b92915050565b600080604083850312156120b5576120b4612005565b5b60006120c385828601612053565b92505060206120d485828601612089565b9150509250929050565b60008115159050919050565b6120f3816120de565b82525050565b600060208201905061210e60008301846120ea565b92915050565b60006020828403121561212a57612129612005565b5b600061213884828501612089565b91505092915050565b61214a816120de565b811461215557600080fd5b50565b60008135905061216781612141565b92915050565b6000806040838503121561218457612183612005565b5b600061219285828601612053565b92505060206121a385828601612158565b9150509250929050565b6121b681612068565b82525050565b60006020820190506121d160008301846121ad565b92915050565b6000806000606084860312156121f0576121ef612005565b5b60006121fe86828701612053565b935050602061220f86828701612053565b925050604061222086828701612089565b9150509250925092565b600060ff82169050919050565b6122408161222a565b82525050565b600060208201905061225b6000830184612237565b92915050565b60006020828403121561227757612276612005565b5b600061228584828501612053565b91505092915050565b6122978161202a565b82525050565b60006020820190506122b2600083018461228e565b92915050565b600080604083850312156122cf576122ce612005565b5b60006122dd85828601612053565b92505060206122ee85828601612053565b9150509250929050565b7f4e487b7100000000000000000000000000000000000000000000000000000000600052602260045260246000fd5b6000600282049050600182168061233f57607f821691505b602082108103612352576123516122f8565b5b50919050565b7f4e487b7100000000000000000000000000000000000000000000000000000000600052601160045260246000fd5b600061239282612068565b915061239d83612068565b92508282019050808211156123b5576123b4612358565b5b92915050565b7f45524332303a2064656372656173656420616c6c6f77616e63652062656c6f7760008201527f207a65726f000000000000000000000000000000000000000000000000000000602082015250565b6000612417602583611f5e565b9150612422826123bb565b604082019050919050565b600060208201905081810360008301526124468161240a565b9050919050565b7f4f776e61626c653a206e6577206f776e657220697320746865207a65726f206160008201527f6464726573730000000000000000000000000000000000000000000000000000602082015250565b60006124a9602683611f5e565b91506124b48261244d565b604082019050919050565b600060208201905081810360008301526124d88161249c565b9050919050565b7f45524332303a20617070726f76652066726f6d20746865207a65726f2061646460008201527f7265737300000000000000000000000000000000000000000000000000000000602082015250565b600061253b602483611f5e565b9150612546826124df565b604082019050919050565b6000602082019050818103600083015261256a8161252e565b9050919050565b7f45524332303a20617070726f766520746f20746865207a65726f20616464726560008201527f7373000000000000000000000000000000000000000000000000000000000000602082015250565b60006125cd602283611f5e565b91506125d882612571565b604082019050919050565b600060208201905081810360008301526125fc816125c0565b9050919050565b7f4f776e61626c653a2063616c6c6572206973206e6f7420746865206f776e6572600082015250565b6000612639602083611f5e565b915061264482612603565b602082019050919050565b600060208201905081810360008301526126688161262c565b9050919050565b7f45524332303a20696e73756666696369656e7420616c6c6f77616e6365000000600082015250565b60006126a5601d83611f5e565b91506126b08261266f565b602082019050919050565b600060208201905081810360008301526126d481612698565b9050919050565b60006126e682612068565b91506126f183612068565b92508282026126ff81612068565b9150828204841483151761271657612715612358565b5b5092915050565b7f4e487b7100000000000000000000000000000000000000000000000000000000600052601260045260246000fd5b600061275782612068565b915061276283612068565b9250826127725761277161271d565b5b828204905092915050565b600061278882612068565b915061279383612068565b92508282039050818111156127ab576127aa612358565b5b92915050565b7f45524332303a206275726e2066726f6d20746865207a65726f2061646472657360008201527f7300000000000000000000000000000000000000000000000000000000000000602082015250565b600061280d602183611f5e565b9150612818826127b1565b604082019050919050565b6000602082019050818103600083015261283c81612800565b9050919050565b7f45524332303a206275726e20616d6f756e7420657863656564732062616c616e60008201527f6365000000000000000000000000000000000000000000000000000000000000602082015250565b600061289f602283611f5e565b91506128aa82612843565b604082019050919050565b600060208201905081810360008301526128ce81612892565b9050919050565b7f4552433230536e617073686f743a206964206973203000000000000000000000600082015250565b600061290b601683611f5e565b9150612916826128d5565b602082019050919050565b6000602082019050818103600083015261293a816128fe565b9050919050565b7f4552433230536e617073686f743a206e6f6e6578697374656e74206964000000600082015250565b6000612977601d83611f5e565b915061298282612941565b602082019050919050565b600060208201905081810360008301526129a68161296a565b9050919050565b7f4e487b7100000000000000000000000000000000000000000000000000000000600052603260045260246000fd5b7f45524332303a207472616e736665722066726f6d20746865207a65726f20616460008201527f6472657373000000000000000000000000000000000000000000000000000000602082015250565b6000612a38602583611f5e565b9150612a43826129dc565b604082019050919050565b60006020820190508181036000830152612a6781612a2b565b9050919050565b7f45524332303a207472616e7366657220746f20746865207a65726f206164647260008201527f6573730000000000000000000000000000000000000000000000000000000000602082015250565b6000612aca602383611f5e565b9150612ad582612a6e565b604082019050919050565b60006020820190508181036000830152612af981612abd565b9050919050565b7f45524332303a207472616e7366657220616d6f756e742065786365656473206260008201527f616c616e63650000000000000000000000000000000000000000000000000000602082015250565b6000612b5c602683611f5e565b9150612b6782612b00565b604082019050919050565b60006020820190508181036000830152612b8b81612b4f565b9050919050565b7f5061757361626c653a206e6f7420706175736564000000000000000000000000600082015250565b6000612bc8601483611f5e565b9150612bd382612b92565b602082019050919050565b60006020820190508181036000830152612bf781612bbb565b9050919050565b7f5061757361626c653a2070617573656400000000000000000000000000000000600082015250565b6000612c34601083611f5e565b9150612c3f82612bfe565b602082019050919050565b60006020820190508181036000830152612c6381612c27565b905091905056fea2646970667358221220a7aa8d7c2f4bf9569442d241d7fd783fada8e15ee5cb4440b08ed1c68d148e2d64736f6c63430008140033",
  "linkReferences": {},
  "deployedLinkReferences": {}
}